{
  "transactions": [
    {
      "hash": "0x4990ecbf6aa3c04a5a6b49aa465d8fe75c005077316177b5c9cc6ae4595b3b8a",
      "transactionType": "CALL",
      "contractName": "MockNft",
      "contractAddress": "0x3E0aC7568a5441D113518Aa283da106402326cd6",
      "function": "mint(uint256)",
      "arguments": [
        "0"
      ],
      "transaction": {
        "type": "0x02",
        "from": "0xde05a1abb121113a33eed248bd91ddc254d5e9db",
        "to": "0x3e0ac7568a5441d113518aa283da106402326cd6",
        "gas": "0x16fdd",
        "value": "0x0",
        "data": "0xa0712d680000000000000000000000000000000000000000000000000000000000000000",
        "nonce": "0x5e",
        "accessList": []
      },
      "additionalContracts": [],
      "isFixedGasLimit": false
    },
    {
      "hash": "0xbcb6c7a21409153e86d07c69cb67f7da7f82b1e08fbc01cec950bf549b7b59a9",
      "transactionType": "CALL",
      "contractName": "MockNft",
      "contractAddress": "0x3E0aC7568a5441D113518Aa283da106402326cd6",
      "function": "setApprovalForAll(address,bool)",
      "arguments": [
        "0x0F33605f68710ECd2057b6fC4121cAabDc33da61",
        "true"
      ],
      "transaction": {
        "type": "0x02",
        "from": "0xde05a1abb121113a33eed248bd91ddc254d5e9db",
        "to": "0x3e0ac7568a5441d113518aa283da106402326cd6",
        "gas": "0xf89d",
        "value": "0x0",
        "data": "0xa22cb4650000000000000000000000000f33605f68710ecd2057b6fc4121caabdc33da610000000000000000000000000000000000000000000000000000000000000001",
        "nonce": "0x5f",
        "accessList": []
      },
      "additionalContracts": [],
      "isFixedGasLimit": false
    },
    {
      "hash": "0x1761a51f13c79dd14bbe898f20f11be80b49b559a9957306afb5968db77dd31c",
      "transactionType": "CALL",
      "contractName": "NftLocker",
      "contractAddress": "0x0F33605f68710ECd2057b6fC4121cAabDc33da61",
      "function": "lock(uint256[],uint32,bytes)",
      "arguments": [
        "[0]",
        "40231",
        "0x00030100110100000000000000000000000000030d40"
      ],
      "transaction": {
        "type": "0x02",
        "from": "0xde05a1abb121113a33eed248bd91ddc254d5e9db",
        "to": "0x0f33605f68710ecd2057b6fc4121caabdc33da61",
        "gas": "0x6c204",
        "value": "0x5792d822733a",
        "data": "0xb4d1ab4200000000000000000000000000000000000000000000000000000000000000600000000000000000000000000000000000000000000000000000000000009d2700000000000000000000000000000000000000000000000000000000000000a000000000000000000000000000000000000000000000000000000000000000010000000000000000000000000000000000000000000000000000000000000000000000000000000000000000000000000000000000000000000000000000001600030100110100000000000000000000000000030d4000000000000000000000",
        "nonce": "0x60",
        "accessList": []
      },
      "additionalContracts": [],
      "isFixedGasLimit": false
    }
  ],
  "receipts": [],
  "libraries": [],
  "pending": [
    "0x4990ecbf6aa3c04a5a6b49aa465d8fe75c005077316177b5c9cc6ae4595b3b8a",
    "0xbcb6c7a21409153e86d07c69cb67f7da7f82b1e08fbc01cec950bf549b7b59a9",
    "0x1761a51f13c79dd14bbe898f20f11be80b49b559a9957306afb5968db77dd31c"
  ],
  "returns": {},
  "timestamp": 1709799485,
  "chain": 11155111,
  "multi": false,
  "commit": "1a57873"
}