{
  "transactions": [
    {
      "hash": "0x9dd77001a87cc4426171141bef50555260ffecabcbd14f16641679843b21115d",
      "transactionType": "CALL",
      "contractName": "MockNft",
      "contractAddress": "0xa3Fc3B89cC2ec5b011E99696466A0eC1829b9885",
      "function": "mint(uint256)",
      "arguments": [
        "0"
      ],
      "transaction": {
        "type": "0x02",
        "from": "0xde05a1abb121113a33eed248bd91ddc254d5e9db",
        "to": "0xa3fc3b89cc2ec5b011e99696466a0ec1829b9885",
        "gas": "0x16fdd",
        "value": "0x0",
        "data": "0xa0712d680000000000000000000000000000000000000000000000000000000000000000",
        "nonce": "0x55",
        "accessList": []
      },
      "additionalContracts": [],
      "isFixedGasLimit": false
    },
    {
      "hash": "0xa2b5598219aa25bf1c891e592be4deb3fe063a2c06aa8fc65e998fb89cc8082c",
      "transactionType": "CALL",
      "contractName": "MockNft",
      "contractAddress": "0xa3Fc3B89cC2ec5b011E99696466A0eC1829b9885",
      "function": "setApprovalForAll(address,bool)",
      "arguments": [
        "0x30374A02D4547788003d8a4bD0863AD168cF5137",
        "true"
      ],
      "transaction": {
        "type": "0x02",
        "from": "0xde05a1abb121113a33eed248bd91ddc254d5e9db",
        "to": "0xa3fc3b89cc2ec5b011e99696466a0ec1829b9885",
        "gas": "0x1072c",
        "value": "0x0",
        "data": "0xa22cb46500000000000000000000000030374a02d4547788003d8a4bd0863ad168cf51370000000000000000000000000000000000000000000000000000000000000001",
        "nonce": "0x56",
        "accessList": []
      },
      "additionalContracts": [],
      "isFixedGasLimit": false
    },
    {
      "hash": "0xbaf1fdb45b4a555424162de09e499c0e8ea17fd884bf3f241978f03ea6cb554d",
      "transactionType": "CALL",
      "contractName": "NftLocker",
      "contractAddress": "0x30374A02D4547788003d8a4bD0863AD168cF5137",
      "function": "lock(uint256[],uint32,bytes)",
      "arguments": [
        "[0]",
        "40231",
        "0x00030100110100000000000000000000000000030d40"
      ],
      "transaction": {
        "type": "0x02",
        "from": "0xde05a1abb121113a33eed248bd91ddc254d5e9db",
        "to": "0x30374a02d4547788003d8a4bd0863ad168cf5137",
        "gas": "0x6c26d",
        "value": "0x5792d822733a",
        "data": "0xb4d1ab4200000000000000000000000000000000000000000000000000000000000000600000000000000000000000000000000000000000000000000000000000009d2700000000000000000000000000000000000000000000000000000000000000a000000000000000000000000000000000000000000000000000000000000000010000000000000000000000000000000000000000000000000000000000000000000000000000000000000000000000000000000000000000000000000000001600030100110100000000000000000000000000030d4000000000000000000000",
        "nonce": "0x57",
        "accessList": []
      },
      "additionalContracts": [],
      "isFixedGasLimit": false
    }
  ],
  "receipts": [],
  "libraries": [],
  "pending": [
    "0x9dd77001a87cc4426171141bef50555260ffecabcbd14f16641679843b21115d",
    "0xa2b5598219aa25bf1c891e592be4deb3fe063a2c06aa8fc65e998fb89cc8082c",
    "0xbaf1fdb45b4a555424162de09e499c0e8ea17fd884bf3f241978f03ea6cb554d"
  ],
  "returns": {},
  "timestamp": 1709728939,
  "chain": 11155111,
  "multi": false,
  "commit": "cc873b8"
}