{
  "transactions": [
    {
      "hash": "0x4990ecbf6aa3c04a5a6b49aa465d8fe75c005077316177b5c9cc6ae4595b3b8a",
      "transactionType": "CALL",
      "contractName": "MockNft",
      "contractAddress": "0x3E0aC7568a5441D113518Aa283da106402326cd6",
      "function": "mint(uint256)",
      "arguments": [
        "0"
      ],
      "transaction": {
        "type": "0x02",
        "from": "0xde05a1abb121113a33eed248bd91ddc254d5e9db",
        "to": "0x3e0ac7568a5441d113518aa283da106402326cd6",
        "gas": "0x16fdd",
        "value": "0x0",
        "data": "0xa0712d680000000000000000000000000000000000000000000000000000000000000000",
        "nonce": "0x5e",
        "accessList": []
      },
      "additionalContracts": [],
      "isFixedGasLimit": false
    },
    {
      "hash": "0xbcb6c7a21409153e86d07c69cb67f7da7f82b1e08fbc01cec950bf549b7b59a9",
      "transactionType": "CALL",
      "contractName": "MockNft",
      "contractAddress": "0x3E0aC7568a5441D113518Aa283da106402326cd6",
      "function": "setApprovalForAll(address,bool)",
      "arguments": [
        "0x0F33605f68710ECd2057b6fC4121cAabDc33da61",
        "true"
      ],
      "transaction": {
        "type": "0x02",
        "from": "0xde05a1abb121113a33eed248bd91ddc254d5e9db",
        "to": "0x3e0ac7568a5441d113518aa283da106402326cd6",
        "gas": "0xf89d",
        "value": "0x0",
        "data": "0xa22cb4650000000000000000000000000f33605f68710ecd2057b6fc4121caabdc33da610000000000000000000000000000000000000000000000000000000000000001",
        "nonce": "0x5f",
        "accessList": []
      },
      "additionalContracts": [],
      "isFixedGasLimit": false
    },
    {
      "hash": "0x1761a51f13c79dd14bbe898f20f11be80b49b559a9957306afb5968db77dd31c",
      "transactionType": "CALL",
      "contractName": "NftLocker",
      "contractAddress": "0x0F33605f68710ECd2057b6fC4121cAabDc33da61",
      "function": "lock(uint256[],uint32,bytes)",
      "arguments": [
        "[0]",
        "40231",
        "0x00030100110100000000000000000000000000030d40"
      ],
      "transaction": {
        "type": "0x02",
        "from": "0xde05a1abb121113a33eed248bd91ddc254d5e9db",
        "to": "0x0f33605f68710ecd2057b6fc4121caabdc33da61",
        "gas": "0x6c204",
        "value": "0x5792d822733a",
        "data": "0xb4d1ab4200000000000000000000000000000000000000000000000000000000000000600000000000000000000000000000000000000000000000000000000000009d2700000000000000000000000000000000000000000000000000000000000000a000000000000000000000000000000000000000000000000000000000000000010000000000000000000000000000000000000000000000000000000000000000000000000000000000000000000000000000000000000000000000000000001600030100110100000000000000000000000000030d4000000000000000000000",
        "nonce": "0x60",
        "accessList": []
      },
      "additionalContracts": [],
      "isFixedGasLimit": false
    }
  ],
  "receipts": [
    {
      "transactionHash": "0x4990ecbf6aa3c04a5a6b49aa465d8fe75c005077316177b5c9cc6ae4595b3b8a",
      "transactionIndex": "0x19",
      "blockHash": "0xf4b00daeca96ad026d7243b855ce280035d5a7f0f25a28b7ae43750be226f2ac",
      "blockNumber": "0x52ea99",
      "from": "0xdE05a1Abb121113a33eeD248BD91ddC254d5E9Db",
      "to": "0x3E0aC7568a5441D113518Aa283da106402326cd6",
      "cumulativeGasUsed": "0x16561b",
      "gasUsed": "0x10a54",
      "contractAddress": null,
      "logs": [
        {
          "address": "0x3E0aC7568a5441D113518Aa283da106402326cd6",
          "topics": [
            "0xddf252ad1be2c89b69c2b068fc378daa952ba7f163c4a11628f55a4df523b3ef",
            "0x0000000000000000000000000000000000000000000000000000000000000000",
            "0x000000000000000000000000de05a1abb121113a33eed248bd91ddc254d5e9db",
            "0x0000000000000000000000000000000000000000000000000000000000000000"
          ],
          "data": "0x",
          "blockHash": "0xf4b00daeca96ad026d7243b855ce280035d5a7f0f25a28b7ae43750be226f2ac",
          "blockNumber": "0x52ea99",
          "transactionHash": "0x4990ecbf6aa3c04a5a6b49aa465d8fe75c005077316177b5c9cc6ae4595b3b8a",
          "transactionIndex": "0x19",
          "logIndex": "0xa",
          "removed": false
        }
      ],
      "status": "0x1",
      "logsBloom": "0x00000000000000000000000000000000000000000008000000100000000000000000000000000000000000000000000000000000000000000000000000000000000000000000000000000008000000000000000000000000000020000000000000000020020000000000000000000800000000000000004000000010000000000000000000000020000000000000000000000000000000000000000000000000000000000000000000000000000000000000000000000000000000000000000000000002000000000000000000000000000000000000000000000000000020000000000000000000000000000000000000000000000000000000000000000000",
      "type": "0x2",
      "effectiveGasPrice": "0xba33581d"
    },
    {
      "transactionHash": "0xbcb6c7a21409153e86d07c69cb67f7da7f82b1e08fbc01cec950bf549b7b59a9",
      "transactionIndex": "0x1a",
      "blockHash": "0xf4b00daeca96ad026d7243b855ce280035d5a7f0f25a28b7ae43750be226f2ac",
      "blockNumber": "0x52ea99",
      "from": "0xdE05a1Abb121113a33eeD248BD91ddC254d5E9Db",
      "to": "0x3E0aC7568a5441D113518Aa283da106402326cd6",
      "cumulativeGasUsed": "0x170a1a",
      "gasUsed": "0xb3ff",
      "contractAddress": null,
      "logs": [
        {
          "address": "0x3E0aC7568a5441D113518Aa283da106402326cd6",
          "topics": [
            "0x17307eab39ab6107e8899845ad3d59bd9653f200f220920489ca2b5937696c31",
            "0x000000000000000000000000de05a1abb121113a33eed248bd91ddc254d5e9db",
            "0x0000000000000000000000000f33605f68710ecd2057b6fc4121caabdc33da61"
          ],
          "data": "0x0000000000000000000000000000000000000000000000000000000000000001",
          "blockHash": "0xf4b00daeca96ad026d7243b855ce280035d5a7f0f25a28b7ae43750be226f2ac",
          "blockNumber": "0x52ea99",
          "transactionHash": "0xbcb6c7a21409153e86d07c69cb67f7da7f82b1e08fbc01cec950bf549b7b59a9",
          "transactionIndex": "0x1a",
          "logIndex": "0xb",
          "removed": false
        }
      ],
      "status": "0x1",
      "logsBloom": "0x00000000000000000000000000000000000000000008000000100000000000000000000000000000000000000000000000000000000000000000010200000000000000000000000000000000000000000000000000000000000020000000000002000020000000000000000000000000000000000000004000000000000000000000000000000020000000000000000000000000000000000000000000000000000000000000000000000000000000000000000000000000000000000000000000000000000000100000000000000000000000000000000000000000000000000000200800000000000000000000000000000000000000000000000000000000",
      "type": "0x2",
      "effectiveGasPrice": "0xba33581d"
    },
    {
      "transactionHash": "0x1761a51f13c79dd14bbe898f20f11be80b49b559a9957306afb5968db77dd31c",
      "transactionIndex": "0x1b",
      "blockHash": "0xf4b00daeca96ad026d7243b855ce280035d5a7f0f25a28b7ae43750be226f2ac",
      "blockNumber": "0x52ea99",
      "from": "0xdE05a1Abb121113a33eeD248BD91ddC254d5E9Db",
      "to": "0x0F33605f68710ECd2057b6fC4121cAabDc33da61",
      "cumulativeGasUsed": "0x1bee9a",
      "gasUsed": "0x4e480",
      "contractAddress": null,
      "logs": [
        {
          "address": "0x0F33605f68710ECd2057b6fC4121cAabDc33da61",
          "topics": [
            "0xc1f9295331f5b6b03bfcca16fd4fdcdefaf753e2624cc44e8cdf97bd53d72f8c",
            "0x000000000000000000000000de05a1abb121113a33eed248bd91ddc254d5e9db",
            "0x0000000000000000000000000000000000000000000000000000000000000000"
          ],
          "data": "0x",
          "blockHash": "0xf4b00daeca96ad026d7243b855ce280035d5a7f0f25a28b7ae43750be226f2ac",
          "blockNumber": "0x52ea99",
          "transactionHash": "0x1761a51f13c79dd14bbe898f20f11be80b49b559a9957306afb5968db77dd31c",
          "transactionIndex": "0x1b",
          "logIndex": "0xc",
          "removed": false
        },
        {
          "address": "0x3E0aC7568a5441D113518Aa283da106402326cd6",
          "topics": [
            "0xddf252ad1be2c89b69c2b068fc378daa952ba7f163c4a11628f55a4df523b3ef",
            "0x000000000000000000000000de05a1abb121113a33eed248bd91ddc254d5e9db",
            "0x0000000000000000000000000f33605f68710ecd2057b6fc4121caabdc33da61",
            "0x0000000000000000000000000000000000000000000000000000000000000000"
          ],
          "data": "0x",
          "blockHash": "0xf4b00daeca96ad026d7243b855ce280035d5a7f0f25a28b7ae43750be226f2ac",
          "blockNumber": "0x52ea99",
          "transactionHash": "0x1761a51f13c79dd14bbe898f20f11be80b49b559a9957306afb5968db77dd31c",
          "transactionIndex": "0x1b",
          "logIndex": "0xd",
          "removed": false
        },
        {
          "address": "0xcc1ae8Cf5D3904Cef3360A9532B477529b177cCE",
          "topics": [
            "0x61ed099e74a97a1d7f8bb0952a88ca8b7b8ebd00c126ea04671f92a81213318a"
          ],
          "data": "0x000000000000000000000000718b92b5cb0a5552039b593faf724d182a881eda00000000000000000000000000000000000000000000000000004c22c5d10068",
          "blockHash": "0xf4b00daeca96ad026d7243b855ce280035d5a7f0f25a28b7ae43750be226f2ac",
          "blockNumber": "0x52ea99",
          "transactionHash": "0x1761a51f13c79dd14bbe898f20f11be80b49b559a9957306afb5968db77dd31c",
          "transactionIndex": "0x1b",
          "logIndex": "0xe",
          "removed": false
        },
        {
          "address": "0xcc1ae8Cf5D3904Cef3360A9532B477529b177cCE",
          "topics": [
            "0x07ea52d82345d6e838192107d8fd7123d9c2ec8e916cd0aad13fd2b60db24644"
          ],
          "data": "0x000000000000000000000000000000000000000000000000000000000000006000000000000000000000000000000000000000000000000000000000000000a000000000000000000000000000000000000000000000000000000000000000c000000000000000000000000000000000000000000000000000000000000000010000000000000000000000008eebf8b423b73bfca51a1db4b7354aa0bfca91930000000000000000000000000000000000000000000000000000000000000000000000000000000000000000000000000000000000000000000000000000000100000000000000000000000000000000000000000000000000000b70125172d2",
          "blockHash": "0xf4b00daeca96ad026d7243b855ce280035d5a7f0f25a28b7ae43750be226f2ac",
          "blockNumber": "0x52ea99",
          "transactionHash": "0x1761a51f13c79dd14bbe898f20f11be80b49b559a9957306afb5968db77dd31c",
          "transactionIndex": "0x1b",
          "logIndex": "0xf",
          "removed": false
        },
        {
          "address": "0x6EDCE65403992e310A62460808c4b910D972f10f",
          "topics": [
            "0x1ab700d4ced0c005b164c0f789fd09fcbb0156d4c2041b8a3bfbcd961cd1567f"
          ],
          "data": "0x00000000000000000000000000000000000000000000000000000000000000600000000000000000000000000000000000000000000000000000000000000180000000000000000000000000cc1ae8cf5d3904cef3360a9532b477529b177cce00000000000000000000000000000000000000000000000000000000000000f101000000000000000100009ce10000000000000000000000000f33605f68710ecd2057b6fc4121caabdc33da6100009d2700000000000000000000000049638a30ba51161edc5a8548b7698fd65b469418cd86b3fcceab60fee67d9a56c3c45071ab3fb4856bd2f6557d9a0ad6acea20f3000000000000000000000000de05a1abb121113a33eed248bd91ddc254d5e9db000000000000000000000000000000000000000000000000000000000000004000000000000000000000000000000000000000000000000000000000000000010000000000000000000000000000000000000000000000000000000000000000000000000000000000000000000000000000000000000000000000000000000000000000000000000000000000001600030100110100000000000000000000000000030d4000000000000000000000",
          "blockHash": "0xf4b00daeca96ad026d7243b855ce280035d5a7f0f25a28b7ae43750be226f2ac",
          "blockNumber": "0x52ea99",
          "transactionHash": "0x1761a51f13c79dd14bbe898f20f11be80b49b559a9957306afb5968db77dd31c",
          "transactionIndex": "0x1b",
          "logIndex": "0x10",
          "removed": false
        }
      ],
      "status": "0x1",
      "logsBloom": "0x00000000000000000000040000000000000000000008000000100000000100000000000000000000200000000000000000000000000000000000010200000000000000000000000000000008000000000000000000000000000020000000000000000020020000008200000000000800000020000400004000000010000000000000000000000020000000081000000000000000000000000000000000000000000000008000000000100000000000000000000000400000000448000000000000000002000000100000000000000000000000080000000800000000000020000000040000000000000000000000002000000000000000000000000000000020",
      "type": "0x2",
      "effectiveGasPrice": "0xba33581d"
    }
  ],
  "libraries": [],
  "pending": [],
  "returns": {},
  "timestamp": 1709799493,
  "chain": 11155111,
  "multi": false,
  "commit": "1a57873"
}