{
  "transactions": [
    {
      "hash": "0x245cc849e83b287f28030f87499ebeeef97e4976c3004437f84f2ed9e603bc97",
      "transactionType": "CALL",
      "contractName": "NftLocker",
      "contractAddress": "0x30374A02D4547788003d8a4bD0863AD168cF5137",
      "function": "setPeer(uint32,bytes32)",
      "arguments": [
        "40231",
        "0x000000000000000000000000829c17addd2efbf11584317eeb4d967ecb39d4d4"
      ],
      "transaction": {
        "type": "0x02",
        "from": "0xde05a1abb121113a33eed248bd91ddc254d5e9db",
        "to": "0x30374a02d4547788003d8a4bd0863ad168cf5137",
        "gas": "0x100cf",
        "value": "0x0",
        "data": "0x3400288b0000000000000000000000000000000000000000000000000000000000009d27000000000000000000000000829c17addd2efbf11584317eeb4d967ecb39d4d4",
        "nonce": "0x53",
        "accessList": []
      },
      "additionalContracts": [],
      "isFixedGasLimit": false
    }
  ],
  "receipts": [
    {
      "transactionHash": "0x245cc849e83b287f28030f87499ebeeef97e4976c3004437f84f2ed9e603bc97",
      "transactionIndex": "0x15",
      "blockHash": "0x73df3f42a92932eb66bbbc6c4bd5939b99de1cfc06163e376c5264928c065d02",
      "blockNumber": "0x52cd0e",
      "from": "0xdE05a1Abb121113a33eeD248BD91ddC254d5E9Db",
      "to": "0x30374A02D4547788003d8a4bD0863AD168cF5137",
      "cumulativeGasUsed": "0x14330df",
      "gasUsed": "0xb9ee",
      "contractAddress": null,
      "logs": [
        {
          "address": "0x30374A02D4547788003d8a4bD0863AD168cF5137",
          "topics": [
            "0x238399d427b947898edb290f5ff0f9109849b1c3ba196a42e35f00c50a54b98b"
          ],
          "data": "0x0000000000000000000000000000000000000000000000000000000000009d27000000000000000000000000829c17addd2efbf11584317eeb4d967ecb39d4d4",
          "blockHash": "0x73df3f42a92932eb66bbbc6c4bd5939b99de1cfc06163e376c5264928c065d02",
          "blockNumber": "0x52cd0e",
          "transactionHash": "0x245cc849e83b287f28030f87499ebeeef97e4976c3004437f84f2ed9e603bc97",
          "transactionIndex": "0x15",
          "logIndex": "0x13",
          "removed": false
        }
      ],
      "status": "0x1",
      "logsBloom": "0x00000000000000000000000000000000000000000000000000000000000000000000000000000000000000000000000000000000000000000800000000000000000204000000000000000000000000000000000000000000000000000000000000000000000000000000000000000000000000000000000000000000000000000000000000000000000000000000000000000000000000000000000000000000000000000000000000000000000000000000000000000000000802000000000000000000000000000000000000000000000000000000000000040000000000000000000000000000000000000000000000000000000000000000000000000000",
      "type": "0x2",
      "effectiveGasPrice": "0xb97bbf01"
    }
  ],
  "libraries": [],
  "pending": [],
  "returns": {},
  "timestamp": 1709703652,
  "chain": 11155111,
  "multi": false,
  "commit": "0feae5e"
}