{
  "transactions": [
    {
      "hash": "0x245cc849e83b287f28030f87499ebeeef97e4976c3004437f84f2ed9e603bc97",
      "transactionType": "CALL",
      "contractName": "NftLocker",
      "contractAddress": "0x30374A02D4547788003d8a4bD0863AD168cF5137",
      "function": "setPeer(uint32,bytes32)",
      "arguments": [
        "40231",
        "0x000000000000000000000000829c17addd2efbf11584317eeb4d967ecb39d4d4"
      ],
      "transaction": {
        "type": "0x02",
        "from": "0xde05a1abb121113a33eed248bd91ddc254d5e9db",
        "to": "0x30374a02d4547788003d8a4bd0863ad168cf5137",
        "gas": "0x100cf",
        "value": "0x0",
        "data": "0x3400288b0000000000000000000000000000000000000000000000000000000000009d27000000000000000000000000829c17addd2efbf11584317eeb4d967ecb39d4d4",
        "nonce": "0x53",
        "accessList": []
      },
      "additionalContracts": [],
      "isFixedGasLimit": false
    }
  ],
  "receipts": [],
  "libraries": [],
  "pending": [
    "0x245cc849e83b287f28030f87499ebeeef97e4976c3004437f84f2ed9e603bc97"
  ],
  "returns": {},
  "timestamp": 1709703638,
  "chain": 11155111,
  "multi": false,
  "commit": "0feae5e"
}