{
  "transactions": [
    {
      "hash": "0xd3d229db61a3a1f355dda31295b5f57504b7a34c15775b5867f30b743923a966",
      "transactionType": "CALL",
      "contractName": "NftLocker",
      "contractAddress": "0x30374A02D4547788003d8a4bD0863AD168cF5137",
      "function": "setPeer(uint32,bytes32)",
      "arguments": [
        "40231",
        "0x000000000000000000000000829c17addd2efbf11584317eeb4d967ecb39d4d4"
      ],
      "transaction": {
        "type": "0x02",
        "from": "0xde05a1abb121113a33eed248bd91ddc254d5e9db",
        "to": "0x30374a02d4547788003d8a4bd0863ad168cf5137",
        "gas": "0x9e3c",
        "value": "0x0",
        "data": "0x3400288b0000000000000000000000000000000000000000000000000000000000009d27000000000000000000000000829c17addd2efbf11584317eeb4d967ecb39d4d4",
        "nonce": "0x54",
        "accessList": []
      },
      "additionalContracts": [],
      "isFixedGasLimit": false
    }
  ],
  "receipts": [
    {
      "transactionHash": "0xd3d229db61a3a1f355dda31295b5f57504b7a34c15775b5867f30b743923a966",
      "transactionIndex": "0xd",
      "blockHash": "0xb1155e9f4d5c90e093f862060b4f05f9dfb5dcd8f56d24075a31461756551c65",
      "blockNumber": "0x52cd66",
      "from": "0xdE05a1Abb121113a33eeD248BD91ddC254d5E9Db",
      "to": "0x30374A02D4547788003d8a4bD0863AD168cF5137",
      "cumulativeGasUsed": "0xeae99",
      "gasUsed": "0x6c32",
      "contractAddress": null,
      "logs": [
        {
          "address": "0x30374A02D4547788003d8a4bD0863AD168cF5137",
          "topics": [
            "0x238399d427b947898edb290f5ff0f9109849b1c3ba196a42e35f00c50a54b98b"
          ],
          "data": "0x0000000000000000000000000000000000000000000000000000000000009d27000000000000000000000000829c17addd2efbf11584317eeb4d967ecb39d4d4",
          "blockHash": "0xb1155e9f4d5c90e093f862060b4f05f9dfb5dcd8f56d24075a31461756551c65",
          "blockNumber": "0x52cd66",
          "transactionHash": "0xd3d229db61a3a1f355dda31295b5f57504b7a34c15775b5867f30b743923a966",
          "transactionIndex": "0xd",
          "logIndex": "0x11",
          "removed": false
        }
      ],
      "status": "0x1",
      "logsBloom": "0x00000000000000000000000000000000000000000000000000000000000000000000000000000000000000000000000000000000000000000800000000000000000204000000000000000000000000000000000000000000000000000000000000000000000000000000000000000000000000000000000000000000000000000000000000000000000000000000000000000000000000000000000000000000000000000000000000000000000000000000000000000000000802000000000000000000000000000000000000000000000000000000000000040000000000000000000000000000000000000000000000000000000000000000000000000000",
      "type": "0x2",
      "effectiveGasPrice": "0xba01abc8"
    }
  ],
  "libraries": [],
  "pending": [],
  "returns": {},
  "timestamp": 1709704740,
  "chain": 11155111,
  "multi": false,
  "commit": "0feae5e"
}