{
  "transactions": [
    {
      "hash": "0x9dd77001a87cc4426171141bef50555260ffecabcbd14f16641679843b21115d",
      "transactionType": "CALL",
      "contractName": "MockNft",
      "contractAddress": "0xa3Fc3B89cC2ec5b011E99696466A0eC1829b9885",
      "function": "mint(uint256)",
      "arguments": [
        "0"
      ],
      "transaction": {
        "type": "0x02",
        "from": "0xde05a1abb121113a33eed248bd91ddc254d5e9db",
        "to": "0xa3fc3b89cc2ec5b011e99696466a0ec1829b9885",
        "gas": "0x16fdd",
        "value": "0x0",
        "data": "0xa0712d680000000000000000000000000000000000000000000000000000000000000000",
        "nonce": "0x55",
        "accessList": []
      },
      "additionalContracts": [],
      "isFixedGasLimit": false
    },
    {
      "hash": "0xa2b5598219aa25bf1c891e592be4deb3fe063a2c06aa8fc65e998fb89cc8082c",
      "transactionType": "CALL",
      "contractName": "MockNft",
      "contractAddress": "0xa3Fc3B89cC2ec5b011E99696466A0eC1829b9885",
      "function": "setApprovalForAll(address,bool)",
      "arguments": [
        "0x30374A02D4547788003d8a4bD0863AD168cF5137",
        "true"
      ],
      "transaction": {
        "type": "0x02",
        "from": "0xde05a1abb121113a33eed248bd91ddc254d5e9db",
        "to": "0xa3fc3b89cc2ec5b011e99696466a0ec1829b9885",
        "gas": "0x1072c",
        "value": "0x0",
        "data": "0xa22cb46500000000000000000000000030374a02d4547788003d8a4bd0863ad168cf51370000000000000000000000000000000000000000000000000000000000000001",
        "nonce": "0x56",
        "accessList": []
      },
      "additionalContracts": [],
      "isFixedGasLimit": false
    },
    {
      "hash": "0xbaf1fdb45b4a555424162de09e499c0e8ea17fd884bf3f241978f03ea6cb554d",
      "transactionType": "CALL",
      "contractName": "NftLocker",
      "contractAddress": "0x30374A02D4547788003d8a4bD0863AD168cF5137",
      "function": "lock(uint256[],uint32,bytes)",
      "arguments": [
        "[0]",
        "40231",
        "0x00030100110100000000000000000000000000030d40"
      ],
      "transaction": {
        "type": "0x02",
        "from": "0xde05a1abb121113a33eed248bd91ddc254d5e9db",
        "to": "0x30374a02d4547788003d8a4bd0863ad168cf5137",
        "gas": "0x6c26d",
        "value": "0x5792d822733a",
        "data": "0xb4d1ab4200000000000000000000000000000000000000000000000000000000000000600000000000000000000000000000000000000000000000000000000000009d2700000000000000000000000000000000000000000000000000000000000000a000000000000000000000000000000000000000000000000000000000000000010000000000000000000000000000000000000000000000000000000000000000000000000000000000000000000000000000000000000000000000000000001600030100110100000000000000000000000000030d4000000000000000000000",
        "nonce": "0x57",
        "accessList": []
      },
      "additionalContracts": [],
      "isFixedGasLimit": false
    }
  ],
  "receipts": [
    {
      "transactionHash": "0x9dd77001a87cc4426171141bef50555260ffecabcbd14f16641679843b21115d",
      "transactionIndex": "0xe",
      "blockHash": "0x9efcd9e9879a7a007ffd6aab643af757ab19e860fbdec9c3b32bfaa85893ed39",
      "blockNumber": "0x52d4d8",
      "from": "0xdE05a1Abb121113a33eeD248BD91ddC254d5E9Db",
      "to": "0xa3Fc3B89cC2ec5b011E99696466A0eC1829b9885",
      "cumulativeGasUsed": "0x172723",
      "gasUsed": "0x10a54",
      "contractAddress": null,
      "logs": [
        {
          "address": "0xa3Fc3B89cC2ec5b011E99696466A0eC1829b9885",
          "topics": [
            "0xddf252ad1be2c89b69c2b068fc378daa952ba7f163c4a11628f55a4df523b3ef",
            "0x0000000000000000000000000000000000000000000000000000000000000000",
            "0x000000000000000000000000de05a1abb121113a33eed248bd91ddc254d5e9db",
            "0x0000000000000000000000000000000000000000000000000000000000000000"
          ],
          "data": "0x",
          "blockHash": "0x9efcd9e9879a7a007ffd6aab643af757ab19e860fbdec9c3b32bfaa85893ed39",
          "blockNumber": "0x52d4d8",
          "transactionHash": "0x9dd77001a87cc4426171141bef50555260ffecabcbd14f16641679843b21115d",
          "transactionIndex": "0xe",
          "logIndex": "0x8",
          "removed": false
        }
      ],
      "status": "0x1",
      "logsBloom": "0x00000000000000000000000000000000000000000000000000100000000000000000000000000000000000000000000000000000000000000000000000000000000000000000000000000008000000000000000000000000000000000000000000000000020000000000000000000800000000000000004000000010000000000000000000000020000000000000000000000000000000000000000000000000000000000000000000000000000000000000000000000000000000000000000000000012000000000000000000000000000000000000000000000000000020800000000000000000000000010000000000000000000000000000000000000000",
      "type": "0x2",
      "effectiveGasPrice": "0xbf244c04"
    },
    {
      "transactionHash": "0xa2b5598219aa25bf1c891e592be4deb3fe063a2c06aa8fc65e998fb89cc8082c",
      "transactionIndex": "0xf",
      "blockHash": "0x9efcd9e9879a7a007ffd6aab643af757ab19e860fbdec9c3b32bfaa85893ed39",
      "blockNumber": "0x52d4d8",
      "from": "0xdE05a1Abb121113a33eeD248BD91ddC254d5E9Db",
      "to": "0xa3Fc3B89cC2ec5b011E99696466A0eC1829b9885",
      "cumulativeGasUsed": "0x17db16",
      "gasUsed": "0xb3f3",
      "contractAddress": null,
      "logs": [
        {
          "address": "0xa3Fc3B89cC2ec5b011E99696466A0eC1829b9885",
          "topics": [
            "0x17307eab39ab6107e8899845ad3d59bd9653f200f220920489ca2b5937696c31",
            "0x000000000000000000000000de05a1abb121113a33eed248bd91ddc254d5e9db",
            "0x00000000000000000000000030374a02d4547788003d8a4bd0863ad168cf5137"
          ],
          "data": "0x0000000000000000000000000000000000000000000000000000000000000001",
          "blockHash": "0x9efcd9e9879a7a007ffd6aab643af757ab19e860fbdec9c3b32bfaa85893ed39",
          "blockNumber": "0x52d4d8",
          "transactionHash": "0xa2b5598219aa25bf1c891e592be4deb3fe063a2c06aa8fc65e998fb89cc8082c",
          "transactionIndex": "0xf",
          "logIndex": "0x9",
          "removed": false
        }
      ],
      "status": "0x1",
      "logsBloom": "0x00000000000000000000000000000000000000000000000000102000000000000000000000000000000000000000000000000000000000000000000000000000000000000000000000000400000000000000000000000000000000000000000802000000000000000000000000000000000000000000004000000000000000000000000000000020000000000000000000000000000000000000000000000000000000000000000000000000000000000000000000000000000000000000000000000010000000000000000000000000000000000000000000000000000000800000200800000000000000010000000000000000000000000000000000000000",
      "type": "0x2",
      "effectiveGasPrice": "0xbf244c04"
    },
    {
      "transactionHash": "0xbaf1fdb45b4a555424162de09e499c0e8ea17fd884bf3f241978f03ea6cb554d",
      "transactionIndex": "0x10",
      "blockHash": "0x9efcd9e9879a7a007ffd6aab643af757ab19e860fbdec9c3b32bfaa85893ed39",
      "blockNumber": "0x52d4d8",
      "from": "0xdE05a1Abb121113a33eeD248BD91ddC254d5E9Db",
      "to": "0x30374A02D4547788003d8a4bD0863AD168cF5137",
      "cumulativeGasUsed": "0x1cbfe3",
      "gasUsed": "0x4e4cd",
      "contractAddress": null,
      "logs": [
        {
          "address": "0x30374A02D4547788003d8a4bD0863AD168cF5137",
          "topics": [
            "0xc1f9295331f5b6b03bfcca16fd4fdcdefaf753e2624cc44e8cdf97bd53d72f8c",
            "0x000000000000000000000000de05a1abb121113a33eed248bd91ddc254d5e9db",
            "0x0000000000000000000000000000000000000000000000000000000000000000"
          ],
          "data": "0x",
          "blockHash": "0x9efcd9e9879a7a007ffd6aab643af757ab19e860fbdec9c3b32bfaa85893ed39",
          "blockNumber": "0x52d4d8",
          "transactionHash": "0xbaf1fdb45b4a555424162de09e499c0e8ea17fd884bf3f241978f03ea6cb554d",
          "transactionIndex": "0x10",
          "logIndex": "0xa",
          "removed": false
        },
        {
          "address": "0xa3Fc3B89cC2ec5b011E99696466A0eC1829b9885",
          "topics": [
            "0xddf252ad1be2c89b69c2b068fc378daa952ba7f163c4a11628f55a4df523b3ef",
            "0x000000000000000000000000de05a1abb121113a33eed248bd91ddc254d5e9db",
            "0x00000000000000000000000030374a02d4547788003d8a4bd0863ad168cf5137",
            "0x0000000000000000000000000000000000000000000000000000000000000000"
          ],
          "data": "0x",
          "blockHash": "0x9efcd9e9879a7a007ffd6aab643af757ab19e860fbdec9c3b32bfaa85893ed39",
          "blockNumber": "0x52d4d8",
          "transactionHash": "0xbaf1fdb45b4a555424162de09e499c0e8ea17fd884bf3f241978f03ea6cb554d",
          "transactionIndex": "0x10",
          "logIndex": "0xb",
          "removed": false
        },
        {
          "address": "0xcc1ae8Cf5D3904Cef3360A9532B477529b177cCE",
          "topics": [
            "0x61ed099e74a97a1d7f8bb0952a88ca8b7b8ebd00c126ea04671f92a81213318a"
          ],
          "data": "0x000000000000000000000000718b92b5cb0a5552039b593faf724d182a881eda00000000000000000000000000000000000000000000000000004c22c5d10068",
          "blockHash": "0x9efcd9e9879a7a007ffd6aab643af757ab19e860fbdec9c3b32bfaa85893ed39",
          "blockNumber": "0x52d4d8",
          "transactionHash": "0xbaf1fdb45b4a555424162de09e499c0e8ea17fd884bf3f241978f03ea6cb554d",
          "transactionIndex": "0x10",
          "logIndex": "0xc",
          "removed": false
        },
        {
          "address": "0xcc1ae8Cf5D3904Cef3360A9532B477529b177cCE",
          "topics": [
            "0x07ea52d82345d6e838192107d8fd7123d9c2ec8e916cd0aad13fd2b60db24644"
          ],
          "data": "0x000000000000000000000000000000000000000000000000000000000000006000000000000000000000000000000000000000000000000000000000000000a000000000000000000000000000000000000000000000000000000000000000c000000000000000000000000000000000000000000000000000000000000000010000000000000000000000008eebf8b423b73bfca51a1db4b7354aa0bfca91930000000000000000000000000000000000000000000000000000000000000000000000000000000000000000000000000000000000000000000000000000000100000000000000000000000000000000000000000000000000000b70125172d2",
          "blockHash": "0x9efcd9e9879a7a007ffd6aab643af757ab19e860fbdec9c3b32bfaa85893ed39",
          "blockNumber": "0x52d4d8",
          "transactionHash": "0xbaf1fdb45b4a555424162de09e499c0e8ea17fd884bf3f241978f03ea6cb554d",
          "transactionIndex": "0x10",
          "logIndex": "0xd",
          "removed": false
        },
        {
          "address": "0x6EDCE65403992e310A62460808c4b910D972f10f",
          "topics": [
            "0x1ab700d4ced0c005b164c0f789fd09fcbb0156d4c2041b8a3bfbcd961cd1567f"
          ],
          "data": "0x00000000000000000000000000000000000000000000000000000000000000600000000000000000000000000000000000000000000000000000000000000180000000000000000000000000cc1ae8cf5d3904cef3360a9532b477529b177cce00000000000000000000000000000000000000000000000000000000000000f101000000000000000100009ce100000000000000000000000030374a02d4547788003d8a4bd0863ad168cf513700009d27000000000000000000000000829c17addd2efbf11584317eeb4d967ecb39d4d49dc848261dc8dfdc9a87aa347e4681536a08123acf5e4409331d8aa063a6a6fc000000000000000000000000de05a1abb121113a33eed248bd91ddc254d5e9db000000000000000000000000000000000000000000000000000000000000004000000000000000000000000000000000000000000000000000000000000000010000000000000000000000000000000000000000000000000000000000000000000000000000000000000000000000000000000000000000000000000000000000000000000000000000000000001600030100110100000000000000000000000000030d4000000000000000000000",
          "blockHash": "0x9efcd9e9879a7a007ffd6aab643af757ab19e860fbdec9c3b32bfaa85893ed39",
          "blockNumber": "0x52d4d8",
          "transactionHash": "0xbaf1fdb45b4a555424162de09e499c0e8ea17fd884bf3f241978f03ea6cb554d",
          "transactionIndex": "0x10",
          "logIndex": "0xe",
          "removed": false
        }
      ],
      "status": "0x1",
      "logsBloom": "0x00000000000000000000040000000000000000000000000000102000000100000000000000000000200000000000000000000000000000000000000000000000000204000000000000000408000000000000000000000000000000000000000800000000020000008200000000000800000020000000004000000010000000000000000000000020000000080000000000000000000000000000000000000000000000008000000000100000000000000000000000400000000c48000000000000000012000000000000000000000000000000080000000000000000000020800000040000000000000000010000002000000000000000000000000000000020",
      "type": "0x2",
      "effectiveGasPrice": "0xbf244c04"
    }
  ],
  "libraries": [],
  "pending": [],
  "returns": {},
  "timestamp": 1709728953,
  "chain": 11155111,
  "multi": false,
  "commit": "cc873b8"
}