{
  "transactions": [
    {
      "hash": "0x6840ac12cc24bb2f5c66bf123bf43574778fafc324a93f1ec58741d4ddf4a4c3",
      "transactionType": "CALL",
      "contractName": "NftLocker",
      "contractAddress": "0x0F33605f68710ECd2057b6fC4121cAabDc33da61",
      "function": "setPeer(uint32,bytes32)",
      "arguments": [
        "40231",
        "0x00000000000000000000000049638a30ba51161edc5a8548b7698fd65b469418"
      ],
      "transaction": {
        "type": "0x02",
        "from": "0xde05a1abb121113a33eed248bd91ddc254d5e9db",
        "to": "0x0f33605f68710ecd2057b6fc4121caabdc33da61",
        "gas": "0x100cf",
        "value": "0x0",
        "data": "0x3400288b0000000000000000000000000000000000000000000000000000000000009d2700000000000000000000000049638a30ba51161edc5a8548b7698fd65b469418",
        "nonce": "0x5d",
        "accessList": []
      },
      "additionalContracts": [],
      "isFixedGasLimit": false
    }
  ],
  "receipts": [
    {
      "transactionHash": "0x6840ac12cc24bb2f5c66bf123bf43574778fafc324a93f1ec58741d4ddf4a4c3",
      "transactionIndex": "0x14",
      "blockHash": "0xb70811c27b9b3b7dd6a6ffd720d5a3a624f7fb8a7d996d23f27bb4cbe3149d8e",
      "blockNumber": "0x52ea37",
      "from": "0xdE05a1Abb121113a33eeD248BD91ddC254d5E9Db",
      "to": "0x0F33605f68710ECd2057b6fC4121cAabDc33da61",
      "cumulativeGasUsed": "0x7d8e8",
      "gasUsed": "0xb9ee",
      "contractAddress": null,
      "logs": [
        {
          "address": "0x0F33605f68710ECd2057b6fC4121cAabDc33da61",
          "topics": [
            "0x238399d427b947898edb290f5ff0f9109849b1c3ba196a42e35f00c50a54b98b"
          ],
          "data": "0x0000000000000000000000000000000000000000000000000000000000009d2700000000000000000000000049638a30ba51161edc5a8548b7698fd65b469418",
          "blockHash": "0xb70811c27b9b3b7dd6a6ffd720d5a3a624f7fb8a7d996d23f27bb4cbe3149d8e",
          "blockNumber": "0x52ea37",
          "transactionHash": "0x6840ac12cc24bb2f5c66bf123bf43574778fafc324a93f1ec58741d4ddf4a4c3",
          "transactionIndex": "0x14",
          "logIndex": "0x4",
          "removed": false
        }
      ],
      "status": "0x1",
      "logsBloom": "0x00000000000000000000000000000000000000000000000000000000000000000000000000000000000000000000000000000000000000000800000000000000000000000000000000000000000000000000000000000000000000000000000000000000000000000000000000000000000000000400000000000000000000000000000000000000000000001000000000000000000000000000000000000000000000000000000000000000000000000000000000000000000002000000000000000000000000000000000000000000000000000000000800040000000000000000000000000000000000000000000000000000000000000000000000000000",
      "type": "0x2",
      "effectiveGasPrice": "0xbae632d3"
    }
  ],
  "libraries": [],
  "pending": [],
  "returns": {},
  "timestamp": 1709798260,
  "chain": 11155111,
  "multi": false,
  "commit": "1a57873"
}