{
  "transactions": [
    {
      "hash": "0x3097c16999f3124521229d46df0b7583bd0f2f085eba1e25b5681722210981f4",
      "transactionType": "CALL",
      "contractName": "NftRegistry",
      "contractAddress": "0x829c17ADDd2EFBF11584317EEb4D967ECb39D4d4",
      "function": "setPeer(uint32,bytes32)",
      "arguments": [
        "40161",
        "0x00000000000000000000000030374a02d4547788003d8a4bd0863ad168cf5137"
      ],
      "transaction": {
        "type": "0x02",
        "from": "0xde05a1abb121113a33eed248bd91ddc254d5e9db",
        "to": "0x829c17addd2efbf11584317eeb4d967ecb39d4d4",
        "gas": "0x19b0c",
        "value": "0x0",
        "data": "0x3400288b0000000000000000000000000000000000000000000000000000000000009ce100000000000000000000000030374a02d4547788003d8a4bd0863ad168cf5137",
        "nonce": "0x7",
        "accessList": []
      },
      "additionalContracts": [],
      "isFixedGasLimit": false
    }
  ],
  "receipts": [
    {
      "transactionHash": "0x3097c16999f3124521229d46df0b7583bd0f2f085eba1e25b5681722210981f4",
      "transactionIndex": "0x2",
      "blockHash": "0xd43958a26ea68e774bdacd6e0b2c259437b15865f83e3e2dfea67a754a9b4b97",
      "blockNumber": "0x13678d9",
      "from": "0xdE05a1Abb121113a33eeD248BD91ddC254d5E9Db",
      "to": "0x829c17ADDd2EFBF11584317EEb4D967ECb39D4d4",
      "cumulativeGasUsed": "0x6bdfb",
      "gasUsed": "0x1214c",
      "contractAddress": null,
      "logs": [
        {
          "address": "0x829c17ADDd2EFBF11584317EEb4D967ECb39D4d4",
          "topics": [
            "0x238399d427b947898edb290f5ff0f9109849b1c3ba196a42e35f00c50a54b98b"
          ],
          "data": "0x0000000000000000000000000000000000000000000000000000000000009ce100000000000000000000000030374a02d4547788003d8a4bd0863ad168cf5137",
          "blockHash": "0xd43958a26ea68e774bdacd6e0b2c259437b15865f83e3e2dfea67a754a9b4b97",
          "blockNumber": "0x13678d9",
          "transactionHash": "0x3097c16999f3124521229d46df0b7583bd0f2f085eba1e25b5681722210981f4",
          "transactionIndex": "0x2",
          "logIndex": "0x4",
          "removed": false
        }
      ],
      "status": "0x1",
      "logsBloom": "0x00000000000000000000000000000000008000000000000000000000000000000000000000000000000000000000000000000000000000000800000000000000000000000000000000000000000000000000000000000000000000000000000000000000000000000000000000000000000000000000000000000000000020000000000000000000000000000000000000000000000000000000000000000000000000000000000000000000000000100000000000000000000002000000000000000000000000000000000000000000000000000000000000040000000000000000000000000000000000000000000000000000000000000000000000000000",
      "type": "0x2",
      "effectiveGasPrice": "0x5f5e100"
    }
  ],
  "libraries": [],
  "pending": [],
  "returns": {},
  "timestamp": 1709703714,
  "chain": 421614,
  "multi": false,
  "commit": "0feae5e"
}