{
  "transactions": [
    {
      "hash": "0x9e8a54b00c2165c76c3a8f41ed13dbd43a86aa6d209e11954868c4130f89bd00",
      "transactionType": "CALL",
      "contractName": "NftRegistry",
      "contractAddress": "0x49638a30bA51161edc5a8548b7698FD65b469418",
      "function": "setPeer(uint32,bytes32)",
      "arguments": [
        "40161",
        "0x0000000000000000000000000f33605f68710ecd2057b6fc4121caabdc33da61"
      ],
      "transaction": {
        "type": "0x02",
        "from": "0xde05a1abb121113a33eed248bd91ddc254d5e9db",
        "to": "0x49638a30ba51161edc5a8548b7698fd65b469418",
        "gas": "0x15594",
        "value": "0x0",
        "data": "0x3400288b0000000000000000000000000000000000000000000000000000000000009ce10000000000000000000000000f33605f68710ecd2057b6fc4121caabdc33da61",
        "nonce": "0x9",
        "accessList": []
      },
      "additionalContracts": [],
      "isFixedGasLimit": false
    }
  ],
  "receipts": [
    {
      "transactionHash": "0x9e8a54b00c2165c76c3a8f41ed13dbd43a86aa6d209e11954868c4130f89bd00",
      "transactionIndex": "0x1",
      "blockHash": "0x2a73fb202a2750c7cbf2b3f774fc603dd83f4ca05474058bd973ab80845d70d3",
      "blockNumber": "0x13be8d9",
      "from": "0xdE05a1Abb121113a33eeD248BD91ddC254d5E9Db",
      "to": "0x49638a30bA51161edc5a8548b7698FD65b469418",
      "cumulativeGasUsed": "0xf6eb",
      "gasUsed": "0xf6eb",
      "contractAddress": null,
      "logs": [
        {
          "address": "0x49638a30bA51161edc5a8548b7698FD65b469418",
          "topics": [
            "0x238399d427b947898edb290f5ff0f9109849b1c3ba196a42e35f00c50a54b98b"
          ],
          "data": "0x0000000000000000000000000000000000000000000000000000000000009ce10000000000000000000000000f33605f68710ecd2057b6fc4121caabdc33da61",
          "blockHash": "0x2a73fb202a2750c7cbf2b3f774fc603dd83f4ca05474058bd973ab80845d70d3",
          "blockNumber": "0x13be8d9",
          "transactionHash": "0x9e8a54b00c2165c76c3a8f41ed13dbd43a86aa6d209e11954868c4130f89bd00",
          "transactionIndex": "0x1",
          "logIndex": "0x0",
          "removed": false
        }
      ],
      "status": "0x1",
      "logsBloom": "0x00000000000000000000000000000000000000000000000000000000000000000000000000000000000000000000000000000000000000000800000000000000000000000000000000000000000000000000000000000000000000000000000000000000000000000000000000000000000000000000000000000000000000000000000000000000000000000000000000000000000000000000000000000000000000000000000000000000000000000000000000000000000002000000000000000000000000000000000000000000000000000000000000040000000000000000000000000000000000100800000000000000000000000000000000000020",
      "type": "0x2",
      "effectiveGasPrice": "0x5f5e100"
    }
  ],
  "libraries": [],
  "pending": [],
  "returns": {},
  "timestamp": 1709798299,
  "chain": 421614,
  "multi": false,
  "commit": "1a57873"
}