{
  "transactions": [
    {
      "hash": "0x57ebf65f04626a79317fc30741d2f61a1b3553035f7e8af9842a2bf643a54f02",
      "transactionType": "CALL",
      "contractName": null,
      "contractAddress": "0xaACe57A9300afB8e32b1240DE0C74432E085474c",
      "function": "release(uint256[])",
      "arguments": [
        "[1, 2, 3, 4, 5]"
      ],
      "transaction": {
        "type": "0x02",
        "from": "0xde05a1abb121113a33eed248bd91ddc254d5e9db",
        "to": "0xaace57a9300afb8e32b1240de0c74432e085474c",
        "gas": "0x6955f",
        "value": "0x1ef52d1d998f0",
        "data": "0x3e97394c0000000000000000000000000000000000000000000000000000000000000020000000000000000000000000000000000000000000000000000000000000000500000000000000000000000000000000000000000000000000000000000000010000000000000000000000000000000000000000000000000000000000000002000000000000000000000000000000000000000000000000000000000000000300000000000000000000000000000000000000000000000000000000000000040000000000000000000000000000000000000000000000000000000000000005",
        "nonce": "0xd",
        "accessList": []
      },
      "additionalContracts": [],
      "isFixedGasLimit": false
    }
  ],
  "receipts": [
    {
      "transactionHash": "0x57ebf65f04626a79317fc30741d2f61a1b3553035f7e8af9842a2bf643a54f02",
      "transactionIndex": "0x4",
      "blockHash": "0x479fe6ea44f1a0d606ce952df3ec7ee2e1d3b0b9cf0b602ec51a5e20025f7a3d",
      "blockNumber": "0x1a3f456",
      "from": "0xdE05a1Abb121113a33eeD248BD91ddC254d5E9Db",
      "to": "0xaACe57A9300afB8e32b1240DE0C74432E085474c",
      "cumulativeGasUsed": "0xe0b66",
      "gasUsed": "0x485da",
      "contractAddress": null,
      "logs": [
        {
          "address": "0xaACe57A9300afB8e32b1240DE0C74432E085474c",
          "topics": [
            "0xbc94d438aff4f8c83b41156d57c68a5d005de8f87806d677989a0b8a6db4bc20",
            "0x000000000000000000000000de05a1abb121113a33eed248bd91ddc254d5e9db",
            "0x0000000000000000000000000000000000000000000000000000000000000001"
          ],
          "data": "0x",
          "blockHash": "0x479fe6ea44f1a0d606ce952df3ec7ee2e1d3b0b9cf0b602ec51a5e20025f7a3d",
          "blockNumber": "0x1a3f456",
          "transactionHash": "0x57ebf65f04626a79317fc30741d2f61a1b3553035f7e8af9842a2bf643a54f02",
          "transactionIndex": "0x4",
          "logIndex": "0x9",
          "removed": false
        },
        {
          "address": "0xaACe57A9300afB8e32b1240DE0C74432E085474c",
          "topics": [
            "0xbc94d438aff4f8c83b41156d57c68a5d005de8f87806d677989a0b8a6db4bc20",
            "0x000000000000000000000000de05a1abb121113a33eed248bd91ddc254d5e9db",
            "0x0000000000000000000000000000000000000000000000000000000000000002"
          ],
          "data": "0x",
          "blockHash": "0x479fe6ea44f1a0d606ce952df3ec7ee2e1d3b0b9cf0b602ec51a5e20025f7a3d",
          "blockNumber": "0x1a3f456",
          "transactionHash": "0x57ebf65f04626a79317fc30741d2f61a1b3553035f7e8af9842a2bf643a54f02",
          "transactionIndex": "0x4",
          "logIndex": "0xa",
          "removed": false
        },
        {
          "address": "0xaACe57A9300afB8e32b1240DE0C74432E085474c",
          "topics": [
            "0xbc94d438aff4f8c83b41156d57c68a5d005de8f87806d677989a0b8a6db4bc20",
            "0x000000000000000000000000de05a1abb121113a33eed248bd91ddc254d5e9db",
            "0x0000000000000000000000000000000000000000000000000000000000000003"
          ],
          "data": "0x",
          "blockHash": "0x479fe6ea44f1a0d606ce952df3ec7ee2e1d3b0b9cf0b602ec51a5e20025f7a3d",
          "blockNumber": "0x1a3f456",
          "transactionHash": "0x57ebf65f04626a79317fc30741d2f61a1b3553035f7e8af9842a2bf643a54f02",
          "transactionIndex": "0x4",
          "logIndex": "0xb",
          "removed": false
        },
        {
          "address": "0xaACe57A9300afB8e32b1240DE0C74432E085474c",
          "topics": [
            "0xbc94d438aff4f8c83b41156d57c68a5d005de8f87806d677989a0b8a6db4bc20",
            "0x000000000000000000000000de05a1abb121113a33eed248bd91ddc254d5e9db",
            "0x0000000000000000000000000000000000000000000000000000000000000004"
          ],
          "data": "0x",
          "blockHash": "0x479fe6ea44f1a0d606ce952df3ec7ee2e1d3b0b9cf0b602ec51a5e20025f7a3d",
          "blockNumber": "0x1a3f456",
          "transactionHash": "0x57ebf65f04626a79317fc30741d2f61a1b3553035f7e8af9842a2bf643a54f02",
          "transactionIndex": "0x4",
          "logIndex": "0xc",
          "removed": false
        },
        {
          "address": "0xaACe57A9300afB8e32b1240DE0C74432E085474c",
          "topics": [
            "0xbc94d438aff4f8c83b41156d57c68a5d005de8f87806d677989a0b8a6db4bc20",
            "0x000000000000000000000000de05a1abb121113a33eed248bd91ddc254d5e9db",
            "0x0000000000000000000000000000000000000000000000000000000000000005"
          ],
          "data": "0x",
          "blockHash": "0x479fe6ea44f1a0d606ce952df3ec7ee2e1d3b0b9cf0b602ec51a5e20025f7a3d",
          "blockNumber": "0x1a3f456",
          "transactionHash": "0x57ebf65f04626a79317fc30741d2f61a1b3553035f7e8af9842a2bf643a54f02",
          "transactionIndex": "0x4",
          "logIndex": "0xd",
          "removed": false
        },
        {
          "address": "0x4f7cd4DA19ABB31b0eC98b9066B9e857B1bf9C0E",
          "topics": [
            "0x61ed099e74a97a1d7f8bb0952a88ca8b7b8ebd00c126ea04671f92a81213318a"
          ],
          "data": "0x0000000000000000000000005df3a1cebbd9c8ba7f8df51fd632a9aef830889700000000000000000000000000000000000000000000000000015d97fd9d54b0",
          "blockHash": "0x479fe6ea44f1a0d606ce952df3ec7ee2e1d3b0b9cf0b602ec51a5e20025f7a3d",
          "blockNumber": "0x1a3f456",
          "transactionHash": "0x57ebf65f04626a79317fc30741d2f61a1b3553035f7e8af9842a2bf643a54f02",
          "transactionIndex": "0x4",
          "logIndex": "0xe",
          "removed": false
        },
        {
          "address": "0x4f7cd4DA19ABB31b0eC98b9066B9e857B1bf9C0E",
          "topics": [
            "0x07ea52d82345d6e838192107d8fd7123d9c2ec8e916cd0aad13fd2b60db24644"
          ],
          "data": "0x000000000000000000000000000000000000000000000000000000000000006000000000000000000000000000000000000000000000000000000000000000a000000000000000000000000000000000000000000000000000000000000000c0000000000000000000000000000000000000000000000000000000000000000100000000000000000000000053f488e93b4f1b60e8e83aa374dbe1780a1ee8a800000000000000000000000000000000000000000000000000000000000000000000000000000000000000000000000000000000000000000000000000000001000000000000000000000000000000000000000000000000000091bad43c4440",
          "blockHash": "0x479fe6ea44f1a0d606ce952df3ec7ee2e1d3b0b9cf0b602ec51a5e20025f7a3d",
          "blockNumber": "0x1a3f456",
          "transactionHash": "0x57ebf65f04626a79317fc30741d2f61a1b3553035f7e8af9842a2bf643a54f02",
          "transactionIndex": "0x4",
          "logIndex": "0xf",
          "removed": false
        },
        {
          "address": "0x6EDCE65403992e310A62460808c4b910D972f10f",
          "topics": [
            "0x1ab700d4ced0c005b164c0f789fd09fcbb0156d4c2041b8a3bfbcd961cd1567f"
          ],
          "data": "0x000000000000000000000000000000000000000000000000000000000000006000000000000000000000000000000000000000000000000000000000000002000000000000000000000000004f7cd4da19abb31b0ec98b9066b9e857b1bf9c0e000000000000000000000000000000000000000000000000000000000000017101000000000000000200009d27000000000000000000000000aace57a9300afb8e32b1240de0c74432e085474c00009ce1000000000000000000000000b3c3bd52354857c40909333219c0dc7925aacb6515ff78574e1477572b38bc408f99b444e94586a95b0e6e470c9dbf1ee99479ef000000000000000000000000de05a1abb121113a33eed248bd91ddc254d5e9db0000000000000000000000000000000000000000000000000000000000000040000000000000000000000000000000000000000000000000000000000000000500000000000000000000000000000000000000000000000000000000000000010000000000000000000000000000000000000000000000000000000000000002000000000000000000000000000000000000000000000000000000000000000300000000000000000000000000000000000000000000000000000000000000040000000000000000000000000000000000000000000000000000000000000005000000000000000000000000000000000000000000000000000000000000000000000000000000000000000000001600030100110100000000000000000000000000023cb400000000000000000000",
          "blockHash": "0x479fe6ea44f1a0d606ce952df3ec7ee2e1d3b0b9cf0b602ec51a5e20025f7a3d",
          "blockNumber": "0x1a3f456",
          "transactionHash": "0x57ebf65f04626a79317fc30741d2f61a1b3553035f7e8af9842a2bf643a54f02",
          "transactionIndex": "0x4",
          "logIndex": "0x10",
          "removed": false
        }
      ],
      "status": "0x1",
      "logsBloom": "0x04000000000000000000800000000000000000000000000000100000000000000000000000000000200000000000000000000000028000000000000000040000000010000000000000000000000000200000000040040000080000000000000008000000000000008210000000000000000000000000004000000000000000000000000000000020000000080000001000000800000000010000000000000000000000008000000000102100000000000000000000c00000002440000000400000000000000000000000000000000000000000008000000000000000000040000000040000000000000000000000002000000000008000000100000000000000",
      "type": "0x2",
      "effectiveGasPrice": "0x5f5e100"
    }
  ],
  "libraries": [],
  "pending": [],
  "returns": {},
  "timestamp": 1711552018,
  "chain": 421614,
  "commit": "09f9777"
}