{
  "transactions": [
    {
      "hash": "0x743e6eef43dd24aabf9845bd85dd24fc6bab3a785c34c8492cd6cf7483ae1448",
      "transactionType": "CALL",
      "contractName": null,
      "contractAddress": "0xaACe57A9300afB8e32b1240DE0C74432E085474c",
      "function": "release(uint256[])",
      "arguments": [
        "[0]"
      ],
      "transaction": {
        "type": "0x02",
        "from": "0xde05a1abb121113a33eed248bd91ddc254d5e9db",
        "to": "0xaace57a9300afb8e32b1240de0c74432e085474c",
        "gas": "0x6d799",
        "value": "0x2591897274f99",
        "data": "0x3e97394c000000000000000000000000000000000000000000000000000000000000002000000000000000000000000000000000000000000000000000000000000000010000000000000000000000000000000000000000000000000000000000000000",
        "nonce": "0xc",
        "accessList": []
      },
      "additionalContracts": [],
      "isFixedGasLimit": false
    }
  ],
  "receipts": [
    {
      "transactionHash": "0x743e6eef43dd24aabf9845bd85dd24fc6bab3a785c34c8492cd6cf7483ae1448",
      "transactionIndex": "0x1",
      "blockHash": "0x3c64d15e7613e69243073fc81890dbbc37c2287a5290ba238fe65de4e2181c91",
      "blockNumber": "0x1a3e1b0",
      "from": "0xdE05a1Abb121113a33eeD248BD91ddC254d5E9Db",
      "to": "0xaACe57A9300afB8e32b1240DE0C74432E085474c",
      "cumulativeGasUsed": "0x4e52b",
      "gasUsed": "0x4e52b",
      "contractAddress": null,
      "logs": [
        {
          "address": "0xaACe57A9300afB8e32b1240DE0C74432E085474c",
          "topics": [
            "0xbc94d438aff4f8c83b41156d57c68a5d005de8f87806d677989a0b8a6db4bc20",
            "0x000000000000000000000000de05a1abb121113a33eed248bd91ddc254d5e9db",
            "0x0000000000000000000000000000000000000000000000000000000000000000"
          ],
          "data": "0x",
          "blockHash": "0x3c64d15e7613e69243073fc81890dbbc37c2287a5290ba238fe65de4e2181c91",
          "blockNumber": "0x1a3e1b0",
          "transactionHash": "0x743e6eef43dd24aabf9845bd85dd24fc6bab3a785c34c8492cd6cf7483ae1448",
          "transactionIndex": "0x1",
          "logIndex": "0x0",
          "removed": false
        },
        {
          "address": "0x4f7cd4DA19ABB31b0eC98b9066B9e857B1bf9C0E",
          "topics": [
            "0x61ed099e74a97a1d7f8bb0952a88ca8b7b8ebd00c126ea04671f92a81213318a"
          ],
          "data": "0x0000000000000000000000005df3a1cebbd9c8ba7f8df51fd632a9aef8308897000000000000000000000000000000000000000000000000000174721b4f3d53",
          "blockHash": "0x3c64d15e7613e69243073fc81890dbbc37c2287a5290ba238fe65de4e2181c91",
          "blockNumber": "0x1a3e1b0",
          "transactionHash": "0x743e6eef43dd24aabf9845bd85dd24fc6bab3a785c34c8492cd6cf7483ae1448",
          "transactionIndex": "0x1",
          "logIndex": "0x1",
          "removed": false
        },
        {
          "address": "0x4f7cd4DA19ABB31b0eC98b9066B9e857B1bf9C0E",
          "topics": [
            "0x07ea52d82345d6e838192107d8fd7123d9c2ec8e916cd0aad13fd2b60db24644"
          ],
          "data": "0x000000000000000000000000000000000000000000000000000000000000006000000000000000000000000000000000000000000000000000000000000000a000000000000000000000000000000000000000000000000000000000000000c0000000000000000000000000000000000000000000000000000000000000000100000000000000000000000053f488e93b4f1b60e8e83aa374dbe1780a1ee8a8000000000000000000000000000000000000000000000000000000000000000000000000000000000000000000000000000000000000000000000000000000010000000000000000000000000000000000000000000000000000e4a67bd81246",
          "blockHash": "0x3c64d15e7613e69243073fc81890dbbc37c2287a5290ba238fe65de4e2181c91",
          "blockNumber": "0x1a3e1b0",
          "transactionHash": "0x743e6eef43dd24aabf9845bd85dd24fc6bab3a785c34c8492cd6cf7483ae1448",
          "transactionIndex": "0x1",
          "logIndex": "0x2",
          "removed": false
        },
        {
          "address": "0x6EDCE65403992e310A62460808c4b910D972f10f",
          "topics": [
            "0x1ab700d4ced0c005b164c0f789fd09fcbb0156d4c2041b8a3bfbcd961cd1567f"
          ],
          "data": "0x000000000000000000000000000000000000000000000000000000000000006000000000000000000000000000000000000000000000000000000000000001800000000000000000000000004f7cd4da19abb31b0ec98b9066b9e857b1bf9c0e00000000000000000000000000000000000000000000000000000000000000f101000000000000000100009d27000000000000000000000000aace57a9300afb8e32b1240de0c74432e085474c00009ce1000000000000000000000000b3c3bd52354857c40909333219c0dc7925aacb65024a2c67b2ab980aac22b93ee9c7a0ddd0ea6f6f151c49b7a05b3920af66e915000000000000000000000000de05a1abb121113a33eed248bd91ddc254d5e9db000000000000000000000000000000000000000000000000000000000000004000000000000000000000000000000000000000000000000000000000000000010000000000000000000000000000000000000000000000000000000000000000000000000000000000000000000000000000000000000000000000000000000000000000000000000000000000001600030100110100000000000000000000000000011d2800000000000000000000",
          "blockHash": "0x3c64d15e7613e69243073fc81890dbbc37c2287a5290ba238fe65de4e2181c91",
          "blockNumber": "0x1a3e1b0",
          "transactionHash": "0x743e6eef43dd24aabf9845bd85dd24fc6bab3a785c34c8492cd6cf7483ae1448",
          "transactionIndex": "0x1",
          "logIndex": "0x3",
          "removed": false
        }
      ],
      "status": "0x1",
      "logsBloom": "0x00000000000000000000800000000000000000000000000000100000000000000000000000000000200000000000000000000000008000000000000000000000000000000000000000000000000000200000000040000000080000000000000000000000020000008210000000000800000000000000004000000000000000000000000000000020000000080000000000000000000000010000000000000000000000008000000000102000000000000000000000400000000440000000000000000000000000000000000000000000000000000000000000000000000020000000040000000000000000000000002000000000000000000100000000000000",
      "type": "0x2",
      "effectiveGasPrice": "0x5f5e100"
    }
  ],
  "libraries": [],
  "pending": [],
  "returns": {},
  "timestamp": 1711550813,
  "chain": 421614,
  "commit": "09f9777"
}