{
  "transactions": [
    {
      "hash": "0xf56496371895dfa4ab73b5a04a9b9468b10f1555735775435b824fb420ebe824",
      "transactionType": "CALL",
      "contractName": "NftRegistry",
      "contractAddress": "0xaACe57A9300afB8e32b1240DE0C74432E085474c",
      "function": "setPeer(uint32,bytes32)",
      "arguments": [
        "40161",
        "0x000000000000000000000000b3c3bd52354857c40909333219c0dc7925aacb65"
      ],
      "transaction": {
        "type": "0x02",
        "from": "0xde05a1abb121113a33eed248bd91ddc254d5e9db",
        "to": "0xaace57a9300afb8e32b1240de0c74432e085474c",
        "gas": "0x87f01",
        "value": "0x0",
        "data": "0x3400288b0000000000000000000000000000000000000000000000000000000000009ce1000000000000000000000000b3c3bd52354857c40909333219c0dc7925aacb65",
        "nonce": "0xb",
        "accessList": []
      },
      "additionalContracts": [],
      "isFixedGasLimit": false
    }
  ],
  "receipts": [
    {
      "transactionHash": "0xf56496371895dfa4ab73b5a04a9b9468b10f1555735775435b824fb420ebe824",
      "transactionIndex": "0x2",
      "blockHash": "0xb4ec1b0280d737646161b65bd9d03a58ee204a6ed368f2f048bf25e9db643291",
      "blockNumber": "0x1a3cd3d",
      "from": "0xdE05a1Abb121113a33eeD248BD91ddC254d5E9Db",
      "to": "0xaACe57A9300afB8e32b1240DE0C74432E085474c",
      "cumulativeGasUsed": "0x15f102",
      "gasUsed": "0x5562a",
      "contractAddress": null,
      "logs": [
        {
          "address": "0xaACe57A9300afB8e32b1240DE0C74432E085474c",
          "topics": [
            "0x238399d427b947898edb290f5ff0f9109849b1c3ba196a42e35f00c50a54b98b"
          ],
          "data": "0x0000000000000000000000000000000000000000000000000000000000009ce1000000000000000000000000b3c3bd52354857c40909333219c0dc7925aacb65",
          "blockHash": "0xb4ec1b0280d737646161b65bd9d03a58ee204a6ed368f2f048bf25e9db643291",
          "blockNumber": "0x1a3cd3d",
          "transactionHash": "0xf56496371895dfa4ab73b5a04a9b9468b10f1555735775435b824fb420ebe824",
          "transactionIndex": "0x2",
          "logIndex": "0x6",
          "removed": false
        }
      ],
      "status": "0x1",
      "logsBloom": "0x00000000000000000000000000000000000000000000000000000000000000000000000000000000000000000000000000000000000000000800000000000000000000000000000000000000000000200000000040000000000000000000000000000000000000000000000000000000000000000000000000000000000000000000000000000000000000000000000000000000000000000000000000000000000000000000000000000000000000000000000000000000000002000000000000000000000000000000000000000000000000000000000000040000000000000000000000000000000000000000000000000000000000000100000000000000",
      "type": "0x2",
      "effectiveGasPrice": "0x5f5e100"
    }
  ],
  "libraries": [],
  "pending": [],
  "returns": {},
  "timestamp": 1711549508,
  "chain": 421614,
  "commit": "09f9777"
}