{
  "transactions": [
    {
      "hash": "0x6005869399ad84e5909c6d3694c60f6a39aa0abe50694721d3a1f1b39874f957",
      "transactionType": "CALL",
      "contractName": null,
      "contractAddress": "0x03d9842E73b061AC6E20B7376fE3FEEDF55bc71a",
      "function": "release(uint256[])",
      "arguments": [
        "[0]"
      ],
      "transaction": {
        "type": "0x02",
        "from": "0xde05a1abb121113a33eed248bd91ddc254d5e9db",
        "to": "0x03d9842e73b061ac6e20b7376fe3feedf55bc71a",
        "gas": "0x624c6",
        "value": "0x2c36b0ed4a399",
        "data": "0x3e97394c000000000000000000000000000000000000000000000000000000000000002000000000000000000000000000000000000000000000000000000000000000010000000000000000000000000000000000000000000000000000000000000000",
        "nonce": "0x10",
        "accessList": []
      },
      "additionalContracts": [],
      "isFixedGasLimit": false
    }
  ],
  "receipts": [
    {
      "transactionHash": "0x6005869399ad84e5909c6d3694c60f6a39aa0abe50694721d3a1f1b39874f957",
      "transactionIndex": "0x7",
      "blockHash": "0x73b8b8c6cd81b8ae0cdfe343ba69200e88d312a329274dd9b0126627fb8d053e",
      "blockNumber": "0x1c0c817",
      "from": "0xdE05a1Abb121113a33eeD248BD91ddC254d5E9Db",
      "to": "0x03d9842E73b061AC6E20B7376fE3FEEDF55bc71a",
      "cumulativeGasUsed": "0x2731a9",
      "gasUsed": "0x46ab1",
      "contractAddress": null,
      "logs": [
        {
          "address": "0x03d9842E73b061AC6E20B7376fE3FEEDF55bc71a",
          "topics": [
            "0x2b75b70e0da5e5b48bbe2548f300335487509d44e25bf4c108d8680d8c5cc8d4",
            "0x000000000000000000000000de05a1abb121113a33eed248bd91ddc254d5e9db",
            "0x290decd9548b62a8d60345a988386fc84ba6bc95484008f6362f93160ef3e563"
          ],
          "data": "0x",
          "blockHash": "0x73b8b8c6cd81b8ae0cdfe343ba69200e88d312a329274dd9b0126627fb8d053e",
          "blockNumber": "0x1c0c817",
          "transactionHash": "0x6005869399ad84e5909c6d3694c60f6a39aa0abe50694721d3a1f1b39874f957",
          "transactionIndex": "0x7",
          "logIndex": "0x4",
          "removed": false
        },
        {
          "address": "0x4f7cd4DA19ABB31b0eC98b9066B9e857B1bf9C0E",
          "topics": [
            "0x61ed099e74a97a1d7f8bb0952a88ca8b7b8ebd00c126ea04671f92a81213318a"
          ],
          "data": "0x0000000000000000000000005df3a1cebbd9c8ba7f8df51fd632a9aef83088970000000000000000000000000000000000000000000000000001b652f7f3cd13",
          "blockHash": "0x73b8b8c6cd81b8ae0cdfe343ba69200e88d312a329274dd9b0126627fb8d053e",
          "blockNumber": "0x1c0c817",
          "transactionHash": "0x6005869399ad84e5909c6d3694c60f6a39aa0abe50694721d3a1f1b39874f957",
          "transactionIndex": "0x7",
          "logIndex": "0x5",
          "removed": false
        },
        {
          "address": "0x4f7cd4DA19ABB31b0eC98b9066B9e857B1bf9C0E",
          "topics": [
            "0x07ea52d82345d6e838192107d8fd7123d9c2ec8e916cd0aad13fd2b60db24644"
          ],
          "data": "0x000000000000000000000000000000000000000000000000000000000000006000000000000000000000000000000000000000000000000000000000000000a000000000000000000000000000000000000000000000000000000000000000c0000000000000000000000000000000000000000000000000000000000000000100000000000000000000000053f488e93b4f1b60e8e83aa374dbe1780a1ee8a80000000000000000000000000000000000000000000000000000000000000000000000000000000000000000000000000000000000000000000000000000000100000000000000000000000000000000000000000000000000010d1816e0d686",
          "blockHash": "0x73b8b8c6cd81b8ae0cdfe343ba69200e88d312a329274dd9b0126627fb8d053e",
          "blockNumber": "0x1c0c817",
          "transactionHash": "0x6005869399ad84e5909c6d3694c60f6a39aa0abe50694721d3a1f1b39874f957",
          "transactionIndex": "0x7",
          "logIndex": "0x6",
          "removed": false
        },
        {
          "address": "0x6EDCE65403992e310A62460808c4b910D972f10f",
          "topics": [
            "0x1ab700d4ced0c005b164c0f789fd09fcbb0156d4c2041b8a3bfbcd961cd1567f"
          ],
          "data": "0x000000000000000000000000000000000000000000000000000000000000006000000000000000000000000000000000000000000000000000000000000001800000000000000000000000004f7cd4da19abb31b0ec98b9066b9e857b1bf9c0e00000000000000000000000000000000000000000000000000000000000000f101000000000000000100009d2700000000000000000000000003d9842e73b061ac6e20b7376fe3feedf55bc71a00009ce100000000000000000000000018f786ae5fb1639baa4fce4b8f29c783949a66a8eb8c34ec00eefaf990e668c4cc232fdc414f33fda4ff6de228f29d0d6a58bc0d000000000000000000000000de05a1abb121113a33eed248bd91ddc254d5e9db000000000000000000000000000000000000000000000000000000000000004000000000000000000000000000000000000000000000000000000000000000010000000000000000000000000000000000000000000000000000000000000000000000000000000000000000000000000000000000000000000000000000000000000000000000000000000000001600030100110100000000000000000000000000011d2800000000000000000000",
          "blockHash": "0x73b8b8c6cd81b8ae0cdfe343ba69200e88d312a329274dd9b0126627fb8d053e",
          "blockNumber": "0x1c0c817",
          "transactionHash": "0x6005869399ad84e5909c6d3694c60f6a39aa0abe50694721d3a1f1b39874f957",
          "transactionIndex": "0x7",
          "logIndex": "0x7",
          "removed": false
        }
      ],
      "status": "0x1",
      "logsBloom": "0x00000000000000000000000000000000000000000000000000102000000000000000000000000000200000020000000000800000008000000000000000000000000000000000000000000000000000000000000000000000000000000000000000000000000000008200000000000000000000000000004000008000000000000000000000000020000000080000000000000000000000010000000000000000000000008000000000102000000004000000000000400000000440000000000000000000080000000000000000000000000000000000000000000000000040000000040000000000000000000000002000000000000000080000010000000000",
      "type": "0x2",
      "effectiveGasPrice": "0x32d638a0"
    }
  ],
  "libraries": [],
  "pending": [],
  "returns": {},
  "timestamp": 1712030258,
  "chain": 421614,
  "commit": "38d1422"
}