{
  "transactions": [
    {
      "hash": "0x92e9e16eb367f0cb43a87d5c982af791b7405b569f1bfb0f0f161582868885e7",
      "transactionType": "CALL",
      "contractName": null,
      "contractAddress": "0x03d9842E73b061AC6E20B7376fE3FEEDF55bc71a",
      "function": "release(uint256[])",
      "arguments": [
        "[1, 2, 3, 4, 5]"
      ],
      "transaction": {
        "type": "0x02",
        "from": "0xde05a1abb121113a33eed248bd91ddc254d5e9db",
        "to": "0x03d9842e73b061ac6e20b7376fe3feedf55bc71a",
        "gas": "0x61aba",
        "value": "0x392a0e7eb8291",
        "data": "0x3e97394c0000000000000000000000000000000000000000000000000000000000000020000000000000000000000000000000000000000000000000000000000000000500000000000000000000000000000000000000000000000000000000000000010000000000000000000000000000000000000000000000000000000000000002000000000000000000000000000000000000000000000000000000000000000300000000000000000000000000000000000000000000000000000000000000040000000000000000000000000000000000000000000000000000000000000005",
        "nonce": "0x11",
        "accessList": []
      },
      "additionalContracts": [],
      "isFixedGasLimit": false
    }
  ],
  "receipts": [
    {
      "transactionHash": "0x92e9e16eb367f0cb43a87d5c982af791b7405b569f1bfb0f0f161582868885e7",
      "transactionIndex": "0x6",
      "blockHash": "0x575f2f977d18a370ffb7498c613797e4561e24bb9a6a7e7d8544db7ccc1ac91e",
      "blockNumber": "0x1c0d1b6",
      "from": "0xdE05a1Abb121113a33eeD248BD91ddC254d5E9Db",
      "to": "0x03d9842E73b061AC6E20B7376fE3FEEDF55bc71a",
      "cumulativeGasUsed": "0x1d66a6",
      "gasUsed": "0x42eed",
      "contractAddress": null,
      "logs": [
        {
          "address": "0x03d9842E73b061AC6E20B7376fE3FEEDF55bc71a",
          "topics": [
            "0x2b75b70e0da5e5b48bbe2548f300335487509d44e25bf4c108d8680d8c5cc8d4",
            "0x000000000000000000000000de05a1abb121113a33eed248bd91ddc254d5e9db",
            "0x5917e5a395fb9b454434de59651d36822a9e29c5ec57474df3e67937b969460c"
          ],
          "data": "0x",
          "blockHash": "0x575f2f977d18a370ffb7498c613797e4561e24bb9a6a7e7d8544db7ccc1ac91e",
          "blockNumber": "0x1c0d1b6",
          "transactionHash": "0x92e9e16eb367f0cb43a87d5c982af791b7405b569f1bfb0f0f161582868885e7",
          "transactionIndex": "0x6",
          "logIndex": "0xf",
          "removed": false
        },
        {
          "address": "0x4f7cd4DA19ABB31b0eC98b9066B9e857B1bf9C0E",
          "topics": [
            "0x61ed099e74a97a1d7f8bb0952a88ca8b7b8ebd00c126ea04671f92a81213318a"
          ],
          "data": "0x0000000000000000000000005df3a1cebbd9c8ba7f8df51fd632a9aef830889700000000000000000000000000000000000000000000000000028588d10aac0b",
          "blockHash": "0x575f2f977d18a370ffb7498c613797e4561e24bb9a6a7e7d8544db7ccc1ac91e",
          "blockNumber": "0x1c0d1b6",
          "transactionHash": "0x92e9e16eb367f0cb43a87d5c982af791b7405b569f1bfb0f0f161582868885e7",
          "transactionIndex": "0x6",
          "logIndex": "0x10",
          "removed": false
        },
        {
          "address": "0x4f7cd4DA19ABB31b0eC98b9066B9e857B1bf9C0E",
          "topics": [
            "0x07ea52d82345d6e838192107d8fd7123d9c2ec8e916cd0aad13fd2b60db24644"
          ],
          "data": "0x000000000000000000000000000000000000000000000000000000000000006000000000000000000000000000000000000000000000000000000000000000a000000000000000000000000000000000000000000000000000000000000000c0000000000000000000000000000000000000000000000000000000000000000100000000000000000000000053f488e93b4f1b60e8e83aa374dbe1780a1ee8a80000000000000000000000000000000000000000000000000000000000000000000000000000000000000000000000000000000000000000000000000000000100000000000000000000000000000000000000000000000000010d1816e0d686",
          "blockHash": "0x575f2f977d18a370ffb7498c613797e4561e24bb9a6a7e7d8544db7ccc1ac91e",
          "blockNumber": "0x1c0d1b6",
          "transactionHash": "0x92e9e16eb367f0cb43a87d5c982af791b7405b569f1bfb0f0f161582868885e7",
          "transactionIndex": "0x6",
          "logIndex": "0x11",
          "removed": false
        },
        {
          "address": "0x6EDCE65403992e310A62460808c4b910D972f10f",
          "topics": [
            "0x1ab700d4ced0c005b164c0f789fd09fcbb0156d4c2041b8a3bfbcd961cd1567f"
          ],
          "data": "0x000000000000000000000000000000000000000000000000000000000000006000000000000000000000000000000000000000000000000000000000000002000000000000000000000000004f7cd4da19abb31b0ec98b9066b9e857b1bf9c0e000000000000000000000000000000000000000000000000000000000000017101000000000000000200009d2700000000000000000000000003d9842e73b061ac6e20b7376fe3feedf55bc71a00009ce100000000000000000000000018f786ae5fb1639baa4fce4b8f29c783949a66a885f37c911eddc517c41cca1a54ec09f0f2d8977bd7e109cf11f57f18ec35ae48000000000000000000000000de05a1abb121113a33eed248bd91ddc254d5e9db0000000000000000000000000000000000000000000000000000000000000040000000000000000000000000000000000000000000000000000000000000000500000000000000000000000000000000000000000000000000000000000000010000000000000000000000000000000000000000000000000000000000000002000000000000000000000000000000000000000000000000000000000000000300000000000000000000000000000000000000000000000000000000000000040000000000000000000000000000000000000000000000000000000000000005000000000000000000000000000000000000000000000000000000000000000000000000000000000000000000001600030100110100000000000000000000000000023cb400000000000000000000",
          "blockHash": "0x575f2f977d18a370ffb7498c613797e4561e24bb9a6a7e7d8544db7ccc1ac91e",
          "blockNumber": "0x1c0d1b6",
          "transactionHash": "0x92e9e16eb367f0cb43a87d5c982af791b7405b569f1bfb0f0f161582868885e7",
          "transactionIndex": "0x6",
          "logIndex": "0x12",
          "removed": false
        }
      ],
      "status": "0x1",
      "logsBloom": "0x00000000000000000000000000000000000000000000000000102000000000000000000000000000200000020000000000000000008000000000000000000000000000000000000000000000000000000000000000000000000000000008000000000000000000008200000000000010000000000000004000008000000000000000000000000020000000080000000000000000000000010000000000000000000000008000000000102000000004000000000000400000000440000000000000000000080000000000000000000000000000000000000000000000000000000000040020000000000000000000002000000000000000080000000000000000",
      "type": "0x2",
      "effectiveGasPrice": "0x4e730200"
    }
  ],
  "libraries": [],
  "pending": [],
  "returns": {},
  "timestamp": 1712030875,
  "chain": 421614,
  "commit": "38d1422"
}