{
  "transactions": [
    {
      "hash": "0x1714e81214703eaf4bf1179336d154b2f3c9926e4936373aa768dc2793e3b19b",
      "transactionType": "CALL",
      "contractName": "NftRegistry",
      "contractAddress": "0x03d9842E73b061AC6E20B7376fE3FEEDF55bc71a",
      "function": "setPeer(uint32,bytes32)",
      "arguments": [
        "40161",
        "0x00000000000000000000000018f786ae5fb1639baa4fce4b8f29c783949a66a8"
      ],
      "transaction": {
        "type": "0x02",
        "from": "0xde05a1abb121113a33eed248bd91ddc254d5e9db",
        "to": "0x03d9842e73b061ac6e20b7376fe3feedf55bc71a",
        "gas": "0x15a4c",
        "value": "0x0",
        "data": "0x3400288b0000000000000000000000000000000000000000000000000000000000009ce100000000000000000000000018f786ae5fb1639baa4fce4b8f29c783949a66a8",
        "nonce": "0xf",
        "accessList": []
      },
      "additionalContracts": [],
      "isFixedGasLimit": false
    }
  ],
  "receipts": [
    {
      "transactionHash": "0x1714e81214703eaf4bf1179336d154b2f3c9926e4936373aa768dc2793e3b19b",
      "transactionIndex": "0x7",
      "blockHash": "0x9e2379983f782e108309322ea8ba67c839cc1a0de55ad9816daad29e7300fd61",
      "blockNumber": "0x1c0bea6",
      "from": "0xdE05a1Abb121113a33eeD248BD91ddC254d5E9Db",
      "to": "0x03d9842E73b061AC6E20B7376fE3FEEDF55bc71a",
      "cumulativeGasUsed": "0xe3032",
      "gasUsed": "0xf2ac",
      "contractAddress": null,
      "logs": [
        {
          "address": "0x03d9842E73b061AC6E20B7376fE3FEEDF55bc71a",
          "topics": [
            "0x238399d427b947898edb290f5ff0f9109849b1c3ba196a42e35f00c50a54b98b"
          ],
          "data": "0x0000000000000000000000000000000000000000000000000000000000009ce100000000000000000000000018f786ae5fb1639baa4fce4b8f29c783949a66a8",
          "blockHash": "0x9e2379983f782e108309322ea8ba67c839cc1a0de55ad9816daad29e7300fd61",
          "blockNumber": "0x1c0bea6",
          "transactionHash": "0x1714e81214703eaf4bf1179336d154b2f3c9926e4936373aa768dc2793e3b19b",
          "transactionIndex": "0x7",
          "logIndex": "0x13",
          "removed": false
        }
      ],
      "status": "0x1",
      "logsBloom": "0x00000000000000000000000000000000000000000000000000002000000000000000000000000000000000000000000000000000000000000800000000000000000000000000000000000000000000000000000000000000000000000000000000000000000000000000000000000000000000000000000000000000000000000000000000000000000000000000000000000000000000000000000000000000000000000000000000000000000000000000000000000000000002000000000000000000080000000000000000000000000000000000000000040000000000000000000000000000000000000000000000000000000000080000000000000000",
      "type": "0x2",
      "effectiveGasPrice": "0x2ee96e10"
    }
  ],
  "libraries": [],
  "pending": [],
  "returns": {},
  "timestamp": 1712029653,
  "chain": 421614,
  "commit": "38d1422"
}