{
  "transactions": [
    {
      "hash": "0x62d5a40823f6b5978e4e70ae78f569803e85193709981426a9f5ff9b5a8acc9d",
      "transactionType": "CALL",
      "contractName": null,
      "contractAddress": "0x5d4d4b620488dc5ceb13a73a6e700925f7682b02",
      "function": "release(uint256[])",
      "arguments": [
        "[0]"
      ],
      "transaction": {
        "from": "0x8c9c001f821c04513616fd7962b2d8c62f925fd2",
        "to": "0x5d4d4b620488dc5ceb13a73a6e700925f7682b02",
        "gas": "0x5b65f",
        "value": "0x30383ab45f7eb0",
        "input": "0x3e97394c000000000000000000000000000000000000000000000000000000000000002000000000000000000000000000000000000000000000000000000000000000010000000000000000000000000000000000000000000000000000000000000000",
        "nonce": "0xf",
        "chainId": "0x14a34"
      },
      "additionalContracts": [],
      "isFixedGasLimit": false
    }
  ],
  "receipts": [
    {
      "status": "0x1",
      "cumulativeGasUsed": "0x121454",
      "logs": [
        {
          "address": "0x5d4d4b620488dc5ceb13a73a6e700925f7682b02",
          "topics": [
            "0x2b75b70e0da5e5b48bbe2548f300335487509d44e25bf4c108d8680d8c5cc8d4",
            "0x0000000000000000000000008c9c001f821c04513616fd7962b2d8c62f925fd2",
            "0x290decd9548b62a8d60345a988386fc84ba6bc95484008f6362f93160ef3e563"
          ],
          "data": "0x",
          "blockHash": "0x97e6a43a4bc057f019887b42a5a8d8572026177d527607759fc52f1935d53c7d",
          "blockNumber": "0x1224848",
          "transactionHash": "0x62d5a40823f6b5978e4e70ae78f569803e85193709981426a9f5ff9b5a8acc9d",
          "transactionIndex": "0xc",
          "logIndex": "0x7",
          "removed": false
        },
        {
          "address": "0xc1868e054425d378095a003ecba3823a5d0135c9",
          "topics": [
            "0x61ed099e74a97a1d7f8bb0952a88ca8b7b8ebd00c126ea04671f92a81213318a"
          ],
          "data": "0x0000000000000000000000008a3d588d9f6ac041476b094f97ff94ec30169d3d000000000000000000000000000000000000000000000000001de09ecad04aa5",
          "blockHash": "0x97e6a43a4bc057f019887b42a5a8d8572026177d527607759fc52f1935d53c7d",
          "blockNumber": "0x1224848",
          "transactionHash": "0x62d5a40823f6b5978e4e70ae78f569803e85193709981426a9f5ff9b5a8acc9d",
          "transactionIndex": "0xc",
          "logIndex": "0x8",
          "removed": false
        },
        {
          "address": "0xc1868e054425d378095a003ecba3823a5d0135c9",
          "topics": [
            "0x07ea52d82345d6e838192107d8fd7123d9c2ec8e916cd0aad13fd2b60db24644"
          ],
          "data": "0x000000000000000000000000000000000000000000000000000000000000006000000000000000000000000000000000000000000000000000000000000000a000000000000000000000000000000000000000000000000000000000000000c00000000000000000000000000000000000000000000000000000000000000001000000000000000000000000e1a12515f9ab2764b887bf60b923ca494ebbb2d6000000000000000000000000000000000000000000000000000000000000000000000000000000000000000000000000000000000000000000000000000000010000000000000000000000000000000000000000000000000012579be98f340b",
          "blockHash": "0x97e6a43a4bc057f019887b42a5a8d8572026177d527607759fc52f1935d53c7d",
          "blockNumber": "0x1224848",
          "transactionHash": "0x62d5a40823f6b5978e4e70ae78f569803e85193709981426a9f5ff9b5a8acc9d",
          "transactionIndex": "0xc",
          "logIndex": "0x9",
          "removed": false
        },
        {
          "address": "0x6edce65403992e310a62460808c4b910d972f10f",
          "topics": [
            "0x1ab700d4ced0c005b164c0f789fd09fcbb0156d4c2041b8a3bfbcd961cd1567f"
          ],
          "data": "0x00000000000000000000000000000000000000000000000000000000000000600000000000000000000000000000000000000000000000000000000000000180000000000000000000000000c1868e054425d378095a003ecba3823a5d0135c900000000000000000000000000000000000000000000000000000000000000f101000000000000000100009d350000000000000000000000005d4d4b620488dc5ceb13a73a6e700925f7682b0200009ce10000000000000000000000003dc5b1063e2ff0f675611922fc4b07acf79b518a7dcba347e56ecbcf3d52dd5fe2b68f91ba36959071c07e0cce57e7507d61a5600000000000000000000000008c9c001f821c04513616fd7962b2d8c62f925fd2000000000000000000000000000000000000000000000000000000000000004000000000000000000000000000000000000000000000000000000000000000010000000000000000000000000000000000000000000000000000000000000000000000000000000000000000000000000000000000000000000000000000000000000000000000000000000000001600030100110100000000000000000000000000011d2800000000000000000000",
          "blockHash": "0x97e6a43a4bc057f019887b42a5a8d8572026177d527607759fc52f1935d53c7d",
          "blockNumber": "0x1224848",
          "transactionHash": "0x62d5a40823f6b5978e4e70ae78f569803e85193709981426a9f5ff9b5a8acc9d",
          "transactionIndex": "0xc",
          "logIndex": "0xa",
          "removed": false
        }
      ],
      "logsBloom": "0x000000000000000000000000000008000000000000000000000000000000000000000000000002002000000200000000008000000000000000000000000000000000000000000000000000000040000000000000000000000000000200000000000000000000000082000000000004000000000000020000000080000000000000000000000000200000000800000000000000000000000000000000000000000000000080000000001000002000040000000000004000000004c0000000000080000000000000000000000000000000000000000000000000000000000040000000040000000000000000000000002000000000000000000000010000000000",
      "type": "0x2",
      "transactionHash": "0x62d5a40823f6b5978e4e70ae78f569803e85193709981426a9f5ff9b5a8acc9d",
      "transactionIndex": "0xc",
      "blockHash": "0x97e6a43a4bc057f019887b42a5a8d8572026177d527607759fc52f1935d53c7d",
      "blockNumber": "0x1224848",
      "gasUsed": "0x422bc",
      "effectiveGasPrice": "0x187b1",
      "from": "0x8c9c001f821c04513616fd7962b2d8c62f925fd2",
      "to": "0x5d4d4b620488dc5ceb13a73a6e700925f7682b02",
      "contractAddress": null,
      "l1BaseFeeScalar": "0x44d",
      "l1BlobBaseFee": "0x1",
      "l1BlobBaseFeeScalar": "0xa118b",
      "l1Fee": "0x10609070cf",
      "l1GasPrice": "0x94bf9a32d",
      "l1GasUsed": "0x640"
    }
  ],
  "libraries": [],
  "pending": [],
  "returns": {},
  "timestamp": 1733816176,
  "chain": 84532,
  "commit": "478b05fb"
}