{
  "transactions": [
    {
      "hash": "0x954ac9740af9304b7a983da84204a3318105dfcabc7b8edf9ce1cf3a4cc2f4f3",
      "transactionType": "CALL",
      "contractName": null,
      "contractAddress": "0x5d4d4b620488dc5ceb13a73a6e700925f7682b02",
      "function": "setPeer(uint32,bytes32)",
      "arguments": [
        "40161",
        "0x0000000000000000000000003dc5b1063e2ff0f675611922fc4b07acf79b518a"
      ],
      "transaction": {
        "from": "0x8c9c001f821c04513616fd7962b2d8c62f925fd2",
        "to": "0x5d4d4b620488dc5ceb13a73a6e700925f7682b02",
        "gas": "0x11067",
        "value": "0x0",
        "input": "0x3400288b0000000000000000000000000000000000000000000000000000000000009ce10000000000000000000000003dc5b1063e2ff0f675611922fc4b07acf79b518a",
        "nonce": "0xe",
        "chainId": "0x14a34"
      },
      "additionalContracts": [],
      "isFixedGasLimit": false
    }
  ],
  "receipts": [
    {
      "status": "0x1",
      "cumulativeGasUsed": "0x10c3e5",
      "logs": [
        {
          "address": "0x5d4d4b620488dc5ceb13a73a6e700925f7682b02",
          "topics": [
            "0x238399d427b947898edb290f5ff0f9109849b1c3ba196a42e35f00c50a54b98b"
          ],
          "data": "0x0000000000000000000000000000000000000000000000000000000000009ce10000000000000000000000003dc5b1063e2ff0f675611922fc4b07acf79b518a",
          "blockHash": "0x5c031c2afc6bc441d7ba34440152385279c5b997321e86968fc182acc6739770",
          "blockNumber": "0x122479a",
          "transactionHash": "0x954ac9740af9304b7a983da84204a3318105dfcabc7b8edf9ce1cf3a4cc2f4f3",
          "transactionIndex": "0x6",
          "logIndex": "0x9",
          "removed": false
        }
      ],
      "logsBloom": "0x00000000000000000000000000000000000000000000000000000000000000000000000000000000000000000000000000000000000000000800000000000000000000000000000000000000000000000000000000000000000000000000000000000000000000000000000000000400000000000002000000000000000000000000000000000000000000000000000000000000000000000000000000000000000000000000000000000000200000000000000000000000000002000000000000000000000000000000000000000000000000000000000000040000000000000000000000000000000000000000000000000000000000000000000000000000",
      "type": "0x2",
      "transactionHash": "0x954ac9740af9304b7a983da84204a3318105dfcabc7b8edf9ce1cf3a4cc2f4f3",
      "transactionIndex": "0x6",
      "blockHash": "0x5c031c2afc6bc441d7ba34440152385279c5b997321e86968fc182acc6739770",
      "blockNumber": "0x122479a",
      "gasUsed": "0xba43",
      "effectiveGasPrice": "0x187af",
      "from": "0x8c9c001f821c04513616fd7962b2d8c62f925fd2",
      "to": "0x5d4d4b620488dc5ceb13a73a6e700925f7682b02",
      "contractAddress": null,
      "l1BaseFeeScalar": "0x44d",
      "l1BlobBaseFee": "0x1",
      "l1BlobBaseFeeScalar": "0xa118b",
      "l1Fee": "0xb7f267c5d",
      "l1GasPrice": "0x686b9c52c",
      "l1GasUsed": "0x640"
    }
  ],
  "libraries": [],
  "pending": [],
  "returns": {},
  "timestamp": 1733815828,
  "chain": 84532,
  "commit": "478b05fb"
}