{
  "transactions": [
    {
      "hash": "0x8bc5408c2cd7cd402030a614b162209ba71e14ccebdc665ecc76af9beb391e5e",
      "transactionType": "CALL",
      "contractName": null,
      "contractAddress": "0x284c14ba977714f4d1904f6c65e4e5a4c27696c2",
      "function": "setPeer(uint32,bytes32)",
      "arguments": [
        "40161",
        "0x00000000000000000000000010df7f2487c4f3c8038e440bb6566ea11e342e38"
      ],
      "transaction": {
        "from": "0x8c9c001f821c04513616fd7962b2d8c62f925fd2",
        "to": "0x284c14ba977714f4d1904f6c65e4e5a4c27696c2",
        "gas": "0x104a9",
        "value": "0x0",
        "input": "0x3400288b0000000000000000000000000000000000000000000000000000000000009ce100000000000000000000000010df7f2487c4f3c8038e440bb6566ea11e342e38",
        "nonce": "0xb3",
        "chainId": "0x14a34"
      },
      "additionalContracts": [],
      "isFixedGasLimit": false
    }
  ],
  "receipts": [
    {
      "status": "0x1",
      "cumulativeGasUsed": "0x158025f",
      "logs": [
        {
          "address": "0x284c14ba977714f4d1904f6c65e4e5a4c27696c2",
          "topics": [
            "0x238399d427b947898edb290f5ff0f9109849b1c3ba196a42e35f00c50a54b98b"
          ],
          "data": "0x0000000000000000000000000000000000000000000000000000000000009ce100000000000000000000000010df7f2487c4f3c8038e440bb6566ea11e342e38",
          "blockHash": "0x5693d0dbde973d7674c9f17a02f2867e3badb4af760831f96eeef8c979f1eed7",
          "blockNumber": "0x15e4d8c",
          "transactionHash": "0x8bc5408c2cd7cd402030a614b162209ba71e14ccebdc665ecc76af9beb391e5e",
          "transactionIndex": "0x21",
          "logIndex": "0x7d",
          "removed": false
        }
      ],
      "logsBloom": "0x00000000000000000000000000000000000000000000000000000000000000000000000000000000000000000800000000000000000000000800000000000000000000000000000000000000020000000000000000000000000000000000000000000000000000000000000000000000000000000000000000000000000000000000000000000000000000000000000000000000000000000000000000000000000000080000000000000000000000000000000000000000000002000000000000000000000000000000000000000000000000000000000000040000000000000000000000000000000000000000000000000000000000000000000000000000",
      "type": "0x2",
      "transactionHash": "0x8bc5408c2cd7cd402030a614b162209ba71e14ccebdc665ecc76af9beb391e5e",
      "transactionIndex": "0x21",
      "blockHash": "0x5693d0dbde973d7674c9f17a02f2867e3badb4af760831f96eeef8c979f1eed7",
      "blockNumber": "0x15e4d8c",
      "gasUsed": "0xbcb7",
      "effectiveGasPrice": "0xf4bad",
      "from": "0x8c9c001f821c04513616fd7962b2d8c62f925fd2",
      "to": "0x284c14ba977714f4d1904f6c65e4e5a4c27696c2",
      "contractAddress": null,
      "l1BaseFeeScalar": "0x44d",
      "l1BlobBaseFee": "0x1",
      "l1BlobBaseFeeScalar": "0xa118b",
      "l1Fee": "0x1ddaae6e",
      "l1GasPrice": "0x10f27cea",
      "l1GasUsed": "0x640"
    }
  ],
  "libraries": [],
  "pending": [],
  "returns": {},
  "timestamp": 1741683193,
  "chain": 84532,
  "commit": "0f486f24"
}