{
  "transactions": [
    {
      "hash": "0x068f2aed2b285d6cf1552611f6dd29e490e5921563a28006f8e7705f87a4967b",
      "transactionType": "CALL",
      "contractName": null,
      "contractAddress": "0x58bde6071db4a9b006fdabe75a2eeb43decb779b",
      "function": "mint(uint256)",
      "arguments": [
        "0"
      ],
      "transaction": {
        "from": "0x8c9c001f821c04513616fd7962b2d8c62f925fd2",
        "to": "0x58bde6071db4a9b006fdabe75a2eeb43decb779b",
        "gas": "0x16fd4",
        "value": "0x0",
        "input": "0xa0712d680000000000000000000000000000000000000000000000000000000000000000",
        "nonce": "0x59",
        "chainId": "0xaa36a7"
      },
      "additionalContracts": [],
      "isFixedGasLimit": false
    },
    {
      "hash": "0x74c6fff35611dd6b46f2c4e7c343ec831cf9b1d8ea734d07b7e0c738bac673c1",
      "transactionType": "CALL",
      "contractName": null,
      "contractAddress": "0x58bde6071db4a9b006fdabe75a2eeb43decb779b",
      "function": "setApprovalForAll(address,bool)",
      "arguments": [
        "0x3DC5b1063e2FF0F675611922fC4b07AcF79B518A",
        "true"
      ],
      "transaction": {
        "from": "0x8c9c001f821c04513616fd7962b2d8c62f925fd2",
        "to": "0x58bde6071db4a9b006fdabe75a2eeb43decb779b",
        "gas": "0xf899",
        "value": "0x0",
        "input": "0xa22cb4650000000000000000000000003dc5b1063e2ff0f675611922fc4b07acf79b518a0000000000000000000000000000000000000000000000000000000000000001",
        "nonce": "0x5a",
        "chainId": "0xaa36a7"
      },
      "additionalContracts": [],
      "isFixedGasLimit": false
    },
    {
      "hash": "0x3a47c31f9f19741d7ae6f1050edd46be6919a7cbc14b11ff2ee211c7706f7fbf",
      "transactionType": "CALL",
      "contractName": null,
      "contractAddress": "0x3dc5b1063e2ff0f675611922fc4b07acf79b518a",
      "function": "lock(uint256[])",
      "arguments": [
        "[0]"
      ],
      "transaction": {
        "from": "0x8c9c001f821c04513616fd7962b2d8c62f925fd2",
        "to": "0x3dc5b1063e2ff0f675611922fc4b07acf79b518a",
        "gas": "0x760a4",
        "value": "0x302d409662f0",
        "input": "0x859610c6000000000000000000000000000000000000000000000000000000000000002000000000000000000000000000000000000000000000000000000000000000010000000000000000000000000000000000000000000000000000000000000000",
        "nonce": "0x5b",
        "chainId": "0xaa36a7"
      },
      "additionalContracts": [],
      "isFixedGasLimit": false
    }
  ],
  "receipts": [
    {
      "status": "0x1",
      "cumulativeGasUsed": "0x19338b7",
      "logs": [
        {
          "address": "0x58bde6071db4a9b006fdabe75a2eeb43decb779b",
          "topics": [
            "0xddf252ad1be2c89b69c2b068fc378daa952ba7f163c4a11628f55a4df523b3ef",
            "0x0000000000000000000000000000000000000000000000000000000000000000",
            "0x0000000000000000000000008c9c001f821c04513616fd7962b2d8c62f925fd2",
            "0x0000000000000000000000000000000000000000000000000000000000000000"
          ],
          "data": "0x",
          "blockHash": "0x2b5dc5369053dc92d1727ea3f5cfe3f92343c7ee34a7a4a5661fcf6816c8a127",
          "blockNumber": "0x6e9bda",
          "transactionHash": "0x068f2aed2b285d6cf1552611f6dd29e490e5921563a28006f8e7705f87a4967b",
          "transactionIndex": "0xea",
          "logIndex": "0x212",
          "removed": false
        }
      ],
      "logsBloom": "0x00000000000000000000000000001800000000000000000000000000000000000000000000000000000000000000000000000000000000000000000000000000000000000000000000000008004000000000000000000000000000000000000000000000020000000000000000000800000000000000000000000010000000000000000000000000000000000000000000000000000000000000000000000000000000000000000000000000000000000000000000000000000080000000000000000002000000000000000000000000000000000000100000000000000020000000000000000000000000008000000000000000000000000000000000000000",
      "type": "0x2",
      "transactionHash": "0x068f2aed2b285d6cf1552611f6dd29e490e5921563a28006f8e7705f87a4967b",
      "transactionIndex": "0xea",
      "blockHash": "0x2b5dc5369053dc92d1727ea3f5cfe3f92343c7ee34a7a4a5661fcf6816c8a127",
      "blockNumber": "0x6e9bda",
      "gasUsed": "0x10a4e",
      "effectiveGasPrice": "0x988e4001a",
      "from": "0x8c9c001f821c04513616fd7962b2d8c62f925fd2",
      "to": "0x58bde6071db4a9b006fdabe75a2eeb43decb779b",
      "contractAddress": null
    },
    {
      "status": "0x1",
      "cumulativeGasUsed": "0x193ecb3",
      "logs": [
        {
          "address": "0x58bde6071db4a9b006fdabe75a2eeb43decb779b",
          "topics": [
            "0x17307eab39ab6107e8899845ad3d59bd9653f200f220920489ca2b5937696c31",
            "0x0000000000000000000000008c9c001f821c04513616fd7962b2d8c62f925fd2",
            "0x0000000000000000000000003dc5b1063e2ff0f675611922fc4b07acf79b518a"
          ],
          "data": "0x0000000000000000000000000000000000000000000000000000000000000001",
          "blockHash": "0x2b5dc5369053dc92d1727ea3f5cfe3f92343c7ee34a7a4a5661fcf6816c8a127",
          "blockNumber": "0x6e9bda",
          "transactionHash": "0x74c6fff35611dd6b46f2c4e7c343ec831cf9b1d8ea734d07b7e0c738bac673c1",
          "transactionIndex": "0xeb",
          "logIndex": "0x213",
          "removed": false
        }
      ],
      "logsBloom": "0x00000000000000000000000000001800000000000000000000000000000000000000000000000000000000000000000000000000000000000000000000000000000000000000000000000000004000008000000000000000000000000000000002000000000000000000000000000000000000000000000000000000000000000000000000000000000000000000000000000000000000000000000000000000000000000000000000000000000001000000000000000000000080000000000000000000000000000000000000010000000000000000100000000000000000000000200800000000000000008000000000000000000000000000000000000000",
      "type": "0x2",
      "transactionHash": "0x74c6fff35611dd6b46f2c4e7c343ec831cf9b1d8ea734d07b7e0c738bac673c1",
      "transactionIndex": "0xeb",
      "blockHash": "0x2b5dc5369053dc92d1727ea3f5cfe3f92343c7ee34a7a4a5661fcf6816c8a127",
      "blockNumber": "0x6e9bda",
      "gasUsed": "0xb3fc",
      "effectiveGasPrice": "0x988e4001a",
      "from": "0x8c9c001f821c04513616fd7962b2d8c62f925fd2",
      "to": "0x58bde6071db4a9b006fdabe75a2eeb43decb779b",
      "contractAddress": null
    },
    {
      "status": "0x1",
      "cumulativeGasUsed": "0x198f814",
      "logs": [
        {
          "address": "0x58bde6071db4a9b006fdabe75a2eeb43decb779b",
          "topics": [
            "0xddf252ad1be2c89b69c2b068fc378daa952ba7f163c4a11628f55a4df523b3ef",
            "0x0000000000000000000000008c9c001f821c04513616fd7962b2d8c62f925fd2",
            "0x0000000000000000000000003dc5b1063e2ff0f675611922fc4b07acf79b518a",
            "0x0000000000000000000000000000000000000000000000000000000000000000"
          ],
          "data": "0x",
          "blockHash": "0x2b5dc5369053dc92d1727ea3f5cfe3f92343c7ee34a7a4a5661fcf6816c8a127",
          "blockNumber": "0x6e9bda",
          "transactionHash": "0x3a47c31f9f19741d7ae6f1050edd46be6919a7cbc14b11ff2ee211c7706f7fbf",
          "transactionIndex": "0xec",
          "logIndex": "0x214",
          "removed": false
        },
        {
          "address": "0x3dc5b1063e2ff0f675611922fc4b07acf79b518a",
          "topics": [
            "0x1c36b098d11447726bd331073fb3d8ff3d57dee04522d82dc9eeb51536d39595",
            "0x0000000000000000000000008c9c001f821c04513616fd7962b2d8c62f925fd2",
            "0x290decd9548b62a8d60345a988386fc84ba6bc95484008f6362f93160ef3e563"
          ],
          "data": "0x",
          "blockHash": "0x2b5dc5369053dc92d1727ea3f5cfe3f92343c7ee34a7a4a5661fcf6816c8a127",
          "blockNumber": "0x6e9bda",
          "transactionHash": "0x3a47c31f9f19741d7ae6f1050edd46be6919a7cbc14b11ff2ee211c7706f7fbf",
          "transactionIndex": "0xec",
          "logIndex": "0x215",
          "removed": false
        },
        {
          "address": "0xcc1ae8cf5d3904cef3360a9532b477529b177cce",
          "topics": [
            "0x61ed099e74a97a1d7f8bb0952a88ca8b7b8ebd00c126ea04671f92a81213318a"
          ],
          "data": "0x000000000000000000000000718b92b5cb0a5552039b593faf724d182a881eda00000000000000000000000000000000000000000000000000002dcba0782476",
          "blockHash": "0x2b5dc5369053dc92d1727ea3f5cfe3f92343c7ee34a7a4a5661fcf6816c8a127",
          "blockNumber": "0x6e9bda",
          "transactionHash": "0x3a47c31f9f19741d7ae6f1050edd46be6919a7cbc14b11ff2ee211c7706f7fbf",
          "transactionIndex": "0xec",
          "logIndex": "0x216",
          "removed": false
        },
        {
          "address": "0xcc1ae8cf5d3904cef3360a9532b477529b177cce",
          "topics": [
            "0x07ea52d82345d6e838192107d8fd7123d9c2ec8e916cd0aad13fd2b60db24644"
          ],
          "data": "0x000000000000000000000000000000000000000000000000000000000000006000000000000000000000000000000000000000000000000000000000000000a000000000000000000000000000000000000000000000000000000000000000c000000000000000000000000000000000000000000000000000000000000000010000000000000000000000008eebf8b423b73bfca51a1db4b7354aa0bfca91930000000000000000000000000000000000000000000000000000000000000000000000000000000000000000000000000000000000000000000000000000000100000000000000000000000000000000000000000000000000000261a01e3e7a",
          "blockHash": "0x2b5dc5369053dc92d1727ea3f5cfe3f92343c7ee34a7a4a5661fcf6816c8a127",
          "blockNumber": "0x6e9bda",
          "transactionHash": "0x3a47c31f9f19741d7ae6f1050edd46be6919a7cbc14b11ff2ee211c7706f7fbf",
          "transactionIndex": "0xec",
          "logIndex": "0x217",
          "removed": false
        },
        {
          "address": "0x6edce65403992e310a62460808c4b910d972f10f",
          "topics": [
            "0x1ab700d4ced0c005b164c0f789fd09fcbb0156d4c2041b8a3bfbcd961cd1567f"
          ],
          "data": "0x00000000000000000000000000000000000000000000000000000000000000600000000000000000000000000000000000000000000000000000000000000180000000000000000000000000cc1ae8cf5d3904cef3360a9532b477529b177cce00000000000000000000000000000000000000000000000000000000000000f101000000000000000100009ce10000000000000000000000003dc5b1063e2ff0f675611922fc4b07acf79b518a00009d350000000000000000000000005d4d4b620488dc5ceb13a73a6e700925f7682b02306d5ffa25f6844874efb527e59268881fc2c626a2a796a049bb3f732172526a0000000000000000000000008c9c001f821c04513616fd7962b2d8c62f925fd200000000000000000000000000000000000000000000000000000000000000400000000000000000000000000000000000000000000000000000000000000001000000000000000000000000000000000000000000000000000000000000000000000000000000000000000000000000000000000000000000000000000000000000000000000000000000000000160003010011010000000000000000000000000000caee00000000000000000000",
          "blockHash": "0x2b5dc5369053dc92d1727ea3f5cfe3f92343c7ee34a7a4a5661fcf6816c8a127",
          "blockNumber": "0x6e9bda",
          "transactionHash": "0x3a47c31f9f19741d7ae6f1050edd46be6919a7cbc14b11ff2ee211c7706f7fbf",
          "transactionIndex": "0xec",
          "logIndex": "0x218",
          "removed": false
        }
      ],
      "logsBloom": "0x000000000000000000000000000018000000000000000800000000000001000000000000080000002000000000000000008000000000000000000000000000000000000000000000000000080040000080000000000000000000000100000000000000010200000082000000000008000000000000000000000000100000000000000000000000200000000800000000000000000000000000000000000000000000000080000000001000000000010000000000004000000004c0000000000000000002000000000000000000010000000000080000100008000000000060000000040002000000000000008000002000000000000000000000010000000020",
      "type": "0x2",
      "transactionHash": "0x3a47c31f9f19741d7ae6f1050edd46be6919a7cbc14b11ff2ee211c7706f7fbf",
      "transactionIndex": "0xec",
      "blockHash": "0x2b5dc5369053dc92d1727ea3f5cfe3f92343c7ee34a7a4a5661fcf6816c8a127",
      "blockNumber": "0x6e9bda",
      "gasUsed": "0x50b61",
      "effectiveGasPrice": "0x988e4001a",
      "from": "0x8c9c001f821c04513616fd7962b2d8c62f925fd2",
      "to": "0x3dc5b1063e2ff0f675611922fc4b07acf79b518a",
      "contractAddress": null
    }
  ],
  "libraries": [],
  "pending": [],
  "returns": {},
  "timestamp": 1733816041,
  "chain": 11155111,
  "commit": "478b05fb"
}