{
  "transactions": [
    {
      "hash": "0xe9843517f87d4ceef5e08091a29c72d4d5a79487123c155d4bb81ce4e86c51e0",
      "transactionType": "CALL",
      "contractName": "MockNft",
      "contractAddress": "0x54d4E6adc4f152ED4919C940CB3EA13B912519c9",
      "function": "mint(uint256)",
      "arguments": [
        "1"
      ],
      "transaction": {
        "type": "0x02",
        "from": "0xde05a1abb121113a33eed248bd91ddc254d5e9db",
        "to": "0x54d4e6adc4f152ed4919c940cb3ea13b912519c9",
        "gas": "0x113aa",
        "value": "0x0",
        "data": "0xa0712d680000000000000000000000000000000000000000000000000000000000000001",
        "nonce": "0x146",
        "accessList": []
      },
      "additionalContracts": [],
      "isFixedGasLimit": false
    },
    {
      "hash": "0x23b3ab45d892e389b3948e938537b56c5b17d3027a37459b6b16a016dca842e6",
      "transactionType": "CALL",
      "contractName": "MockNft",
      "contractAddress": "0x54d4E6adc4f152ED4919C940CB3EA13B912519c9",
      "function": "mint(uint256)",
      "arguments": [
        "2"
      ],
      "transaction": {
        "type": "0x02",
        "from": "0xde05a1abb121113a33eed248bd91ddc254d5e9db",
        "to": "0x54d4e6adc4f152ed4919c940cb3ea13b912519c9",
        "gas": "0x113aa",
        "value": "0x0",
        "data": "0xa0712d680000000000000000000000000000000000000000000000000000000000000002",
        "nonce": "0x147",
        "accessList": []
      },
      "additionalContracts": [],
      "isFixedGasLimit": false
    },
    {
      "hash": "0xb2bd1393ef19efc2d028ff7abc1eb74fce8ec772eefd34844ab55944fbb2a378",
      "transactionType": "CALL",
      "contractName": "MockNft",
      "contractAddress": "0x54d4E6adc4f152ED4919C940CB3EA13B912519c9",
      "function": "mint(uint256)",
      "arguments": [
        "3"
      ],
      "transaction": {
        "type": "0x02",
        "from": "0xde05a1abb121113a33eed248bd91ddc254d5e9db",
        "to": "0x54d4e6adc4f152ed4919c940cb3ea13b912519c9",
        "gas": "0x113aa",
        "value": "0x0",
        "data": "0xa0712d680000000000000000000000000000000000000000000000000000000000000003",
        "nonce": "0x148",
        "accessList": []
      },
      "additionalContracts": [],
      "isFixedGasLimit": false
    },
    {
      "hash": "0xe2415f4d64e27af159ccf66e30006a4b99ee82006c252715868cfb5330bf82f2",
      "transactionType": "CALL",
      "contractName": "MockNft",
      "contractAddress": "0x54d4E6adc4f152ED4919C940CB3EA13B912519c9",
      "function": "mint(uint256)",
      "arguments": [
        "4"
      ],
      "transaction": {
        "type": "0x02",
        "from": "0xde05a1abb121113a33eed248bd91ddc254d5e9db",
        "to": "0x54d4e6adc4f152ed4919c940cb3ea13b912519c9",
        "gas": "0x113aa",
        "value": "0x0",
        "data": "0xa0712d680000000000000000000000000000000000000000000000000000000000000004",
        "nonce": "0x149",
        "accessList": []
      },
      "additionalContracts": [],
      "isFixedGasLimit": false
    },
    {
      "hash": "0xc9352a59fa05aa9ead121dc130f5f04b8e1fa20eec3ab1a9177a82246bc77b17",
      "transactionType": "CALL",
      "contractName": "MockNft",
      "contractAddress": "0x54d4E6adc4f152ED4919C940CB3EA13B912519c9",
      "function": "mint(uint256)",
      "arguments": [
        "5"
      ],
      "transaction": {
        "type": "0x02",
        "from": "0xde05a1abb121113a33eed248bd91ddc254d5e9db",
        "to": "0x54d4e6adc4f152ed4919c940cb3ea13b912519c9",
        "gas": "0x113aa",
        "value": "0x0",
        "data": "0xa0712d680000000000000000000000000000000000000000000000000000000000000005",
        "nonce": "0x14a",
        "accessList": []
      },
      "additionalContracts": [],
      "isFixedGasLimit": false
    },
    {
      "hash": "0x6559b4988106ea7614e47b9adf1118364e6065617cf10399780fe6e8570a7e1e",
      "transactionType": "CALL",
      "contractName": "MockNft",
      "contractAddress": "0x54d4E6adc4f152ED4919C940CB3EA13B912519c9",
      "function": "setApprovalForAll(address,bool)",
      "arguments": [
        "0x18F786AE5Fb1639BAa4fcE4B8F29c783949a66A8",
        "true"
      ],
      "transaction": {
        "type": "0x02",
        "from": "0xde05a1abb121113a33eed248bd91ddc254d5e9db",
        "to": "0x54d4e6adc4f152ed4919c940cb3ea13b912519c9",
        "gas": "0x958e",
        "value": "0x0",
        "data": "0xa22cb46500000000000000000000000018f786ae5fb1639baa4fce4b8f29c783949a66a80000000000000000000000000000000000000000000000000000000000000001",
        "nonce": "0x14b",
        "accessList": []
      },
      "additionalContracts": [],
      "isFixedGasLimit": false
    },
    {
      "hash": "0x51139de93c20a442206156f2d0a3ed5844dbadb1b1fe6156d1d52c486db13f73",
      "transactionType": "CALL",
      "contractName": "NftLocker",
      "contractAddress": "0x18F786AE5Fb1639BAa4fcE4B8F29c783949a66A8",
      "function": "lock(uint256[])",
      "arguments": [
        "[1, 2, 3, 4, 5]"
      ],
      "transaction": {
        "type": "0x02",
        "from": "0xde05a1abb121113a33eed248bd91ddc254d5e9db",
        "to": "0x18f786ae5fb1639baa4fce4b8f29c783949a66a8",
        "gas": "0x99127",
        "value": "0x1e1f2a4984340",
        "data": "0x859610c60000000000000000000000000000000000000000000000000000000000000020000000000000000000000000000000000000000000000000000000000000000500000000000000000000000000000000000000000000000000000000000000010000000000000000000000000000000000000000000000000000000000000002000000000000000000000000000000000000000000000000000000000000000300000000000000000000000000000000000000000000000000000000000000040000000000000000000000000000000000000000000000000000000000000005",
        "nonce": "0x14c",
        "accessList": []
      },
      "additionalContracts": [],
      "isFixedGasLimit": false
    }
  ],
  "receipts": [
    {
      "transactionHash": "0xe9843517f87d4ceef5e08091a29c72d4d5a79487123c155d4bb81ce4e86c51e0",
      "transactionIndex": "0x6",
      "blockHash": "0x7f859c01fcb05e73bd6d5d662716c381dceccb6c8eef5f121ce568b5729c10f2",
      "blockNumber": "0x559d2a",
      "from": "0xdE05a1Abb121113a33eeD248BD91ddC254d5E9Db",
      "to": "0x54d4E6adc4f152ED4919C940CB3EA13B912519c9",
      "cumulativeGasUsed": "0x8a02d",
      "gasUsed": "0xc794",
      "contractAddress": null,
      "logs": [
        {
          "address": "0x54d4E6adc4f152ED4919C940CB3EA13B912519c9",
          "topics": [
            "0xddf252ad1be2c89b69c2b068fc378daa952ba7f163c4a11628f55a4df523b3ef",
            "0x0000000000000000000000000000000000000000000000000000000000000000",
            "0x000000000000000000000000de05a1abb121113a33eed248bd91ddc254d5e9db",
            "0x0000000000000000000000000000000000000000000000000000000000000001"
          ],
          "data": "0x",
          "blockHash": "0x7f859c01fcb05e73bd6d5d662716c381dceccb6c8eef5f121ce568b5729c10f2",
          "blockNumber": "0x559d2a",
          "transactionHash": "0xe9843517f87d4ceef5e08091a29c72d4d5a79487123c155d4bb81ce4e86c51e0",
          "transactionIndex": "0x6",
          "logIndex": "0x4",
          "removed": false
        }
      ],
      "status": "0x1",
      "logsBloom": "0x00000000000000000000000000000000000000000000000000100000000000000000000000000000000000000000000000000000000000000000000000040000000000000000000000000008000000000000000000040000000000200000000000000000020000000000000000000800000000040000004000000010000000000000002000000020000000000000000000000000000000000000000000000000000000000000000000000000000000000000000000000000000000000000000000000002000000000000000000000000000000000000000000000000000060000000000000000000000000000000000000000000000000000000000000000000",
      "type": "0x2",
      "effectiveGasPrice": "0xb2d08a93"
    },
    {
      "transactionHash": "0x23b3ab45d892e389b3948e938537b56c5b17d3027a37459b6b16a016dca842e6",
      "transactionIndex": "0x8",
      "blockHash": "0x7f859c01fcb05e73bd6d5d662716c381dceccb6c8eef5f121ce568b5729c10f2",
      "blockNumber": "0x559d2a",
      "from": "0xdE05a1Abb121113a33eeD248BD91ddC254d5E9Db",
      "to": "0x54d4E6adc4f152ED4919C940CB3EA13B912519c9",
      "cumulativeGasUsed": "0xaecfb",
      "gasUsed": "0xc794",
      "contractAddress": null,
      "logs": [
        {
          "address": "0x54d4E6adc4f152ED4919C940CB3EA13B912519c9",
          "topics": [
            "0xddf252ad1be2c89b69c2b068fc378daa952ba7f163c4a11628f55a4df523b3ef",
            "0x0000000000000000000000000000000000000000000000000000000000000000",
            "0x000000000000000000000000de05a1abb121113a33eed248bd91ddc254d5e9db",
            "0x0000000000000000000000000000000000000000000000000000000000000002"
          ],
          "data": "0x",
          "blockHash": "0x7f859c01fcb05e73bd6d5d662716c381dceccb6c8eef5f121ce568b5729c10f2",
          "blockNumber": "0x559d2a",
          "transactionHash": "0x23b3ab45d892e389b3948e938537b56c5b17d3027a37459b6b16a016dca842e6",
          "transactionIndex": "0x8",
          "logIndex": "0x6",
          "removed": false
        }
      ],
      "status": "0x1",
      "logsBloom": "0x04000000000000000000000000000000000000000000000000100000000000000000000000000000000000000000000000000000000000000000000000000000000000000000000000000008000000000000000000000000000000200000000000000000020000000000000000000800000000040000004000000010000000000000002000000020000000000000000000000000000000000000000000000000000000000000000000000100000000000000000000000000000000000000000000000002000000000000000000000000000000000000000000000000000020000000000000000000000000000000000000000000008000000000000000000000",
      "type": "0x2",
      "effectiveGasPrice": "0xb2d08a93"
    },
    {
      "transactionHash": "0xb2bd1393ef19efc2d028ff7abc1eb74fce8ec772eefd34844ab55944fbb2a378",
      "transactionIndex": "0x9",
      "blockHash": "0x7f859c01fcb05e73bd6d5d662716c381dceccb6c8eef5f121ce568b5729c10f2",
      "blockNumber": "0x559d2a",
      "from": "0xdE05a1Abb121113a33eeD248BD91ddC254d5E9Db",
      "to": "0x54d4E6adc4f152ED4919C940CB3EA13B912519c9",
      "cumulativeGasUsed": "0xbb48f",
      "gasUsed": "0xc794",
      "contractAddress": null,
      "logs": [
        {
          "address": "0x54d4E6adc4f152ED4919C940CB3EA13B912519c9",
          "topics": [
            "0xddf252ad1be2c89b69c2b068fc378daa952ba7f163c4a11628f55a4df523b3ef",
            "0x0000000000000000000000000000000000000000000000000000000000000000",
            "0x000000000000000000000000de05a1abb121113a33eed248bd91ddc254d5e9db",
            "0x0000000000000000000000000000000000000000000000000000000000000003"
          ],
          "data": "0x",
          "blockHash": "0x7f859c01fcb05e73bd6d5d662716c381dceccb6c8eef5f121ce568b5729c10f2",
          "blockNumber": "0x559d2a",
          "transactionHash": "0xb2bd1393ef19efc2d028ff7abc1eb74fce8ec772eefd34844ab55944fbb2a378",
          "transactionIndex": "0x9",
          "logIndex": "0x7",
          "removed": false
        }
      ],
      "status": "0x1",
      "logsBloom": "0x00000000000000000000000000000000000000000000000000100000000000000000000000000000000000000000000000000000020000000000000000000000000000000000000000000008000000000000000000000000000000200000000000000000020000000000000000000800000000040000004000000010000000000000002000000020000000000000000000000000000000000000000000000000000000000000000000000000000000000000000000800000000000000000400000000002000000000000000000000000000000000000000000000000000020000000000000000000000000000000000000000000000000000000000000000000",
      "type": "0x2",
      "effectiveGasPrice": "0xb2d08a93"
    },
    {
      "transactionHash": "0xe2415f4d64e27af159ccf66e30006a4b99ee82006c252715868cfb5330bf82f2",
      "transactionIndex": "0xa",
      "blockHash": "0x7f859c01fcb05e73bd6d5d662716c381dceccb6c8eef5f121ce568b5729c10f2",
      "blockNumber": "0x559d2a",
      "from": "0xdE05a1Abb121113a33eeD248BD91ddC254d5E9Db",
      "to": "0x54d4E6adc4f152ED4919C940CB3EA13B912519c9",
      "cumulativeGasUsed": "0xc7c23",
      "gasUsed": "0xc794",
      "contractAddress": null,
      "logs": [
        {
          "address": "0x54d4E6adc4f152ED4919C940CB3EA13B912519c9",
          "topics": [
            "0xddf252ad1be2c89b69c2b068fc378daa952ba7f163c4a11628f55a4df523b3ef",
            "0x0000000000000000000000000000000000000000000000000000000000000000",
            "0x000000000000000000000000de05a1abb121113a33eed248bd91ddc254d5e9db",
            "0x0000000000000000000000000000000000000000000000000000000000000004"
          ],
          "data": "0x",
          "blockHash": "0x7f859c01fcb05e73bd6d5d662716c381dceccb6c8eef5f121ce568b5729c10f2",
          "blockNumber": "0x559d2a",
          "transactionHash": "0xe2415f4d64e27af159ccf66e30006a4b99ee82006c252715868cfb5330bf82f2",
          "transactionIndex": "0xa",
          "logIndex": "0x8",
          "removed": false
        }
      ],
      "status": "0x1",
      "logsBloom": "0x00000000000000000000000000000000000000000000000000100000000000000000000000000000000000000000000000000000000000000000000000000000000000000000000000000008000000000000000000000000000000200000000008000000020000000000000000000800000000040000004000000010000000000000002000000020000000000000000000000000000000000000000000000000000000000000000000000000000000000000000000000000002000000000000000000002000000000000000000000000000000008000000000000000000020000000000000000000000000000000000000000000000000000000000000000000",
      "type": "0x2",
      "effectiveGasPrice": "0xb2d08a93"
    },
    {
      "transactionHash": "0xc9352a59fa05aa9ead121dc130f5f04b8e1fa20eec3ab1a9177a82246bc77b17",
      "transactionIndex": "0xb",
      "blockHash": "0x7f859c01fcb05e73bd6d5d662716c381dceccb6c8eef5f121ce568b5729c10f2",
      "blockNumber": "0x559d2a",
      "from": "0xdE05a1Abb121113a33eeD248BD91ddC254d5E9Db",
      "to": "0x54d4E6adc4f152ED4919C940CB3EA13B912519c9",
      "cumulativeGasUsed": "0xd43b7",
      "gasUsed": "0xc794",
      "contractAddress": null,
      "logs": [
        {
          "address": "0x54d4E6adc4f152ED4919C940CB3EA13B912519c9",
          "topics": [
            "0xddf252ad1be2c89b69c2b068fc378daa952ba7f163c4a11628f55a4df523b3ef",
            "0x0000000000000000000000000000000000000000000000000000000000000000",
            "0x000000000000000000000000de05a1abb121113a33eed248bd91ddc254d5e9db",
            "0x0000000000000000000000000000000000000000000000000000000000000005"
          ],
          "data": "0x",
          "blockHash": "0x7f859c01fcb05e73bd6d5d662716c381dceccb6c8eef5f121ce568b5729c10f2",
          "blockNumber": "0x559d2a",
          "transactionHash": "0xc9352a59fa05aa9ead121dc130f5f04b8e1fa20eec3ab1a9177a82246bc77b17",
          "transactionIndex": "0xb",
          "logIndex": "0x9",
          "removed": false
        }
      ],
      "status": "0x1",
      "logsBloom": "0x00000000000000000000000000000000000000000000000000100000000000000000000000000000000000000000000000000000000000000000000000000000000010000000000000000008000000000000000000000000000000200000000000000000020000000000000000000800000000040000004000000010000000000000002000000020000000000000001000000800000000000000000000000000000000000000000000000000000000000000000000000000000000000000000000000002000000000000000000000000000000000000000000000000000020000000000000000000000000000000000000000000000000000000000000000000",
      "type": "0x2",
      "effectiveGasPrice": "0xb2d08a93"
    },
    {
      "transactionHash": "0x6559b4988106ea7614e47b9adf1118364e6065617cf10399780fe6e8570a7e1e",
      "transactionIndex": "0xc",
      "blockHash": "0x7f859c01fcb05e73bd6d5d662716c381dceccb6c8eef5f121ce568b5729c10f2",
      "blockNumber": "0x559d2a",
      "from": "0xdE05a1Abb121113a33eeD248BD91ddC254d5E9Db",
      "to": "0x54d4E6adc4f152ED4919C940CB3EA13B912519c9",
      "cumulativeGasUsed": "0xda9fa",
      "gasUsed": "0x6643",
      "contractAddress": null,
      "logs": [
        {
          "address": "0x54d4E6adc4f152ED4919C940CB3EA13B912519c9",
          "topics": [
            "0x17307eab39ab6107e8899845ad3d59bd9653f200f220920489ca2b5937696c31",
            "0x000000000000000000000000de05a1abb121113a33eed248bd91ddc254d5e9db",
            "0x00000000000000000000000018f786ae5fb1639baa4fce4b8f29c783949a66a8"
          ],
          "data": "0x0000000000000000000000000000000000000000000000000000000000000001",
          "blockHash": "0x7f859c01fcb05e73bd6d5d662716c381dceccb6c8eef5f121ce568b5729c10f2",
          "blockNumber": "0x559d2a",
          "transactionHash": "0x6559b4988106ea7614e47b9adf1118364e6065617cf10399780fe6e8570a7e1e",
          "transactionIndex": "0xc",
          "logIndex": "0xa",
          "removed": false
        }
      ],
      "status": "0x1",
      "logsBloom": "0x00000000000000000000000000000000000000000000000000100000000000000000000000000000000000000000000000000000000000000000000000000000000000000000000000000000000000000000000000000000000000200000000002000000000000000000000000000000000000040000004000000000000000000000002000000020000000000000000000000000000000200000000000000000000000000000000000000000000000000000000000000000000000000000000000000000000000000000000000000000000000000000000000001000000000000000200800000000000000000000000000000000000000000000800000000000",
      "type": "0x2",
      "effectiveGasPrice": "0xb2d08a93"
    },
    {
      "transactionHash": "0x51139de93c20a442206156f2d0a3ed5844dbadb1b1fe6156d1d52c486db13f73",
      "transactionIndex": "0xd",
      "blockHash": "0x7f859c01fcb05e73bd6d5d662716c381dceccb6c8eef5f121ce568b5729c10f2",
      "blockNumber": "0x559d2a",
      "from": "0xdE05a1Abb121113a33eeD248BD91ddC254d5E9Db",
      "to": "0x18F786AE5Fb1639BAa4fcE4B8F29c783949a66A8",
      "cumulativeGasUsed": "0x14971f",
      "gasUsed": "0x6ed25",
      "contractAddress": null,
      "logs": [
        {
          "address": "0x54d4E6adc4f152ED4919C940CB3EA13B912519c9",
          "topics": [
            "0xddf252ad1be2c89b69c2b068fc378daa952ba7f163c4a11628f55a4df523b3ef",
            "0x000000000000000000000000de05a1abb121113a33eed248bd91ddc254d5e9db",
            "0x00000000000000000000000018f786ae5fb1639baa4fce4b8f29c783949a66a8",
            "0x0000000000000000000000000000000000000000000000000000000000000001"
          ],
          "data": "0x",
          "blockHash": "0x7f859c01fcb05e73bd6d5d662716c381dceccb6c8eef5f121ce568b5729c10f2",
          "blockNumber": "0x559d2a",
          "transactionHash": "0x51139de93c20a442206156f2d0a3ed5844dbadb1b1fe6156d1d52c486db13f73",
          "transactionIndex": "0xd",
          "logIndex": "0xb",
          "removed": false
        },
        {
          "address": "0x54d4E6adc4f152ED4919C940CB3EA13B912519c9",
          "topics": [
            "0xddf252ad1be2c89b69c2b068fc378daa952ba7f163c4a11628f55a4df523b3ef",
            "0x000000000000000000000000de05a1abb121113a33eed248bd91ddc254d5e9db",
            "0x00000000000000000000000018f786ae5fb1639baa4fce4b8f29c783949a66a8",
            "0x0000000000000000000000000000000000000000000000000000000000000002"
          ],
          "data": "0x",
          "blockHash": "0x7f859c01fcb05e73bd6d5d662716c381dceccb6c8eef5f121ce568b5729c10f2",
          "blockNumber": "0x559d2a",
          "transactionHash": "0x51139de93c20a442206156f2d0a3ed5844dbadb1b1fe6156d1d52c486db13f73",
          "transactionIndex": "0xd",
          "logIndex": "0xc",
          "removed": false
        },
        {
          "address": "0x54d4E6adc4f152ED4919C940CB3EA13B912519c9",
          "topics": [
            "0xddf252ad1be2c89b69c2b068fc378daa952ba7f163c4a11628f55a4df523b3ef",
            "0x000000000000000000000000de05a1abb121113a33eed248bd91ddc254d5e9db",
            "0x00000000000000000000000018f786ae5fb1639baa4fce4b8f29c783949a66a8",
            "0x0000000000000000000000000000000000000000000000000000000000000003"
          ],
          "data": "0x",
          "blockHash": "0x7f859c01fcb05e73bd6d5d662716c381dceccb6c8eef5f121ce568b5729c10f2",
          "blockNumber": "0x559d2a",
          "transactionHash": "0x51139de93c20a442206156f2d0a3ed5844dbadb1b1fe6156d1d52c486db13f73",
          "transactionIndex": "0xd",
          "logIndex": "0xd",
          "removed": false
        },
        {
          "address": "0x54d4E6adc4f152ED4919C940CB3EA13B912519c9",
          "topics": [
            "0xddf252ad1be2c89b69c2b068fc378daa952ba7f163c4a11628f55a4df523b3ef",
            "0x000000000000000000000000de05a1abb121113a33eed248bd91ddc254d5e9db",
            "0x00000000000000000000000018f786ae5fb1639baa4fce4b8f29c783949a66a8",
            "0x0000000000000000000000000000000000000000000000000000000000000004"
          ],
          "data": "0x",
          "blockHash": "0x7f859c01fcb05e73bd6d5d662716c381dceccb6c8eef5f121ce568b5729c10f2",
          "blockNumber": "0x559d2a",
          "transactionHash": "0x51139de93c20a442206156f2d0a3ed5844dbadb1b1fe6156d1d52c486db13f73",
          "transactionIndex": "0xd",
          "logIndex": "0xe",
          "removed": false
        },
        {
          "address": "0x54d4E6adc4f152ED4919C940CB3EA13B912519c9",
          "topics": [
            "0xddf252ad1be2c89b69c2b068fc378daa952ba7f163c4a11628f55a4df523b3ef",
            "0x000000000000000000000000de05a1abb121113a33eed248bd91ddc254d5e9db",
            "0x00000000000000000000000018f786ae5fb1639baa4fce4b8f29c783949a66a8",
            "0x0000000000000000000000000000000000000000000000000000000000000005"
          ],
          "data": "0x",
          "blockHash": "0x7f859c01fcb05e73bd6d5d662716c381dceccb6c8eef5f121ce568b5729c10f2",
          "blockNumber": "0x559d2a",
          "transactionHash": "0x51139de93c20a442206156f2d0a3ed5844dbadb1b1fe6156d1d52c486db13f73",
          "transactionIndex": "0xd",
          "logIndex": "0xf",
          "removed": false
        },
        {
          "address": "0x18F786AE5Fb1639BAa4fcE4B8F29c783949a66A8",
          "topics": [
            "0x1c36b098d11447726bd331073fb3d8ff3d57dee04522d82dc9eeb51536d39595",
            "0x000000000000000000000000de05a1abb121113a33eed248bd91ddc254d5e9db",
            "0x5917e5a395fb9b454434de59651d36822a9e29c5ec57474df3e67937b969460c"
          ],
          "data": "0x",
          "blockHash": "0x7f859c01fcb05e73bd6d5d662716c381dceccb6c8eef5f121ce568b5729c10f2",
          "blockNumber": "0x559d2a",
          "transactionHash": "0x51139de93c20a442206156f2d0a3ed5844dbadb1b1fe6156d1d52c486db13f73",
          "transactionIndex": "0xd",
          "logIndex": "0x10",
          "removed": false
        },
        {
          "address": "0xcc1ae8Cf5D3904Cef3360A9532B477529b177cCE",
          "topics": [
            "0x61ed099e74a97a1d7f8bb0952a88ca8b7b8ebd00c126ea04671f92a81213318a"
          ],
          "data": "0x000000000000000000000000718b92b5cb0a5552039b593faf724d182a881eda000000000000000000000000000000000000000000000000000158f7c248bd40",
          "blockHash": "0x7f859c01fcb05e73bd6d5d662716c381dceccb6c8eef5f121ce568b5729c10f2",
          "blockNumber": "0x559d2a",
          "transactionHash": "0x51139de93c20a442206156f2d0a3ed5844dbadb1b1fe6156d1d52c486db13f73",
          "transactionIndex": "0xd",
          "logIndex": "0x11",
          "removed": false
        },
        {
          "address": "0xcc1ae8Cf5D3904Cef3360A9532B477529b177cCE",
          "topics": [
            "0x07ea52d82345d6e838192107d8fd7123d9c2ec8e916cd0aad13fd2b60db24644"
          ],
          "data": "0x000000000000000000000000000000000000000000000000000000000000006000000000000000000000000000000000000000000000000000000000000000a000000000000000000000000000000000000000000000000000000000000000c000000000000000000000000000000000000000000000000000000000000000010000000000000000000000008eebf8b423b73bfca51a1db4b7354aa0bfca919300000000000000000000000000000000000000000000000000000000000000000000000000000000000000000000000000000000000000000000000000000001000000000000000000000000000000000000000000000000000088fae24f8600",
          "blockHash": "0x7f859c01fcb05e73bd6d5d662716c381dceccb6c8eef5f121ce568b5729c10f2",
          "blockNumber": "0x559d2a",
          "transactionHash": "0x51139de93c20a442206156f2d0a3ed5844dbadb1b1fe6156d1d52c486db13f73",
          "transactionIndex": "0xd",
          "logIndex": "0x12",
          "removed": false
        },
        {
          "address": "0x6EDCE65403992e310A62460808c4b910D972f10f",
          "topics": [
            "0x1ab700d4ced0c005b164c0f789fd09fcbb0156d4c2041b8a3bfbcd961cd1567f"
          ],
          "data": "0x00000000000000000000000000000000000000000000000000000000000000600000000000000000000000000000000000000000000000000000000000000200000000000000000000000000cc1ae8cf5d3904cef3360a9532b477529b177cce000000000000000000000000000000000000000000000000000000000000017101000000000000000200009ce100000000000000000000000018f786ae5fb1639baa4fce4b8f29c783949a66a800009d2700000000000000000000000003d9842e73b061ac6e20b7376fe3feedf55bc71a0ecc941de69af676963ffaec3aa4f3924ff6955a752e8011bdb81a27242ba388000000000000000000000000de05a1abb121113a33eed248bd91ddc254d5e9db0000000000000000000000000000000000000000000000000000000000000040000000000000000000000000000000000000000000000000000000000000000500000000000000000000000000000000000000000000000000000000000000010000000000000000000000000000000000000000000000000000000000000002000000000000000000000000000000000000000000000000000000000000000300000000000000000000000000000000000000000000000000000000000000040000000000000000000000000000000000000000000000000000000000000005000000000000000000000000000000000000000000000000000000000000000000000000000000000000000000001600030100110100000000000000000000000000026a8e00000000000000000000",
          "blockHash": "0x7f859c01fcb05e73bd6d5d662716c381dceccb6c8eef5f121ce568b5729c10f2",
          "blockNumber": "0x559d2a",
          "transactionHash": "0x51139de93c20a442206156f2d0a3ed5844dbadb1b1fe6156d1d52c486db13f73",
          "transactionIndex": "0xd",
          "logIndex": "0x13",
          "removed": false
        }
      ],
      "status": "0x1",
      "logsBloom": "0x04000000000000000000000000000000000000000000000000100000020100000000000008000000200000000000000000000000020000000000000000040000000010000000000000000008000000000000002000040000000000210008000008000000000000008200000000000010000000040000004000000010000000000000002000000020000000080000001000000800000000200000000000000000000000008000000000100100000000000000000000c00000002440000000400000000002000000000000000000000000000000088000000008001100000040000000040020000000000000000000002000000000008000000000800000000020",
      "type": "0x2",
      "effectiveGasPrice": "0xb2d08a93"
    }
  ],
  "libraries": [],
  "pending": [],
  "returns": {},
  "timestamp": 1712030511,
  "chain": 11155111,
  "commit": "38d1422"
}