{
  "transactions": [
    {
      "hash": "0xf7abd4e5c24af745ce915593a60cf2b2c85826117b237661af4c4e449979e07e",
      "transactionType": "CALL",
      "contractName": "NftLocker",
      "contractAddress": "0x18F786AE5Fb1639BAa4fcE4B8F29c783949a66A8",
      "function": "setPeer(uint32,bytes32)",
      "arguments": [
        "40231",
        "0x00000000000000000000000003d9842e73b061ac6e20b7376fe3feedf55bc71a"
      ],
      "transaction": {
        "type": "0x02",
        "from": "0xde05a1abb121113a33eed248bd91ddc254d5e9db",
        "to": "0x18f786ae5fb1639baa4fce4b8f29c783949a66a8",
        "gas": "0x10169",
        "value": "0x0",
        "data": "0x3400288b0000000000000000000000000000000000000000000000000000000000009d2700000000000000000000000003d9842e73b061ac6e20b7376fe3feedf55bc71a",
        "nonce": "0x142",
        "accessList": []
      },
      "additionalContracts": [],
      "isFixedGasLimit": false
    }
  ],
  "receipts": [
    {
      "transactionHash": "0xf7abd4e5c24af745ce915593a60cf2b2c85826117b237661af4c4e449979e07e",
      "transactionIndex": "0x2",
      "blockHash": "0x0f579900a2b6967158ed6f5913c1235fa55a1541469400541e3034e6a2c812fc",
      "blockNumber": "0x559ce3",
      "from": "0xdE05a1Abb121113a33eeD248BD91ddC254d5E9Db",
      "to": "0x18F786AE5Fb1639BAa4fcE4B8F29c783949a66A8",
      "cumulativeGasUsed": "0x19196",
      "gasUsed": "0xba5d",
      "contractAddress": null,
      "logs": [
        {
          "address": "0x18F786AE5Fb1639BAa4fcE4B8F29c783949a66A8",
          "topics": [
            "0x238399d427b947898edb290f5ff0f9109849b1c3ba196a42e35f00c50a54b98b"
          ],
          "data": "0x0000000000000000000000000000000000000000000000000000000000009d2700000000000000000000000003d9842e73b061ac6e20b7376fe3feedf55bc71a",
          "blockHash": "0x0f579900a2b6967158ed6f5913c1235fa55a1541469400541e3034e6a2c812fc",
          "blockNumber": "0x559ce3",
          "transactionHash": "0xf7abd4e5c24af745ce915593a60cf2b2c85826117b237661af4c4e449979e07e",
          "transactionIndex": "0x2",
          "logIndex": "0x1",
          "removed": false
        }
      ],
      "status": "0x1",
      "logsBloom": "0x00000000000000000000000000000000000000000000000000000000020000000000000000000000000000000000000000000000000000000800000000000000000000000000000000000000000000000000002000000000000000000000000000000000000000000000000000000000000000000000000000000000000000000000000000000000000000000000000000000000000000000000000000000000000000000000000000000000000000000000000000000000000002000000000000000000000000000000000000000000000000000000000000040100000000000000000000000000000000000000000000000000000000000000000000000000",
      "type": "0x2",
      "effectiveGasPrice": "0xb2d08cec"
    }
  ],
  "libraries": [],
  "pending": [],
  "returns": {},
  "timestamp": 1712029656,
  "chain": 11155111,
  "commit": "38d1422"
}