{
  "transactions": [
    {
      "hash": "0x7d88d92f7f7a8eba9268a5596554abb0b8c623f5b2be751a931e906ada8aef02",
      "transactionType": "CALL",
      "contractName": "MockNft",
      "contractAddress": "0x3bACB53a7f5Eda5A784127aa0E9C1b3812B1b7a6",
      "function": "mint(uint256)",
      "arguments": [
        "0"
      ],
      "transaction": {
        "type": "0x02",
        "from": "0xde05a1abb121113a33eed248bd91ddc254d5e9db",
        "to": "0x3bacb53a7f5eda5a784127aa0e9c1b3812b1b7a6",
        "gas": "0x16fdd",
        "value": "0x0",
        "data": "0xa0712d680000000000000000000000000000000000000000000000000000000000000000",
        "nonce": "0x135",
        "accessList": []
      },
      "additionalContracts": [],
      "isFixedGasLimit": false
    },
    {
      "hash": "0xced018874d5b6101719ba56df2bffe468cbeac95acb88716323d393ab110a1bf",
      "transactionType": "CALL",
      "contractName": "MockNft",
      "contractAddress": "0x3bACB53a7f5Eda5A784127aa0E9C1b3812B1b7a6",
      "function": "setApprovalForAll(address,bool)",
      "arguments": [
        "0xb3C3bd52354857C40909333219C0dC7925AaCB65",
        "true"
      ],
      "transaction": {
        "type": "0x02",
        "from": "0xde05a1abb121113a33eed248bd91ddc254d5e9db",
        "to": "0x3bacb53a7f5eda5a784127aa0e9c1b3812b1b7a6",
        "gas": "0xf89d",
        "value": "0x0",
        "data": "0xa22cb465000000000000000000000000b3c3bd52354857c40909333219c0dc7925aacb650000000000000000000000000000000000000000000000000000000000000001",
        "nonce": "0x136",
        "accessList": []
      },
      "additionalContracts": [],
      "isFixedGasLimit": false
    },
    {
      "hash": "0x02110c8913b139775f96f3cbe1f1aceb837cbb2654bc236b83b6ed86ad0d0f1d",
      "transactionType": "CALL",
      "contractName": "NftLocker",
      "contractAddress": "0xb3C3bd52354857C40909333219C0dC7925AaCB65",
      "function": "lock(uint256[])",
      "arguments": [
        "[0]"
      ],
      "transaction": {
        "type": "0x02",
        "from": "0xde05a1abb121113a33eed248bd91ddc254d5e9db",
        "to": "0xb3c3bd52354857c40909333219c0dc7925aacb65",
        "gas": "0x73676",
        "value": "0x4a644a12cfb2",
        "data": "0x859610c6000000000000000000000000000000000000000000000000000000000000002000000000000000000000000000000000000000000000000000000000000000010000000000000000000000000000000000000000000000000000000000000000",
        "nonce": "0x137",
        "accessList": []
      },
      "additionalContracts": [],
      "isFixedGasLimit": false
    }
  ],
  "receipts": [
    {
      "transactionHash": "0x7d88d92f7f7a8eba9268a5596554abb0b8c623f5b2be751a931e906ada8aef02",
      "transactionIndex": "0x19",
      "blockHash": "0x17194ba336d13b55d648f57031d13902434be52677f8c578d0a56348a40fc0eb",
      "blockNumber": "0x5505f1",
      "from": "0xdE05a1Abb121113a33eeD248BD91ddC254d5E9Db",
      "to": "0x3bACB53a7f5Eda5A784127aa0E9C1b3812B1b7a6",
      "cumulativeGasUsed": "0x30daa6",
      "gasUsed": "0x10a54",
      "contractAddress": null,
      "logs": [
        {
          "address": "0x3bACB53a7f5Eda5A784127aa0E9C1b3812B1b7a6",
          "topics": [
            "0xddf252ad1be2c89b69c2b068fc378daa952ba7f163c4a11628f55a4df523b3ef",
            "0x0000000000000000000000000000000000000000000000000000000000000000",
            "0x000000000000000000000000de05a1abb121113a33eed248bd91ddc254d5e9db",
            "0x0000000000000000000000000000000000000000000000000000000000000000"
          ],
          "data": "0x",
          "blockHash": "0x17194ba336d13b55d648f57031d13902434be52677f8c578d0a56348a40fc0eb",
          "blockNumber": "0x5505f1",
          "transactionHash": "0x7d88d92f7f7a8eba9268a5596554abb0b8c623f5b2be751a931e906ada8aef02",
          "transactionIndex": "0x19",
          "logIndex": "0xf",
          "removed": false
        }
      ],
      "status": "0x1",
      "logsBloom": "0x00000000000000000000000000000000000000000000000000100000000000000000000000000000000000000000000000000000000000000000000000000000000000000000000000000008000000000000000000000000000000000000000000000000020000000000000000000800000000000000004000000010000000000000000000000020000000000000000000000000000000000000000000000000000000800000000000000000000000000000000000000000000000000000000000000002080000000000000000000000000000000000000000000000000020000000000000010000000000000000000000000000000000000000000000000000",
      "type": "0x2",
      "effectiveGasPrice": "0xc8838bbe"
    },
    {
      "transactionHash": "0xced018874d5b6101719ba56df2bffe468cbeac95acb88716323d393ab110a1bf",
      "transactionIndex": "0x1a",
      "blockHash": "0x17194ba336d13b55d648f57031d13902434be52677f8c578d0a56348a40fc0eb",
      "blockNumber": "0x5505f1",
      "from": "0xdE05a1Abb121113a33eeD248BD91ddC254d5E9Db",
      "to": "0x3bACB53a7f5Eda5A784127aa0E9C1b3812B1b7a6",
      "cumulativeGasUsed": "0x318ea5",
      "gasUsed": "0xb3ff",
      "contractAddress": null,
      "logs": [
        {
          "address": "0x3bACB53a7f5Eda5A784127aa0E9C1b3812B1b7a6",
          "topics": [
            "0x17307eab39ab6107e8899845ad3d59bd9653f200f220920489ca2b5937696c31",
            "0x000000000000000000000000de05a1abb121113a33eed248bd91ddc254d5e9db",
            "0x000000000000000000000000b3c3bd52354857c40909333219c0dc7925aacb65"
          ],
          "data": "0x0000000000000000000000000000000000000000000000000000000000000001",
          "blockHash": "0x17194ba336d13b55d648f57031d13902434be52677f8c578d0a56348a40fc0eb",
          "blockNumber": "0x5505f1",
          "transactionHash": "0xced018874d5b6101719ba56df2bffe468cbeac95acb88716323d393ab110a1bf",
          "transactionIndex": "0x1a",
          "logIndex": "0x10",
          "removed": false
        }
      ],
      "status": "0x1",
      "logsBloom": "0x00000000000000000000000000000000000000000000000000100000000000000000000000000000000000000000000000000000000000000000000000000000000000000000000000200000000000000000000000000000000000000000000002000000000000000000000000000000000000000000004000000000000000000000000000000020000000000000000000000000000000000000000000000000000000800000000000000000000000000000000000000000000000000000000000000000080000000000000000000000000000000000000000000000000000000000200800010020000000000000000000000000000000000000000400000000",
      "type": "0x2",
      "effectiveGasPrice": "0xc8838bbe"
    },
    {
      "transactionHash": "0x02110c8913b139775f96f3cbe1f1aceb837cbb2654bc236b83b6ed86ad0d0f1d",
      "transactionIndex": "0x1b",
      "blockHash": "0x17194ba336d13b55d648f57031d13902434be52677f8c578d0a56348a40fc0eb",
      "blockNumber": "0x5505f1",
      "from": "0xdE05a1Abb121113a33eeD248BD91ddC254d5E9Db",
      "to": "0xb3C3bd52354857C40909333219C0dC7925AaCB65",
      "cumulativeGasUsed": "0x367d2f",
      "gasUsed": "0x4ee8a",
      "contractAddress": null,
      "logs": [
        {
          "address": "0xb3C3bd52354857C40909333219C0dC7925AaCB65",
          "topics": [
            "0xc1f9295331f5b6b03bfcca16fd4fdcdefaf753e2624cc44e8cdf97bd53d72f8c",
            "0x000000000000000000000000de05a1abb121113a33eed248bd91ddc254d5e9db",
            "0x0000000000000000000000000000000000000000000000000000000000000000"
          ],
          "data": "0x",
          "blockHash": "0x17194ba336d13b55d648f57031d13902434be52677f8c578d0a56348a40fc0eb",
          "blockNumber": "0x5505f1",
          "transactionHash": "0x02110c8913b139775f96f3cbe1f1aceb837cbb2654bc236b83b6ed86ad0d0f1d",
          "transactionIndex": "0x1b",
          "logIndex": "0x11",
          "removed": false
        },
        {
          "address": "0x3bACB53a7f5Eda5A784127aa0E9C1b3812B1b7a6",
          "topics": [
            "0xddf252ad1be2c89b69c2b068fc378daa952ba7f163c4a11628f55a4df523b3ef",
            "0x000000000000000000000000de05a1abb121113a33eed248bd91ddc254d5e9db",
            "0x000000000000000000000000b3c3bd52354857c40909333219c0dc7925aacb65",
            "0x0000000000000000000000000000000000000000000000000000000000000000"
          ],
          "data": "0x",
          "blockHash": "0x17194ba336d13b55d648f57031d13902434be52677f8c578d0a56348a40fc0eb",
          "blockNumber": "0x5505f1",
          "transactionHash": "0x02110c8913b139775f96f3cbe1f1aceb837cbb2654bc236b83b6ed86ad0d0f1d",
          "transactionIndex": "0x1b",
          "logIndex": "0x12",
          "removed": false
        },
        {
          "address": "0xcc1ae8Cf5D3904Cef3360A9532B477529b177cCE",
          "topics": [
            "0x61ed099e74a97a1d7f8bb0952a88ca8b7b8ebd00c126ea04671f92a81213318a"
          ],
          "data": "0x000000000000000000000000718b92b5cb0a5552039b593faf724d182a881eda00000000000000000000000000000000000000000000000000003ef0c3e98861",
          "blockHash": "0x17194ba336d13b55d648f57031d13902434be52677f8c578d0a56348a40fc0eb",
          "blockNumber": "0x5505f1",
          "transactionHash": "0x02110c8913b139775f96f3cbe1f1aceb837cbb2654bc236b83b6ed86ad0d0f1d",
          "transactionIndex": "0x1b",
          "logIndex": "0x13",
          "removed": false
        },
        {
          "address": "0xcc1ae8Cf5D3904Cef3360A9532B477529b177cCE",
          "topics": [
            "0x07ea52d82345d6e838192107d8fd7123d9c2ec8e916cd0aad13fd2b60db24644"
          ],
          "data": "0x000000000000000000000000000000000000000000000000000000000000006000000000000000000000000000000000000000000000000000000000000000a000000000000000000000000000000000000000000000000000000000000000c000000000000000000000000000000000000000000000000000000000000000010000000000000000000000008eebf8b423b73bfca51a1db4b7354aa0bfca91930000000000000000000000000000000000000000000000000000000000000000000000000000000000000000000000000000000000000000000000000000000100000000000000000000000000000000000000000000000000000b7386294751",
          "blockHash": "0x17194ba336d13b55d648f57031d13902434be52677f8c578d0a56348a40fc0eb",
          "blockNumber": "0x5505f1",
          "transactionHash": "0x02110c8913b139775f96f3cbe1f1aceb837cbb2654bc236b83b6ed86ad0d0f1d",
          "transactionIndex": "0x1b",
          "logIndex": "0x14",
          "removed": false
        },
        {
          "address": "0x6EDCE65403992e310A62460808c4b910D972f10f",
          "topics": [
            "0x1ab700d4ced0c005b164c0f789fd09fcbb0156d4c2041b8a3bfbcd961cd1567f"
          ],
          "data": "0x00000000000000000000000000000000000000000000000000000000000000600000000000000000000000000000000000000000000000000000000000000180000000000000000000000000cc1ae8cf5d3904cef3360a9532b477529b177cce00000000000000000000000000000000000000000000000000000000000000f101000000000000000100009ce1000000000000000000000000b3c3bd52354857c40909333219c0dc7925aacb6500009d27000000000000000000000000aace57a9300afb8e32b1240de0c74432e085474cb3a44c20653cf8dd55add6c9bb3e3709e9176ee0038c4c40d80be203afeaa0f2000000000000000000000000de05a1abb121113a33eed248bd91ddc254d5e9db00000000000000000000000000000000000000000000000000000000000000400000000000000000000000000000000000000000000000000000000000000001000000000000000000000000000000000000000000000000000000000000000000000000000000000000000000000000000000000000000000000000000000000000000000000000000000000000160003010011010000000000000000000000000000caee00000000000000000000",
          "blockHash": "0x17194ba336d13b55d648f57031d13902434be52677f8c578d0a56348a40fc0eb",
          "blockNumber": "0x5505f1",
          "transactionHash": "0x02110c8913b139775f96f3cbe1f1aceb837cbb2654bc236b83b6ed86ad0d0f1d",
          "transactionIndex": "0x1b",
          "logIndex": "0x15",
          "removed": false
        }
      ],
      "status": "0x1",
      "logsBloom": "0x00000000000000000000040000000000000000000000000000100000000100000000000000000000200000000000000000000000000000000000000000000000000000000000000000200408000000000000000000000000000000000000000000000000020000008200000000000800000020000000004000000010000000000000000000000028000000080000000000000000000000000000000000000000000000808000000000100000000000000000000000400000000448000000000000000002080000000000000000000000000000080000000000000000000020000000040000010020000000000000002020000000000000000000000400000020",
      "type": "0x2",
      "effectiveGasPrice": "0xc8838bbe"
    }
  ],
  "libraries": [],
  "pending": [],
  "returns": {},
  "timestamp": 1711550344,
  "chain": 11155111,
  "commit": "09f9777"
}