{
  "transactions": [
    {
      "hash": "0xe698a814f45f938cd824daaa6e8a1b7e605e4d3b046705ff216d33d441ab4690",
      "transactionType": "CALL",
      "contractName": null,
      "contractAddress": "0x10df7f2487c4f3c8038e440bb6566ea11e342e38",
      "function": "setPeer(uint32,bytes32)",
      "arguments": [
        "40245",
        "0x000000000000000000000000284c14ba977714f4d1904f6c65e4e5a4c27696c2"
      ],
      "transaction": {
        "from": "0x8c9c001f821c04513616fd7962b2d8c62f925fd2",
        "to": "0x10df7f2487c4f3c8038e440bb6566ea11e342e38",
        "gas": "0x104a9",
        "value": "0x0",
        "input": "0x3400288b0000000000000000000000000000000000000000000000000000000000009d35000000000000000000000000284c14ba977714f4d1904f6c65e4e5a4c27696c2",
        "nonce": "0x79",
        "chainId": "0xaa36a7"
      },
      "additionalContracts": [],
      "isFixedGasLimit": false
    }
  ],
  "receipts": [
    {
      "status": "0x1",
      "cumulativeGasUsed": "0xd2c0a4",
      "logs": [
        {
          "address": "0x10df7f2487c4f3c8038e440bb6566ea11e342e38",
          "topics": [
            "0x238399d427b947898edb290f5ff0f9109849b1c3ba196a42e35f00c50a54b98b"
          ],
          "data": "0x0000000000000000000000000000000000000000000000000000000000009d35000000000000000000000000284c14ba977714f4d1904f6c65e4e5a4c27696c2",
          "blockHash": "0x4fd08d3de6db194ecb173bfeb7d67c892e2e2eac05b5206acc5cf028e8c9267d",
          "blockNumber": "0x783a64",
          "blockTimestamp": "0x67cff9f8",
          "transactionHash": "0xe698a814f45f938cd824daaa6e8a1b7e605e4d3b046705ff216d33d441ab4690",
          "transactionIndex": "0xc2",
          "logIndex": "0x104",
          "removed": false
        }
      ],
      "logsBloom": "0x00000000000000000008000000000000000000000000000000000000000000000000000000000000000000000000000000000000000000000800000000000000000000000000000000000000000000000000000000000000000000000000000000000000000000000000000000000000000000000000000000000080000000000000000000000000000020000000000000000000000000000000000000000000000000000000000000000000000000000000000000000000000002000000000000000000000000000000000000000000000000000000000000040000000000000000000000000000000000000000000000000000000000000000000000000000",
      "type": "0x2",
      "transactionHash": "0xe698a814f45f938cd824daaa6e8a1b7e605e4d3b046705ff216d33d441ab4690",
      "transactionIndex": "0xc2",
      "blockHash": "0x4fd08d3de6db194ecb173bfeb7d67c892e2e2eac05b5206acc5cf028e8c9267d",
      "blockNumber": "0x783a64",
      "gasUsed": "0xbcb7",
      "effectiveGasPrice": "0x15acfe8e",
      "from": "0x8c9c001f821c04513616fd7962b2d8c62f925fd2",
      "to": "0x10df7f2487c4f3c8038e440bb6566ea11e342e38",
      "contractAddress": null
    }
  ],
  "libraries": [],
  "pending": [],
  "returns": {},
  "timestamp": 1741683192,
  "chain": 11155111,
  "commit": "0f486f24"
}