{
  "transactions": [
    {
      "hash": "0xce888ce5225e74c61d0950882a3d006bf530f23462ff32568118fae6c67766f5",
      "transactionType": "CALL",
      "contractName": "NftLocker",
      "contractAddress": "0xb3C3bd52354857C40909333219C0dC7925AaCB65",
      "function": "setPeer(uint32,bytes32)",
      "arguments": [
        "40231",
        "0x000000000000000000000000aace57a9300afb8e32b1240de0c74432e085474c"
      ],
      "transaction": {
        "type": "0x02",
        "from": "0xde05a1abb121113a33eed248bd91ddc254d5e9db",
        "to": "0xb3c3bd52354857c40909333219c0dc7925aacb65",
        "gas": "0x10169",
        "value": "0x0",
        "data": "0x3400288b0000000000000000000000000000000000000000000000000000000000009d27000000000000000000000000aace57a9300afb8e32b1240de0c74432e085474c",
        "nonce": "0x134",
        "accessList": []
      },
      "additionalContracts": [],
      "isFixedGasLimit": false
    }
  ],
  "receipts": [
    {
      "transactionHash": "0xce888ce5225e74c61d0950882a3d006bf530f23462ff32568118fae6c67766f5",
      "transactionIndex": "0x1b",
      "blockHash": "0x648160ffb7468faaa7a3e75ebd944b2b65694b2fef55dcedf615d56dc3288eee",
      "blockNumber": "0x5505ad",
      "from": "0xdE05a1Abb121113a33eeD248BD91ddC254d5E9Db",
      "to": "0xb3C3bd52354857C40909333219C0dC7925AaCB65",
      "cumulativeGasUsed": "0x156b34",
      "gasUsed": "0xba5d",
      "contractAddress": null,
      "logs": [
        {
          "address": "0xb3C3bd52354857C40909333219C0dC7925AaCB65",
          "topics": [
            "0x238399d427b947898edb290f5ff0f9109849b1c3ba196a42e35f00c50a54b98b"
          ],
          "data": "0x0000000000000000000000000000000000000000000000000000000000009d27000000000000000000000000aace57a9300afb8e32b1240de0c74432e085474c",
          "blockHash": "0x648160ffb7468faaa7a3e75ebd944b2b65694b2fef55dcedf615d56dc3288eee",
          "blockNumber": "0x5505ad",
          "transactionHash": "0xce888ce5225e74c61d0950882a3d006bf530f23462ff32568118fae6c67766f5",
          "transactionIndex": "0x1b",
          "logIndex": "0x14",
          "removed": false
        }
      ],
      "status": "0x1",
      "logsBloom": "0x00000000000000000000000000000000000000000000000000000000000000000000000000000000000000000000000000000000000000000800000000000000000000000000000000000400000000000000000000000000000000000000000000000000000000000000000000000000000000000000000000000000000000000000000000000008000000000000000000000000000000000000000000000000000000000000000000000000000000000000000000000000000002000000000000000000000000000000000000000000000000000000000000040000000000000000000000000000000000000000000020000000000000000000000000000000",
      "type": "0x2",
      "effectiveGasPrice": "0x1586c72e0"
    }
  ],
  "libraries": [],
  "pending": [],
  "returns": {},
  "timestamp": 1711549500,
  "chain": 11155111,
  "commit": "09f9777"
}