{
  "transactions": [
    {
      "hash": "0xa52b2512f8cfef8e5146d6ca1bf864b83482f391307cfc236f47f90e78c665aa",
      "transactionType": "CALL",
      "contractName": "MockNft",
      "contractAddress": "0x3bACB53a7f5Eda5A784127aa0E9C1b3812B1b7a6",
      "function": "mint(uint256)",
      "arguments": [
        "1"
      ],
      "transaction": {
        "type": "0x02",
        "from": "0xde05a1abb121113a33eed248bd91ddc254d5e9db",
        "to": "0x3bacb53a7f5eda5a784127aa0e9c1b3812b1b7a6",
        "gas": "0x113aa",
        "value": "0x0",
        "data": "0xa0712d680000000000000000000000000000000000000000000000000000000000000001",
        "nonce": "0x138",
        "accessList": []
      },
      "additionalContracts": [],
      "isFixedGasLimit": false
    },
    {
      "hash": "0xb7a8a834168b516613b039aec2a405b89aca5e95a9339b739081e2bd357a79a7",
      "transactionType": "CALL",
      "contractName": "MockNft",
      "contractAddress": "0x3bACB53a7f5Eda5A784127aa0E9C1b3812B1b7a6",
      "function": "mint(uint256)",
      "arguments": [
        "2"
      ],
      "transaction": {
        "type": "0x02",
        "from": "0xde05a1abb121113a33eed248bd91ddc254d5e9db",
        "to": "0x3bacb53a7f5eda5a784127aa0e9c1b3812b1b7a6",
        "gas": "0x113aa",
        "value": "0x0",
        "data": "0xa0712d680000000000000000000000000000000000000000000000000000000000000002",
        "nonce": "0x139",
        "accessList": []
      },
      "additionalContracts": [],
      "isFixedGasLimit": false
    },
    {
      "hash": "0x3da8398aa6e1626315ac3c50e5107a0c518045f14a68064a2bac937b7cc12bf3",
      "transactionType": "CALL",
      "contractName": "MockNft",
      "contractAddress": "0x3bACB53a7f5Eda5A784127aa0E9C1b3812B1b7a6",
      "function": "mint(uint256)",
      "arguments": [
        "3"
      ],
      "transaction": {
        "type": "0x02",
        "from": "0xde05a1abb121113a33eed248bd91ddc254d5e9db",
        "to": "0x3bacb53a7f5eda5a784127aa0e9c1b3812b1b7a6",
        "gas": "0x113aa",
        "value": "0x0",
        "data": "0xa0712d680000000000000000000000000000000000000000000000000000000000000003",
        "nonce": "0x13a",
        "accessList": []
      },
      "additionalContracts": [],
      "isFixedGasLimit": false
    },
    {
      "hash": "0x74d9d5531e2bfe6e3c443e2aab95bd271a14826cbf26acedeb0e3537debda352",
      "transactionType": "CALL",
      "contractName": "MockNft",
      "contractAddress": "0x3bACB53a7f5Eda5A784127aa0E9C1b3812B1b7a6",
      "function": "mint(uint256)",
      "arguments": [
        "4"
      ],
      "transaction": {
        "type": "0x02",
        "from": "0xde05a1abb121113a33eed248bd91ddc254d5e9db",
        "to": "0x3bacb53a7f5eda5a784127aa0e9c1b3812b1b7a6",
        "gas": "0x113aa",
        "value": "0x0",
        "data": "0xa0712d680000000000000000000000000000000000000000000000000000000000000004",
        "nonce": "0x13b",
        "accessList": []
      },
      "additionalContracts": [],
      "isFixedGasLimit": false
    },
    {
      "hash": "0xd2f08971cf076d2dd06094202397b8f66374888b509ade5221428529975d564b",
      "transactionType": "CALL",
      "contractName": "MockNft",
      "contractAddress": "0x3bACB53a7f5Eda5A784127aa0E9C1b3812B1b7a6",
      "function": "mint(uint256)",
      "arguments": [
        "5"
      ],
      "transaction": {
        "type": "0x02",
        "from": "0xde05a1abb121113a33eed248bd91ddc254d5e9db",
        "to": "0x3bacb53a7f5eda5a784127aa0e9c1b3812b1b7a6",
        "gas": "0x113aa",
        "value": "0x0",
        "data": "0xa0712d680000000000000000000000000000000000000000000000000000000000000005",
        "nonce": "0x13c",
        "accessList": []
      },
      "additionalContracts": [],
      "isFixedGasLimit": false
    },
    {
      "hash": "0x56fbda05462a758404a05957c0507e79f8a74f35d6e4f4f3e43a11789f3dd8e1",
      "transactionType": "CALL",
      "contractName": "MockNft",
      "contractAddress": "0x3bACB53a7f5Eda5A784127aa0E9C1b3812B1b7a6",
      "function": "setApprovalForAll(address,bool)",
      "arguments": [
        "0xb3C3bd52354857C40909333219C0dC7925AaCB65",
        "true"
      ],
      "transaction": {
        "type": "0x02",
        "from": "0xde05a1abb121113a33eed248bd91ddc254d5e9db",
        "to": "0x3bacb53a7f5eda5a784127aa0e9c1b3812b1b7a6",
        "gas": "0x958e",
        "value": "0x0",
        "data": "0xa22cb465000000000000000000000000b3c3bd52354857c40909333219c0dc7925aacb650000000000000000000000000000000000000000000000000000000000000001",
        "nonce": "0x13d",
        "accessList": []
      },
      "additionalContracts": [],
      "isFixedGasLimit": false
    },
    {
      "hash": "0x95cfc5dea2d5fcc952091f47b9380bf69f3aac9d6b2d9ca60be0baff8b843d35",
      "transactionType": "CALL",
      "contractName": "NftLocker",
      "contractAddress": "0xb3C3bd52354857C40909333219C0dC7925AaCB65",
      "function": "lock(uint256[])",
      "arguments": [
        "[1, 2, 3, 4, 5]"
      ],
      "transaction": {
        "type": "0x02",
        "from": "0xde05a1abb121113a33eed248bd91ddc254d5e9db",
        "to": "0xb3c3bd52354857c40909333219c0dc7925aacb65",
        "gas": "0x9a495",
        "value": "0x54414a866fb2",
        "data": "0x859610c60000000000000000000000000000000000000000000000000000000000000020000000000000000000000000000000000000000000000000000000000000000500000000000000000000000000000000000000000000000000000000000000010000000000000000000000000000000000000000000000000000000000000002000000000000000000000000000000000000000000000000000000000000000300000000000000000000000000000000000000000000000000000000000000040000000000000000000000000000000000000000000000000000000000000005",
        "nonce": "0x13e",
        "accessList": []
      },
      "additionalContracts": [],
      "isFixedGasLimit": false
    }
  ],
  "receipts": [
    {
      "transactionHash": "0xa52b2512f8cfef8e5146d6ca1bf864b83482f391307cfc236f47f90e78c665aa",
      "transactionIndex": "0x9",
      "blockHash": "0x94d73dcd28a3474c42874987890000999a6331672f7e4de274befbc2de8522ed",
      "blockNumber": "0x550651",
      "from": "0xdE05a1Abb121113a33eeD248BD91ddC254d5E9Db",
      "to": "0x3bACB53a7f5Eda5A784127aa0E9C1b3812B1b7a6",
      "cumulativeGasUsed": "0xa8590",
      "gasUsed": "0xc794",
      "contractAddress": null,
      "logs": [
        {
          "address": "0x3bACB53a7f5Eda5A784127aa0E9C1b3812B1b7a6",
          "topics": [
            "0xddf252ad1be2c89b69c2b068fc378daa952ba7f163c4a11628f55a4df523b3ef",
            "0x0000000000000000000000000000000000000000000000000000000000000000",
            "0x000000000000000000000000de05a1abb121113a33eed248bd91ddc254d5e9db",
            "0x0000000000000000000000000000000000000000000000000000000000000001"
          ],
          "data": "0x",
          "blockHash": "0x94d73dcd28a3474c42874987890000999a6331672f7e4de274befbc2de8522ed",
          "blockNumber": "0x550651",
          "transactionHash": "0xa52b2512f8cfef8e5146d6ca1bf864b83482f391307cfc236f47f90e78c665aa",
          "transactionIndex": "0x9",
          "logIndex": "0x5",
          "removed": false
        }
      ],
      "status": "0x1",
      "logsBloom": "0x00000000000000000000000000000000000000000000000000100000000000000000000000000000000000000000000000000000000000000000000000040000000000000000000000000008000000000000000000040000000000000000000000000000020000000000000000000800000000000000004000000010000000000000000000000020000000000000000000000000000000000000000000000000000000800000000000000000000000000000000000000000000000000000000000000002080000000000000000000000000000000000000000000000000060000000000000010000000000000000000000000000000000000000000000000000",
      "type": "0x2",
      "effectiveGasPrice": "0x109743c84"
    },
    {
      "transactionHash": "0xb7a8a834168b516613b039aec2a405b89aca5e95a9339b739081e2bd357a79a7",
      "transactionIndex": "0xa",
      "blockHash": "0x94d73dcd28a3474c42874987890000999a6331672f7e4de274befbc2de8522ed",
      "blockNumber": "0x550651",
      "from": "0xdE05a1Abb121113a33eeD248BD91ddC254d5E9Db",
      "to": "0x3bACB53a7f5Eda5A784127aa0E9C1b3812B1b7a6",
      "cumulativeGasUsed": "0xb4d24",
      "gasUsed": "0xc794",
      "contractAddress": null,
      "logs": [
        {
          "address": "0x3bACB53a7f5Eda5A784127aa0E9C1b3812B1b7a6",
          "topics": [
            "0xddf252ad1be2c89b69c2b068fc378daa952ba7f163c4a11628f55a4df523b3ef",
            "0x0000000000000000000000000000000000000000000000000000000000000000",
            "0x000000000000000000000000de05a1abb121113a33eed248bd91ddc254d5e9db",
            "0x0000000000000000000000000000000000000000000000000000000000000002"
          ],
          "data": "0x",
          "blockHash": "0x94d73dcd28a3474c42874987890000999a6331672f7e4de274befbc2de8522ed",
          "blockNumber": "0x550651",
          "transactionHash": "0xb7a8a834168b516613b039aec2a405b89aca5e95a9339b739081e2bd357a79a7",
          "transactionIndex": "0xa",
          "logIndex": "0x6",
          "removed": false
        }
      ],
      "status": "0x1",
      "logsBloom": "0x04000000000000000000000000000000000000000000000000100000000000000000000000000000000000000000000000000000000000000000000000000000000000000000000000000008000000000000000000000000000000000000000000000000020000000000000000000800000000000000004000000010000000000000000000000020000000000000000000000000000000000000000000000000000000800000000000000100000000000000000000000000000000000000000000000002080000000000000000000000000000000000000000000000000020000000000000010000000000000000000000000000008000000000000000000000",
      "type": "0x2",
      "effectiveGasPrice": "0x109743c84"
    },
    {
      "transactionHash": "0x3da8398aa6e1626315ac3c50e5107a0c518045f14a68064a2bac937b7cc12bf3",
      "transactionIndex": "0xb",
      "blockHash": "0x94d73dcd28a3474c42874987890000999a6331672f7e4de274befbc2de8522ed",
      "blockNumber": "0x550651",
      "from": "0xdE05a1Abb121113a33eeD248BD91ddC254d5E9Db",
      "to": "0x3bACB53a7f5Eda5A784127aa0E9C1b3812B1b7a6",
      "cumulativeGasUsed": "0xc14b8",
      "gasUsed": "0xc794",
      "contractAddress": null,
      "logs": [
        {
          "address": "0x3bACB53a7f5Eda5A784127aa0E9C1b3812B1b7a6",
          "topics": [
            "0xddf252ad1be2c89b69c2b068fc378daa952ba7f163c4a11628f55a4df523b3ef",
            "0x0000000000000000000000000000000000000000000000000000000000000000",
            "0x000000000000000000000000de05a1abb121113a33eed248bd91ddc254d5e9db",
            "0x0000000000000000000000000000000000000000000000000000000000000003"
          ],
          "data": "0x",
          "blockHash": "0x94d73dcd28a3474c42874987890000999a6331672f7e4de274befbc2de8522ed",
          "blockNumber": "0x550651",
          "transactionHash": "0x3da8398aa6e1626315ac3c50e5107a0c518045f14a68064a2bac937b7cc12bf3",
          "transactionIndex": "0xb",
          "logIndex": "0x7",
          "removed": false
        }
      ],
      "status": "0x1",
      "logsBloom": "0x00000000000000000000000000000000000000000000000000100000000000000000000000000000000000000000000000000000020000000000000000000000000000000000000000000008000000000000000000000000000000000000000000000000020000000000000000000800000000000000004000000010000000000000000000000020000000000000000000000000000000000000000000000000000000800000000000000000000000000000000000800000000000000000400000000002080000000000000000000000000000000000000000000000000020000000000000010000000000000000000000000000000000000000000000000000",
      "type": "0x2",
      "effectiveGasPrice": "0x109743c84"
    },
    {
      "transactionHash": "0x74d9d5531e2bfe6e3c443e2aab95bd271a14826cbf26acedeb0e3537debda352",
      "transactionIndex": "0xc",
      "blockHash": "0x94d73dcd28a3474c42874987890000999a6331672f7e4de274befbc2de8522ed",
      "blockNumber": "0x550651",
      "from": "0xdE05a1Abb121113a33eeD248BD91ddC254d5E9Db",
      "to": "0x3bACB53a7f5Eda5A784127aa0E9C1b3812B1b7a6",
      "cumulativeGasUsed": "0xcdc4c",
      "gasUsed": "0xc794",
      "contractAddress": null,
      "logs": [
        {
          "address": "0x3bACB53a7f5Eda5A784127aa0E9C1b3812B1b7a6",
          "topics": [
            "0xddf252ad1be2c89b69c2b068fc378daa952ba7f163c4a11628f55a4df523b3ef",
            "0x0000000000000000000000000000000000000000000000000000000000000000",
            "0x000000000000000000000000de05a1abb121113a33eed248bd91ddc254d5e9db",
            "0x0000000000000000000000000000000000000000000000000000000000000004"
          ],
          "data": "0x",
          "blockHash": "0x94d73dcd28a3474c42874987890000999a6331672f7e4de274befbc2de8522ed",
          "blockNumber": "0x550651",
          "transactionHash": "0x74d9d5531e2bfe6e3c443e2aab95bd271a14826cbf26acedeb0e3537debda352",
          "transactionIndex": "0xc",
          "logIndex": "0x8",
          "removed": false
        }
      ],
      "status": "0x1",
      "logsBloom": "0x00000000000000000000000000000000000000000000000000100000000000000000000000000000000000000000000000000000000000000000000000000000000000000000000000000008000000000000000000000000000000000000000008000000020000000000000000000800000000000000004000000010000000000000000000000020000000000000000000000000000000000000000000000000000000800000000000000000000000000000000000000000002000000000000000000002080000000000000000000000000000008000000000000000000020000000000000010000000000000000000000000000000000000000000000000000",
      "type": "0x2",
      "effectiveGasPrice": "0x109743c84"
    },
    {
      "transactionHash": "0xd2f08971cf076d2dd06094202397b8f66374888b509ade5221428529975d564b",
      "transactionIndex": "0xd",
      "blockHash": "0x94d73dcd28a3474c42874987890000999a6331672f7e4de274befbc2de8522ed",
      "blockNumber": "0x550651",
      "from": "0xdE05a1Abb121113a33eeD248BD91ddC254d5E9Db",
      "to": "0x3bACB53a7f5Eda5A784127aa0E9C1b3812B1b7a6",
      "cumulativeGasUsed": "0xda3e0",
      "gasUsed": "0xc794",
      "contractAddress": null,
      "logs": [
        {
          "address": "0x3bACB53a7f5Eda5A784127aa0E9C1b3812B1b7a6",
          "topics": [
            "0xddf252ad1be2c89b69c2b068fc378daa952ba7f163c4a11628f55a4df523b3ef",
            "0x0000000000000000000000000000000000000000000000000000000000000000",
            "0x000000000000000000000000de05a1abb121113a33eed248bd91ddc254d5e9db",
            "0x0000000000000000000000000000000000000000000000000000000000000005"
          ],
          "data": "0x",
          "blockHash": "0x94d73dcd28a3474c42874987890000999a6331672f7e4de274befbc2de8522ed",
          "blockNumber": "0x550651",
          "transactionHash": "0xd2f08971cf076d2dd06094202397b8f66374888b509ade5221428529975d564b",
          "transactionIndex": "0xd",
          "logIndex": "0x9",
          "removed": false
        }
      ],
      "status": "0x1",
      "logsBloom": "0x00000000000000000000000000000000000000000000000000100000000000000000000000000000000000000000000000000000000000000000000000000000000010000000000000000008000000000000000000000000000000000000000000000000020000000000000000000800000000000000004000000010000000000000000000000020000000000000001000000800000000000000000000000000000000800000000000000000000000000000000000000000000000000000000000000002080000000000000000000000000000000000000000000000000020000000000000010000000000000000000000000000000000000000000000000000",
      "type": "0x2",
      "effectiveGasPrice": "0x109743c84"
    },
    {
      "transactionHash": "0x56fbda05462a758404a05957c0507e79f8a74f35d6e4f4f3e43a11789f3dd8e1",
      "transactionIndex": "0xe",
      "blockHash": "0x94d73dcd28a3474c42874987890000999a6331672f7e4de274befbc2de8522ed",
      "blockNumber": "0x550651",
      "from": "0xdE05a1Abb121113a33eeD248BD91ddC254d5E9Db",
      "to": "0x3bACB53a7f5Eda5A784127aa0E9C1b3812B1b7a6",
      "cumulativeGasUsed": "0xe0a23",
      "gasUsed": "0x6643",
      "contractAddress": null,
      "logs": [
        {
          "address": "0x3bACB53a7f5Eda5A784127aa0E9C1b3812B1b7a6",
          "topics": [
            "0x17307eab39ab6107e8899845ad3d59bd9653f200f220920489ca2b5937696c31",
            "0x000000000000000000000000de05a1abb121113a33eed248bd91ddc254d5e9db",
            "0x000000000000000000000000b3c3bd52354857c40909333219c0dc7925aacb65"
          ],
          "data": "0x0000000000000000000000000000000000000000000000000000000000000001",
          "blockHash": "0x94d73dcd28a3474c42874987890000999a6331672f7e4de274befbc2de8522ed",
          "blockNumber": "0x550651",
          "transactionHash": "0x56fbda05462a758404a05957c0507e79f8a74f35d6e4f4f3e43a11789f3dd8e1",
          "transactionIndex": "0xe",
          "logIndex": "0xa",
          "removed": false
        }
      ],
      "status": "0x1",
      "logsBloom": "0x00000000000000000000000000000000000000000000000000100000000000000000000000000000000000000000000000000000000000000000000000000000000000000000000000200000000000000000000000000000000000000000000002000000000000000000000000000000000000000000004000000000000000000000000000000020000000000000000000000000000000000000000000000000000000800000000000000000000000000000000000000000000000000000000000000000080000000000000000000000000000000000000000000000000000000000200800010020000000000000000000000000000000000000000400000000",
      "type": "0x2",
      "effectiveGasPrice": "0x109743c84"
    },
    {
      "transactionHash": "0x95cfc5dea2d5fcc952091f47b9380bf69f3aac9d6b2d9ca60be0baff8b843d35",
      "transactionIndex": "0xf",
      "blockHash": "0x94d73dcd28a3474c42874987890000999a6331672f7e4de274befbc2de8522ed",
      "blockNumber": "0x550651",
      "from": "0xdE05a1Abb121113a33eeD248BD91ddC254d5E9Db",
      "to": "0xb3C3bd52354857C40909333219C0dC7925AaCB65",
      "cumulativeGasUsed": "0x150559",
      "gasUsed": "0x6fb36",
      "contractAddress": null,
      "logs": [
        {
          "address": "0xb3C3bd52354857C40909333219C0dC7925AaCB65",
          "topics": [
            "0xc1f9295331f5b6b03bfcca16fd4fdcdefaf753e2624cc44e8cdf97bd53d72f8c",
            "0x000000000000000000000000de05a1abb121113a33eed248bd91ddc254d5e9db",
            "0x0000000000000000000000000000000000000000000000000000000000000001"
          ],
          "data": "0x",
          "blockHash": "0x94d73dcd28a3474c42874987890000999a6331672f7e4de274befbc2de8522ed",
          "blockNumber": "0x550651",
          "transactionHash": "0x95cfc5dea2d5fcc952091f47b9380bf69f3aac9d6b2d9ca60be0baff8b843d35",
          "transactionIndex": "0xf",
          "logIndex": "0xb",
          "removed": false
        },
        {
          "address": "0x3bACB53a7f5Eda5A784127aa0E9C1b3812B1b7a6",
          "topics": [
            "0xddf252ad1be2c89b69c2b068fc378daa952ba7f163c4a11628f55a4df523b3ef",
            "0x000000000000000000000000de05a1abb121113a33eed248bd91ddc254d5e9db",
            "0x000000000000000000000000b3c3bd52354857c40909333219c0dc7925aacb65",
            "0x0000000000000000000000000000000000000000000000000000000000000001"
          ],
          "data": "0x",
          "blockHash": "0x94d73dcd28a3474c42874987890000999a6331672f7e4de274befbc2de8522ed",
          "blockNumber": "0x550651",
          "transactionHash": "0x95cfc5dea2d5fcc952091f47b9380bf69f3aac9d6b2d9ca60be0baff8b843d35",
          "transactionIndex": "0xf",
          "logIndex": "0xc",
          "removed": false
        },
        {
          "address": "0xb3C3bd52354857C40909333219C0dC7925AaCB65",
          "topics": [
            "0xc1f9295331f5b6b03bfcca16fd4fdcdefaf753e2624cc44e8cdf97bd53d72f8c",
            "0x000000000000000000000000de05a1abb121113a33eed248bd91ddc254d5e9db",
            "0x0000000000000000000000000000000000000000000000000000000000000002"
          ],
          "data": "0x",
          "blockHash": "0x94d73dcd28a3474c42874987890000999a6331672f7e4de274befbc2de8522ed",
          "blockNumber": "0x550651",
          "transactionHash": "0x95cfc5dea2d5fcc952091f47b9380bf69f3aac9d6b2d9ca60be0baff8b843d35",
          "transactionIndex": "0xf",
          "logIndex": "0xd",
          "removed": false
        },
        {
          "address": "0x3bACB53a7f5Eda5A784127aa0E9C1b3812B1b7a6",
          "topics": [
            "0xddf252ad1be2c89b69c2b068fc378daa952ba7f163c4a11628f55a4df523b3ef",
            "0x000000000000000000000000de05a1abb121113a33eed248bd91ddc254d5e9db",
            "0x000000000000000000000000b3c3bd52354857c40909333219c0dc7925aacb65",
            "0x0000000000000000000000000000000000000000000000000000000000000002"
          ],
          "data": "0x",
          "blockHash": "0x94d73dcd28a3474c42874987890000999a6331672f7e4de274befbc2de8522ed",
          "blockNumber": "0x550651",
          "transactionHash": "0x95cfc5dea2d5fcc952091f47b9380bf69f3aac9d6b2d9ca60be0baff8b843d35",
          "transactionIndex": "0xf",
          "logIndex": "0xe",
          "removed": false
        },
        {
          "address": "0xb3C3bd52354857C40909333219C0dC7925AaCB65",
          "topics": [
            "0xc1f9295331f5b6b03bfcca16fd4fdcdefaf753e2624cc44e8cdf97bd53d72f8c",
            "0x000000000000000000000000de05a1abb121113a33eed248bd91ddc254d5e9db",
            "0x0000000000000000000000000000000000000000000000000000000000000003"
          ],
          "data": "0x",
          "blockHash": "0x94d73dcd28a3474c42874987890000999a6331672f7e4de274befbc2de8522ed",
          "blockNumber": "0x550651",
          "transactionHash": "0x95cfc5dea2d5fcc952091f47b9380bf69f3aac9d6b2d9ca60be0baff8b843d35",
          "transactionIndex": "0xf",
          "logIndex": "0xf",
          "removed": false
        },
        {
          "address": "0x3bACB53a7f5Eda5A784127aa0E9C1b3812B1b7a6",
          "topics": [
            "0xddf252ad1be2c89b69c2b068fc378daa952ba7f163c4a11628f55a4df523b3ef",
            "0x000000000000000000000000de05a1abb121113a33eed248bd91ddc254d5e9db",
            "0x000000000000000000000000b3c3bd52354857c40909333219c0dc7925aacb65",
            "0x0000000000000000000000000000000000000000000000000000000000000003"
          ],
          "data": "0x",
          "blockHash": "0x94d73dcd28a3474c42874987890000999a6331672f7e4de274befbc2de8522ed",
          "blockNumber": "0x550651",
          "transactionHash": "0x95cfc5dea2d5fcc952091f47b9380bf69f3aac9d6b2d9ca60be0baff8b843d35",
          "transactionIndex": "0xf",
          "logIndex": "0x10",
          "removed": false
        },
        {
          "address": "0xb3C3bd52354857C40909333219C0dC7925AaCB65",
          "topics": [
            "0xc1f9295331f5b6b03bfcca16fd4fdcdefaf753e2624cc44e8cdf97bd53d72f8c",
            "0x000000000000000000000000de05a1abb121113a33eed248bd91ddc254d5e9db",
            "0x0000000000000000000000000000000000000000000000000000000000000004"
          ],
          "data": "0x",
          "blockHash": "0x94d73dcd28a3474c42874987890000999a6331672f7e4de274befbc2de8522ed",
          "blockNumber": "0x550651",
          "transactionHash": "0x95cfc5dea2d5fcc952091f47b9380bf69f3aac9d6b2d9ca60be0baff8b843d35",
          "transactionIndex": "0xf",
          "logIndex": "0x11",
          "removed": false
        },
        {
          "address": "0x3bACB53a7f5Eda5A784127aa0E9C1b3812B1b7a6",
          "topics": [
            "0xddf252ad1be2c89b69c2b068fc378daa952ba7f163c4a11628f55a4df523b3ef",
            "0x000000000000000000000000de05a1abb121113a33eed248bd91ddc254d5e9db",
            "0x000000000000000000000000b3c3bd52354857c40909333219c0dc7925aacb65",
            "0x0000000000000000000000000000000000000000000000000000000000000004"
          ],
          "data": "0x",
          "blockHash": "0x94d73dcd28a3474c42874987890000999a6331672f7e4de274befbc2de8522ed",
          "blockNumber": "0x550651",
          "transactionHash": "0x95cfc5dea2d5fcc952091f47b9380bf69f3aac9d6b2d9ca60be0baff8b843d35",
          "transactionIndex": "0xf",
          "logIndex": "0x12",
          "removed": false
        },
        {
          "address": "0xb3C3bd52354857C40909333219C0dC7925AaCB65",
          "topics": [
            "0xc1f9295331f5b6b03bfcca16fd4fdcdefaf753e2624cc44e8cdf97bd53d72f8c",
            "0x000000000000000000000000de05a1abb121113a33eed248bd91ddc254d5e9db",
            "0x0000000000000000000000000000000000000000000000000000000000000005"
          ],
          "data": "0x",
          "blockHash": "0x94d73dcd28a3474c42874987890000999a6331672f7e4de274befbc2de8522ed",
          "blockNumber": "0x550651",
          "transactionHash": "0x95cfc5dea2d5fcc952091f47b9380bf69f3aac9d6b2d9ca60be0baff8b843d35",
          "transactionIndex": "0xf",
          "logIndex": "0x13",
          "removed": false
        },
        {
          "address": "0x3bACB53a7f5Eda5A784127aa0E9C1b3812B1b7a6",
          "topics": [
            "0xddf252ad1be2c89b69c2b068fc378daa952ba7f163c4a11628f55a4df523b3ef",
            "0x000000000000000000000000de05a1abb121113a33eed248bd91ddc254d5e9db",
            "0x000000000000000000000000b3c3bd52354857c40909333219c0dc7925aacb65",
            "0x0000000000000000000000000000000000000000000000000000000000000005"
          ],
          "data": "0x",
          "blockHash": "0x94d73dcd28a3474c42874987890000999a6331672f7e4de274befbc2de8522ed",
          "blockNumber": "0x550651",
          "transactionHash": "0x95cfc5dea2d5fcc952091f47b9380bf69f3aac9d6b2d9ca60be0baff8b843d35",
          "transactionIndex": "0xf",
          "logIndex": "0x14",
          "removed": false
        },
        {
          "address": "0xcc1ae8Cf5D3904Cef3360A9532B477529b177cCE",
          "topics": [
            "0x61ed099e74a97a1d7f8bb0952a88ca8b7b8ebd00c126ea04671f92a81213318a"
          ],
          "data": "0x000000000000000000000000718b92b5cb0a5552039b593faf724d182a881eda000000000000000000000000000000000000000000000000000048cdc45d2861",
          "blockHash": "0x94d73dcd28a3474c42874987890000999a6331672f7e4de274befbc2de8522ed",
          "blockNumber": "0x550651",
          "transactionHash": "0x95cfc5dea2d5fcc952091f47b9380bf69f3aac9d6b2d9ca60be0baff8b843d35",
          "transactionIndex": "0xf",
          "logIndex": "0x15",
          "removed": false
        },
        {
          "address": "0xcc1ae8Cf5D3904Cef3360A9532B477529b177cCE",
          "topics": [
            "0x07ea52d82345d6e838192107d8fd7123d9c2ec8e916cd0aad13fd2b60db24644"
          ],
          "data": "0x000000000000000000000000000000000000000000000000000000000000006000000000000000000000000000000000000000000000000000000000000000a000000000000000000000000000000000000000000000000000000000000000c000000000000000000000000000000000000000000000000000000000000000010000000000000000000000008eebf8b423b73bfca51a1db4b7354aa0bfca91930000000000000000000000000000000000000000000000000000000000000000000000000000000000000000000000000000000000000000000000000000000100000000000000000000000000000000000000000000000000000b7386294751",
          "blockHash": "0x94d73dcd28a3474c42874987890000999a6331672f7e4de274befbc2de8522ed",
          "blockNumber": "0x550651",
          "transactionHash": "0x95cfc5dea2d5fcc952091f47b9380bf69f3aac9d6b2d9ca60be0baff8b843d35",
          "transactionIndex": "0xf",
          "logIndex": "0x16",
          "removed": false
        },
        {
          "address": "0x6EDCE65403992e310A62460808c4b910D972f10f",
          "topics": [
            "0x1ab700d4ced0c005b164c0f789fd09fcbb0156d4c2041b8a3bfbcd961cd1567f"
          ],
          "data": "0x00000000000000000000000000000000000000000000000000000000000000600000000000000000000000000000000000000000000000000000000000000200000000000000000000000000cc1ae8cf5d3904cef3360a9532b477529b177cce000000000000000000000000000000000000000000000000000000000000017101000000000000000200009ce1000000000000000000000000b3c3bd52354857c40909333219c0dc7925aacb6500009d27000000000000000000000000aace57a9300afb8e32b1240de0c74432e085474c3ab7f4ddb4c4cee8206ee623cffa9f8b5a9a9cccdc12e7b8e9aaa661c048a4a1000000000000000000000000de05a1abb121113a33eed248bd91ddc254d5e9db0000000000000000000000000000000000000000000000000000000000000040000000000000000000000000000000000000000000000000000000000000000500000000000000000000000000000000000000000000000000000000000000010000000000000000000000000000000000000000000000000000000000000002000000000000000000000000000000000000000000000000000000000000000300000000000000000000000000000000000000000000000000000000000000040000000000000000000000000000000000000000000000000000000000000005000000000000000000000000000000000000000000000000000000000000000000000000000000000000000000001600030100110100000000000000000000000000026a8e00000000000000000000",
          "blockHash": "0x94d73dcd28a3474c42874987890000999a6331672f7e4de274befbc2de8522ed",
          "blockNumber": "0x550651",
          "transactionHash": "0x95cfc5dea2d5fcc952091f47b9380bf69f3aac9d6b2d9ca60be0baff8b843d35",
          "transactionIndex": "0xf",
          "logIndex": "0x17",
          "removed": false
        }
      ],
      "status": "0x1",
      "logsBloom": "0x04000000000000000000040000000000000000000000000000100000000100000000000000000000200000000000000000000000020000000000000000040000000010000000000000200408000000000000000000040000000000000000000008000000000000008200000000000000000020000000004000000010000000000000000000000028000000080000001000000800000000000000000000000000000000808000000000100100000000000000000000c00000002448000000400000000002080000000000000000000000000000088000000000000000000040000000040000010020000000000000002020000000008000000000000400000020",
      "type": "0x2",
      "effectiveGasPrice": "0x109743c84"
    }
  ],
  "libraries": [],
  "pending": [],
  "returns": {},
  "timestamp": 1711551531,
  "chain": 11155111,
  "commit": "09f9777"
}