{
  "transactions": [
    {
      "hash": "0xe82998a7f8d4a186fbf507fa5e6695843803e09590937072f8a345b560414200",
      "transactionType": "CALL",
      "contractName": null,
      "contractAddress": "0x3dc5b1063e2ff0f675611922fc4b07acf79b518a",
      "function": "setPeer(uint32,bytes32)",
      "arguments": [
        "40245",
        "0x0000000000000000000000005d4d4b620488dc5ceb13a73a6e700925f7682b02"
      ],
      "transaction": {
        "from": "0x8c9c001f821c04513616fd7962b2d8c62f925fd2",
        "to": "0x3dc5b1063e2ff0f675611922fc4b07acf79b518a",
        "gas": "0x11088",
        "value": "0x0",
        "input": "0x3400288b0000000000000000000000000000000000000000000000000000000000009d350000000000000000000000005d4d4b620488dc5ceb13a73a6e700925f7682b02",
        "nonce": "0x58",
        "chainId": "0xaa36a7"
      },
      "additionalContracts": [],
      "isFixedGasLimit": false
    }
  ],
  "receipts": [
    {
      "status": "0x1",
      "cumulativeGasUsed": "0x15c1c8f",
      "logs": [
        {
          "address": "0x3dc5b1063e2ff0f675611922fc4b07acf79b518a",
          "topics": [
            "0x238399d427b947898edb290f5ff0f9109849b1c3ba196a42e35f00c50a54b98b"
          ],
          "data": "0x0000000000000000000000000000000000000000000000000000000000009d350000000000000000000000005d4d4b620488dc5ceb13a73a6e700925f7682b02",
          "blockHash": "0xc88b0c8f180720ae07f9c5849cd323935f50314b31c7914a0783a208d6cfa843",
          "blockNumber": "0x6e9bc5",
          "transactionHash": "0xe82998a7f8d4a186fbf507fa5e6695843803e09590937072f8a345b560414200",
          "transactionIndex": "0xa4",
          "logIndex": "0x149",
          "removed": false
        }
      ],
      "logsBloom": "0x00000000000000000000000000000000000000000000080000000000000000000000000000000000000000000000000000000000000000000800000000000000000000000000000000000000000000000000000000000000000000000000000000000001000000000000000000000000000000000000000000000000000000000000000000000000000000000000000000000000000000000000000000000000000000000000000000000000000000000000000000000000000002000000000000000000000000000000000000000000000000000000000000040000000000000000000002000000000000000000000000000000000000000000000000000000",
      "type": "0x2",
      "transactionHash": "0xe82998a7f8d4a186fbf507fa5e6695843803e09590937072f8a345b560414200",
      "transactionIndex": "0xa4",
      "blockHash": "0xc88b0c8f180720ae07f9c5849cd323935f50314b31c7914a0783a208d6cfa843",
      "blockNumber": "0x6e9bc5",
      "gasUsed": "0xba59",
      "effectiveGasPrice": "0x767adc3ad",
      "from": "0x8c9c001f821c04513616fd7962b2d8c62f925fd2",
      "to": "0x3dc5b1063e2ff0f675611922fc4b07acf79b518a",
      "contractAddress": null
    }
  ],
  "libraries": [],
  "pending": [],
  "returns": {},
  "timestamp": 1733815730,
  "chain": 11155111,
  "commit": "478b05fb"
}