{
  "transactions": [
    {
      "hash": "0x9972596747ac0db052b0569204ab2abb74560ca578f2d85203501e5bed7794f9",
      "transactionType": "CALL",
      "contractName": null,
      "contractAddress": "0x2e387a0740d7ac22809a3bd522b9fc39472f31ee",
      "function": "mint(uint256)",
      "arguments": [
        "0"
      ],
      "transaction": {
        "from": "0x8c9c001f821c04513616fd7962b2d8c62f925fd2",
        "to": "0x2e387a0740d7ac22809a3bd522b9fc39472f31ee",
        "gas": "0x17197",
        "value": "0x0",
        "input": "0xa0712d680000000000000000000000000000000000000000000000000000000000000000",
        "nonce": "0x7a",
        "chainId": "0xaa36a7"
      },
      "additionalContracts": [],
      "isFixedGasLimit": false
    },
    {
      "hash": "0x43358c18eaee96a6be490710fc1ae3b215ed07cc57fbb897f46e414cdc82d1c7",
      "transactionType": "CALL",
      "contractName": null,
      "contractAddress": "0x2e387a0740d7ac22809a3bd522b9fc39472f31ee",
      "function": "setApprovalForAll(address,bool)",
      "arguments": [
        "0x10DF7F2487c4F3c8038E440bB6566Ea11e342e38",
        "true"
      ],
      "transaction": {
        "from": "0x8c9c001f821c04513616fd7962b2d8c62f925fd2",
        "to": "0x2e387a0740d7ac22809a3bd522b9fc39472f31ee",
        "gas": "0x109c6",
        "value": "0x0",
        "input": "0xa22cb46500000000000000000000000010df7f2487c4f3c8038e440bb6566ea11e342e380000000000000000000000000000000000000000000000000000000000000001",
        "nonce": "0x7b",
        "chainId": "0xaa36a7"
      },
      "additionalContracts": [],
      "isFixedGasLimit": false
    },
    {
      "hash": "0x87305dd67bd8053365ccebc3ed627918253153c7d1cf5651c7bf74b7074e02af",
      "transactionType": "CALL",
      "contractName": null,
      "contractAddress": "0x10df7f2487c4f3c8038e440bb6566ea11e342e38",
      "function": "lock(uint256[])",
      "arguments": [
        "[0]"
      ],
      "transaction": {
        "from": "0x8c9c001f821c04513616fd7962b2d8c62f925fd2",
        "to": "0x10df7f2487c4f3c8038e440bb6566ea11e342e38",
        "gas": "0x7183c",
        "value": "0x68f9b107e132",
        "input": "0x859610c6000000000000000000000000000000000000000000000000000000000000002000000000000000000000000000000000000000000000000000000000000000010000000000000000000000000000000000000000000000000000000000000000",
        "nonce": "0x7c",
        "chainId": "0xaa36a7"
      },
      "additionalContracts": [],
      "isFixedGasLimit": false
    }
  ],
  "receipts": [
    {
      "status": "0x1",
      "cumulativeGasUsed": "0xd78bdb",
      "logs": [
        {
          "address": "0x2e387a0740d7ac22809a3bd522b9fc39472f31ee",
          "topics": [
            "0xddf252ad1be2c89b69c2b068fc378daa952ba7f163c4a11628f55a4df523b3ef",
            "0x0000000000000000000000000000000000000000000000000000000000000000",
            "0x0000000000000000000000008c9c001f821c04513616fd7962b2d8c62f925fd2",
            "0x0000000000000000000000000000000000000000000000000000000000000000"
          ],
          "data": "0x",
          "blockHash": "0x4bc3fbd112e422087830f7a761fdc3bc43467612a2836f12194f57c5cb1139a9",
          "blockNumber": "0x783a66",
          "blockTimestamp": "0x67cffa10",
          "transactionHash": "0x9972596747ac0db052b0569204ab2abb74560ca578f2d85203501e5bed7794f9",
          "transactionIndex": "0xb1",
          "logIndex": "0xaf",
          "removed": false
        }
      ],
      "logsBloom": "0x00000000080000000000000000000800000000000000000000000004000000000000000000000000000000000000000000000000000000000000000000000000000000000000000000000008004000000000000000000000000000000000000000000000020000000000000000000800000000000000000000000010000000000000000000000000000000000000000000000000000000000000000000040000000000000000000000000000000000000000000000000000000080000000000000000002000000000000000000000000000000000000000000000000000020000000000000000000000000000000000000000000000000000000000000000000",
      "type": "0x2",
      "transactionHash": "0x9972596747ac0db052b0569204ab2abb74560ca578f2d85203501e5bed7794f9",
      "transactionIndex": "0xb1",
      "blockHash": "0x4bc3fbd112e422087830f7a761fdc3bc43467612a2836f12194f57c5cb1139a9",
      "blockNumber": "0x783a66",
      "gasUsed": "0x10b94",
      "effectiveGasPrice": "0x1592a393",
      "from": "0x8c9c001f821c04513616fd7962b2d8c62f925fd2",
      "to": "0x2e387a0740d7ac22809a3bd522b9fc39472f31ee",
      "contractAddress": null
    },
    {
      "status": "0x1",
      "cumulativeGasUsed": "0xd84195",
      "logs": [
        {
          "address": "0x2e387a0740d7ac22809a3bd522b9fc39472f31ee",
          "topics": [
            "0x17307eab39ab6107e8899845ad3d59bd9653f200f220920489ca2b5937696c31",
            "0x0000000000000000000000008c9c001f821c04513616fd7962b2d8c62f925fd2",
            "0x00000000000000000000000010df7f2487c4f3c8038e440bb6566ea11e342e38"
          ],
          "data": "0x0000000000000000000000000000000000000000000000000000000000000001",
          "blockHash": "0x4bc3fbd112e422087830f7a761fdc3bc43467612a2836f12194f57c5cb1139a9",
          "blockNumber": "0x783a66",
          "blockTimestamp": "0x67cffa10",
          "transactionHash": "0x43358c18eaee96a6be490710fc1ae3b215ed07cc57fbb897f46e414cdc82d1c7",
          "transactionIndex": "0xb2",
          "logIndex": "0xb0",
          "removed": false
        }
      ],
      "logsBloom": "0x00100000080000000000000000000800000000000000000000000004000000000000000000000000000000000000000000000000000000000000000000100000000000000000000000000000004000000000000000000000000000000800000002000000000000000000000000000000000000000000000000000000000000000000000000000000000000000000000000000000000000000000000000040000000000000000000000000000000000000000000000000000000080000000000000000000000000000000000000000000000000000000000000000000000000000000200800000000000000000000000000000000000000000000000000000000",
      "type": "0x2",
      "transactionHash": "0x43358c18eaee96a6be490710fc1ae3b215ed07cc57fbb897f46e414cdc82d1c7",
      "transactionIndex": "0xb2",
      "blockHash": "0x4bc3fbd112e422087830f7a761fdc3bc43467612a2836f12194f57c5cb1139a9",
      "blockNumber": "0x783a66",
      "gasUsed": "0xb5ba",
      "effectiveGasPrice": "0x1592a393",
      "from": "0x8c9c001f821c04513616fd7962b2d8c62f925fd2",
      "to": "0x2e387a0740d7ac22809a3bd522b9fc39472f31ee",
      "contractAddress": null
    },
    {
      "status": "0x1",
      "cumulativeGasUsed": "0xdd6482",
      "logs": [
        {
          "address": "0x2e387a0740d7ac22809a3bd522b9fc39472f31ee",
          "topics": [
            "0xddf252ad1be2c89b69c2b068fc378daa952ba7f163c4a11628f55a4df523b3ef",
            "0x0000000000000000000000008c9c001f821c04513616fd7962b2d8c62f925fd2",
            "0x00000000000000000000000010df7f2487c4f3c8038e440bb6566ea11e342e38",
            "0x0000000000000000000000000000000000000000000000000000000000000000"
          ],
          "data": "0x",
          "blockHash": "0x4bc3fbd112e422087830f7a761fdc3bc43467612a2836f12194f57c5cb1139a9",
          "blockNumber": "0x783a66",
          "blockTimestamp": "0x67cffa10",
          "transactionHash": "0x87305dd67bd8053365ccebc3ed627918253153c7d1cf5651c7bf74b7074e02af",
          "transactionIndex": "0xb3",
          "logIndex": "0xb1",
          "removed": false
        },
        {
          "address": "0x10df7f2487c4f3c8038e440bb6566ea11e342e38",
          "topics": [
            "0x1c36b098d11447726bd331073fb3d8ff3d57dee04522d82dc9eeb51536d39595",
            "0x0000000000000000000000008c9c001f821c04513616fd7962b2d8c62f925fd2",
            "0x290decd9548b62a8d60345a988386fc84ba6bc95484008f6362f93160ef3e563"
          ],
          "data": "0x",
          "blockHash": "0x4bc3fbd112e422087830f7a761fdc3bc43467612a2836f12194f57c5cb1139a9",
          "blockNumber": "0x783a66",
          "blockTimestamp": "0x67cffa10",
          "transactionHash": "0x87305dd67bd8053365ccebc3ed627918253153c7d1cf5651c7bf74b7074e02af",
          "transactionIndex": "0xb3",
          "logIndex": "0xb2",
          "removed": false
        },
        {
          "address": "0xcc1ae8cf5d3904cef3360a9532b477529b177cce",
          "topics": [
            "0x61ed099e74a97a1d7f8bb0952a88ca8b7b8ebd00c126ea04671f92a81213318a"
          ],
          "data": "0x000000000000000000000000718b92b5cb0a5552039b593faf724d182a881eda000000000000000000000000000000000000000000000000000063e53383f91c",
          "blockHash": "0x4bc3fbd112e422087830f7a761fdc3bc43467612a2836f12194f57c5cb1139a9",
          "blockNumber": "0x783a66",
          "blockTimestamp": "0x67cffa10",
          "transactionHash": "0x87305dd67bd8053365ccebc3ed627918253153c7d1cf5651c7bf74b7074e02af",
          "transactionIndex": "0xb3",
          "logIndex": "0xb3",
          "removed": false
        },
        {
          "address": "0xcc1ae8cf5d3904cef3360a9532b477529b177cce",
          "topics": [
            "0x07ea52d82345d6e838192107d8fd7123d9c2ec8e916cd0aad13fd2b60db24644"
          ],
          "data": "0x000000000000000000000000000000000000000000000000000000000000006000000000000000000000000000000000000000000000000000000000000000a000000000000000000000000000000000000000000000000000000000000000c000000000000000000000000000000000000000000000000000000000000000010000000000000000000000008eebf8b423b73bfca51a1db4b7354aa0bfca919300000000000000000000000000000000000000000000000000000000000000000000000000000000000000000000000000000000000000000000000000000001000000000000000000000000000000000000000000000000000005147d83e816",
          "blockHash": "0x4bc3fbd112e422087830f7a761fdc3bc43467612a2836f12194f57c5cb1139a9",
          "blockNumber": "0x783a66",
          "blockTimestamp": "0x67cffa10",
          "transactionHash": "0x87305dd67bd8053365ccebc3ed627918253153c7d1cf5651c7bf74b7074e02af",
          "transactionIndex": "0xb3",
          "logIndex": "0xb4",
          "removed": false
        },
        {
          "address": "0x6edce65403992e310a62460808c4b910d972f10f",
          "topics": [
            "0x1ab700d4ced0c005b164c0f789fd09fcbb0156d4c2041b8a3bfbcd961cd1567f"
          ],
          "data": "0x00000000000000000000000000000000000000000000000000000000000000600000000000000000000000000000000000000000000000000000000000000180000000000000000000000000cc1ae8cf5d3904cef3360a9532b477529b177cce00000000000000000000000000000000000000000000000000000000000000f101000000000000000100009ce100000000000000000000000010df7f2487c4f3c8038e440bb6566ea11e342e3800009d35000000000000000000000000284c14ba977714f4d1904f6c65e4e5a4c27696c2ad79c564b25737044e3bbc9a38a9f035b226bb5504f07be8657be5ad877059ea0000000000000000000000008c9c001f821c04513616fd7962b2d8c62f925fd200000000000000000000000000000000000000000000000000000000000000400000000000000000000000000000000000000000000000000000000000000001000000000000000000000000000000000000000000000000000000000000000000000000000000000000000000000000000000000000000000000000000000000000000000000000000000000000160003010011010000000000000000000000000000caee00000000000000000000",
          "blockHash": "0x4bc3fbd112e422087830f7a761fdc3bc43467612a2836f12194f57c5cb1139a9",
          "blockNumber": "0x783a66",
          "blockTimestamp": "0x67cffa10",
          "transactionHash": "0x87305dd67bd8053365ccebc3ed627918253153c7d1cf5651c7bf74b7074e02af",
          "transactionIndex": "0xb3",
          "logIndex": "0xb5",
          "removed": false
        }
      ],
      "logsBloom": "0x001000000800000000080000000008000000000000000000000000040001000000000000080000002000000000000000008000000000000000000000001000000000000000000000000000080040000000000000000000000000000108000000000000000200000082000000000008000000000000000000000000900000000000000000000000200000200800000000000000000000000000000000000400000000000080000000001000000000000000000000004000000004c0000000000000000002000000000000000000000000000000080000000008000000000060000000040000000000000000000000002000000000000000000000010000000020",
      "type": "0x2",
      "transactionHash": "0x87305dd67bd8053365ccebc3ed627918253153c7d1cf5651c7bf74b7074e02af",
      "transactionIndex": "0xb3",
      "blockHash": "0x4bc3fbd112e422087830f7a761fdc3bc43467612a2836f12194f57c5cb1139a9",
      "blockNumber": "0x783a66",
      "gasUsed": "0x522ed",
      "effectiveGasPrice": "0x1592a393",
      "from": "0x8c9c001f821c04513616fd7962b2d8c62f925fd2",
      "to": "0x10df7f2487c4f3c8038e440bb6566ea11e342e38",
      "contractAddress": null
    }
  ],
  "libraries": [],
  "pending": [],
  "returns": {},
  "timestamp": 1741683216,
  "chain": 11155111,
  "commit": "0f486f24"
}