{
  "transactions": [
    {
      "hash": "0xf48009ed02943f07a90fb2e37eaef5676657d060ff3b46b0eb6766a7b3ad64b0",
      "transactionType": "CALL",
      "contractName": "MockNft",
      "contractAddress": "0x54d4E6adc4f152ED4919C940CB3EA13B912519c9",
      "function": "mint(uint256)",
      "arguments": [
        "0"
      ],
      "transaction": {
        "type": "0x02",
        "from": "0xde05a1abb121113a33eed248bd91ddc254d5e9db",
        "to": "0x54d4e6adc4f152ed4919c940cb3ea13b912519c9",
        "gas": "0x16fdd",
        "value": "0x0",
        "data": "0xa0712d680000000000000000000000000000000000000000000000000000000000000000",
        "nonce": "0x143",
        "accessList": []
      },
      "additionalContracts": [],
      "isFixedGasLimit": false
    },
    {
      "hash": "0xcdd6ad05c00364fcf2978b604656466f1b11f9ff1be6e59b2de3b8781230d20c",
      "transactionType": "CALL",
      "contractName": "MockNft",
      "contractAddress": "0x54d4E6adc4f152ED4919C940CB3EA13B912519c9",
      "function": "setApprovalForAll(address,bool)",
      "arguments": [
        "0x18F786AE5Fb1639BAa4fcE4B8F29c783949a66A8",
        "true"
      ],
      "transaction": {
        "type": "0x02",
        "from": "0xde05a1abb121113a33eed248bd91ddc254d5e9db",
        "to": "0x54d4e6adc4f152ed4919c940cb3ea13b912519c9",
        "gas": "0xf89d",
        "value": "0x0",
        "data": "0xa22cb46500000000000000000000000018f786ae5fb1639baa4fce4b8f29c783949a66a80000000000000000000000000000000000000000000000000000000000000001",
        "nonce": "0x144",
        "accessList": []
      },
      "additionalContracts": [],
      "isFixedGasLimit": false
    },
    {
      "hash": "0xb61fbbffc6ef575cc74f9c139449beffb1eb2a19158b53b2e87a70fe38b436d2",
      "transactionType": "CALL",
      "contractName": "NftLocker",
      "contractAddress": "0x18F786AE5Fb1639BAa4fcE4B8F29c783949a66A8",
      "function": "lock(uint256[])",
      "arguments": [
        "[0]"
      ],
      "transaction": {
        "type": "0x02",
        "from": "0xde05a1abb121113a33eed248bd91ddc254d5e9db",
        "to": "0x18f786ae5fb1639baa4fce4b8f29c783949a66a8",
        "gas": "0x743e4",
        "value": "0x15cc2de0916c1",
        "data": "0x859610c6000000000000000000000000000000000000000000000000000000000000002000000000000000000000000000000000000000000000000000000000000000010000000000000000000000000000000000000000000000000000000000000000",
        "nonce": "0x145",
        "accessList": []
      },
      "additionalContracts": [],
      "isFixedGasLimit": false
    }
  ],
  "receipts": [
    {
      "transactionHash": "0xf48009ed02943f07a90fb2e37eaef5676657d060ff3b46b0eb6766a7b3ad64b0",
      "transactionIndex": "0x2",
      "blockHash": "0x38d0462939be29f4e53713912ba8ea4fd2d57f299bea6b0cbf8431d00b986cb6",
      "blockNumber": "0x559ce8",
      "from": "0xdE05a1Abb121113a33eeD248BD91ddC254d5E9Db",
      "to": "0x54d4E6adc4f152ED4919C940CB3EA13B912519c9",
      "cumulativeGasUsed": "0x314bf",
      "gasUsed": "0x10a54",
      "contractAddress": null,
      "logs": [
        {
          "address": "0x54d4E6adc4f152ED4919C940CB3EA13B912519c9",
          "topics": [
            "0xddf252ad1be2c89b69c2b068fc378daa952ba7f163c4a11628f55a4df523b3ef",
            "0x0000000000000000000000000000000000000000000000000000000000000000",
            "0x000000000000000000000000de05a1abb121113a33eed248bd91ddc254d5e9db",
            "0x0000000000000000000000000000000000000000000000000000000000000000"
          ],
          "data": "0x",
          "blockHash": "0x38d0462939be29f4e53713912ba8ea4fd2d57f299bea6b0cbf8431d00b986cb6",
          "blockNumber": "0x559ce8",
          "transactionHash": "0xf48009ed02943f07a90fb2e37eaef5676657d060ff3b46b0eb6766a7b3ad64b0",
          "transactionIndex": "0x2",
          "logIndex": "0x2",
          "removed": false
        }
      ],
      "status": "0x1",
      "logsBloom": "0x00000000000000000000000000000000000000000000000000100000000000000000000000000000000000000000000000000000000000000000000000000000000000000000000000000008000000000000000000000000000000200000000000000000020000000000000000000800000000040000004000000010000000000000002000000020000000000000000000000000000000000000000000000000000000000000000000000000000000000000000000000000000000000000000000000002000000000000000000000000000000000000000000000000000020000000000000000000000000000000000000000000000000000000000000000000",
      "type": "0x2",
      "effectiveGasPrice": "0xb2d089a2"
    },
    {
      "transactionHash": "0xcdd6ad05c00364fcf2978b604656466f1b11f9ff1be6e59b2de3b8781230d20c",
      "transactionIndex": "0x3",
      "blockHash": "0x38d0462939be29f4e53713912ba8ea4fd2d57f299bea6b0cbf8431d00b986cb6",
      "blockNumber": "0x559ce8",
      "from": "0xdE05a1Abb121113a33eeD248BD91ddC254d5E9Db",
      "to": "0x54d4E6adc4f152ED4919C940CB3EA13B912519c9",
      "cumulativeGasUsed": "0x3c8be",
      "gasUsed": "0xb3ff",
      "contractAddress": null,
      "logs": [
        {
          "address": "0x54d4E6adc4f152ED4919C940CB3EA13B912519c9",
          "topics": [
            "0x17307eab39ab6107e8899845ad3d59bd9653f200f220920489ca2b5937696c31",
            "0x000000000000000000000000de05a1abb121113a33eed248bd91ddc254d5e9db",
            "0x00000000000000000000000018f786ae5fb1639baa4fce4b8f29c783949a66a8"
          ],
          "data": "0x0000000000000000000000000000000000000000000000000000000000000001",
          "blockHash": "0x38d0462939be29f4e53713912ba8ea4fd2d57f299bea6b0cbf8431d00b986cb6",
          "blockNumber": "0x559ce8",
          "transactionHash": "0xcdd6ad05c00364fcf2978b604656466f1b11f9ff1be6e59b2de3b8781230d20c",
          "transactionIndex": "0x3",
          "logIndex": "0x3",
          "removed": false
        }
      ],
      "status": "0x1",
      "logsBloom": "0x00000000000000000000000000000000000000000000000000100000000000000000000000000000000000000000000000000000000000000000000000000000000000000000000000000000000000000000000000000000000000200000000002000000000000000000000000000000000000040000004000000000000000000000002000000020000000000000000000000000000000200000000000000000000000000000000000000000000000000000000000000000000000000000000000000000000000000000000000000000000000000000000000001000000000000000200800000000000000000000000000000000000000000000800000000000",
      "type": "0x2",
      "effectiveGasPrice": "0xb2d089a2"
    },
    {
      "transactionHash": "0xb61fbbffc6ef575cc74f9c139449beffb1eb2a19158b53b2e87a70fe38b436d2",
      "transactionIndex": "0x4",
      "blockHash": "0x38d0462939be29f4e53713912ba8ea4fd2d57f299bea6b0cbf8431d00b986cb6",
      "blockNumber": "0x559ce8",
      "from": "0xdE05a1Abb121113a33eeD248BD91ddC254d5E9Db",
      "to": "0x18F786AE5Fb1639BAa4fcE4B8F29c783949a66A8",
      "cumulativeGasUsed": "0x8c077",
      "gasUsed": "0x4f7b9",
      "contractAddress": null,
      "logs": [
        {
          "address": "0x54d4E6adc4f152ED4919C940CB3EA13B912519c9",
          "topics": [
            "0xddf252ad1be2c89b69c2b068fc378daa952ba7f163c4a11628f55a4df523b3ef",
            "0x000000000000000000000000de05a1abb121113a33eed248bd91ddc254d5e9db",
            "0x00000000000000000000000018f786ae5fb1639baa4fce4b8f29c783949a66a8",
            "0x0000000000000000000000000000000000000000000000000000000000000000"
          ],
          "data": "0x",
          "blockHash": "0x38d0462939be29f4e53713912ba8ea4fd2d57f299bea6b0cbf8431d00b986cb6",
          "blockNumber": "0x559ce8",
          "transactionHash": "0xb61fbbffc6ef575cc74f9c139449beffb1eb2a19158b53b2e87a70fe38b436d2",
          "transactionIndex": "0x4",
          "logIndex": "0x4",
          "removed": false
        },
        {
          "address": "0x18F786AE5Fb1639BAa4fcE4B8F29c783949a66A8",
          "topics": [
            "0x1c36b098d11447726bd331073fb3d8ff3d57dee04522d82dc9eeb51536d39595",
            "0x000000000000000000000000de05a1abb121113a33eed248bd91ddc254d5e9db",
            "0x290decd9548b62a8d60345a988386fc84ba6bc95484008f6362f93160ef3e563"
          ],
          "data": "0x",
          "blockHash": "0x38d0462939be29f4e53713912ba8ea4fd2d57f299bea6b0cbf8431d00b986cb6",
          "blockNumber": "0x559ce8",
          "transactionHash": "0xb61fbbffc6ef575cc74f9c139449beffb1eb2a19158b53b2e87a70fe38b436d2",
          "transactionIndex": "0x4",
          "logIndex": "0x5",
          "removed": false
        },
        {
          "address": "0xcc1ae8Cf5D3904Cef3360A9532B477529b177cCE",
          "topics": [
            "0x61ed099e74a97a1d7f8bb0952a88ca8b7b8ebd00c126ea04671f92a81213318a"
          ],
          "data": "0x000000000000000000000000718b92b5cb0a5552039b593faf724d182a881eda0000000000000000000000000000000000000000000000000000d3c7fbb990c1",
          "blockHash": "0x38d0462939be29f4e53713912ba8ea4fd2d57f299bea6b0cbf8431d00b986cb6",
          "blockNumber": "0x559ce8",
          "transactionHash": "0xb61fbbffc6ef575cc74f9c139449beffb1eb2a19158b53b2e87a70fe38b436d2",
          "transactionIndex": "0x4",
          "logIndex": "0x6",
          "removed": false
        },
        {
          "address": "0xcc1ae8Cf5D3904Cef3360A9532B477529b177cCE",
          "topics": [
            "0x07ea52d82345d6e838192107d8fd7123d9c2ec8e916cd0aad13fd2b60db24644"
          ],
          "data": "0x000000000000000000000000000000000000000000000000000000000000006000000000000000000000000000000000000000000000000000000000000000a000000000000000000000000000000000000000000000000000000000000000c000000000000000000000000000000000000000000000000000000000000000010000000000000000000000008eebf8b423b73bfca51a1db4b7354aa0bfca919300000000000000000000000000000000000000000000000000000000000000000000000000000000000000000000000000000000000000000000000000000001000000000000000000000000000000000000000000000000000088fae24f8600",
          "blockHash": "0x38d0462939be29f4e53713912ba8ea4fd2d57f299bea6b0cbf8431d00b986cb6",
          "blockNumber": "0x559ce8",
          "transactionHash": "0xb61fbbffc6ef575cc74f9c139449beffb1eb2a19158b53b2e87a70fe38b436d2",
          "transactionIndex": "0x4",
          "logIndex": "0x7",
          "removed": false
        },
        {
          "address": "0x6EDCE65403992e310A62460808c4b910D972f10f",
          "topics": [
            "0x1ab700d4ced0c005b164c0f789fd09fcbb0156d4c2041b8a3bfbcd961cd1567f"
          ],
          "data": "0x00000000000000000000000000000000000000000000000000000000000000600000000000000000000000000000000000000000000000000000000000000180000000000000000000000000cc1ae8cf5d3904cef3360a9532b477529b177cce00000000000000000000000000000000000000000000000000000000000000f101000000000000000100009ce100000000000000000000000018f786ae5fb1639baa4fce4b8f29c783949a66a800009d2700000000000000000000000003d9842e73b061ac6e20b7376fe3feedf55bc71a83a33ba46becdb1c0f6025fa44fff03247d64ba136976e7516aa8f3bf44e7039000000000000000000000000de05a1abb121113a33eed248bd91ddc254d5e9db00000000000000000000000000000000000000000000000000000000000000400000000000000000000000000000000000000000000000000000000000000001000000000000000000000000000000000000000000000000000000000000000000000000000000000000000000000000000000000000000000000000000000000000000000000000000000000000160003010011010000000000000000000000000000caee00000000000000000000",
          "blockHash": "0x38d0462939be29f4e53713912ba8ea4fd2d57f299bea6b0cbf8431d00b986cb6",
          "blockNumber": "0x559ce8",
          "transactionHash": "0xb61fbbffc6ef575cc74f9c139449beffb1eb2a19158b53b2e87a70fe38b436d2",
          "transactionIndex": "0x4",
          "logIndex": "0x8",
          "removed": false
        }
      ],
      "status": "0x1",
      "logsBloom": "0x00000000000000000000000000000000000000000000000000100000020100000000000008000000200000000000000000800000000000000000000000000000000000000000000000000008000000000000002000000000000000210000000000000000020000008200000000000800000000040000004000000010000000000000002000000020000000080000000000000000000000200000000000000000000000008000000000100000000000000000000000400000000440000000000000000002000000000000000000000000000000080000000008001100000060000000040000000000000000000000002000000000000000000000810000000020",
      "type": "0x2",
      "effectiveGasPrice": "0xb2d089a2"
    }
  ],
  "libraries": [],
  "pending": [],
  "returns": {},
  "timestamp": 1712029720,
  "chain": 11155111,
  "commit": "38d1422"
}